:020000040800F2
:1000000078040020F9140008D5140008D71400085B
:10001000D9140008DB140008DD14000800000000FB
:10002000000000000000000000000000DF140008D5
:10003000E114000800000000E3140008E5140008C3
:1000400025150008291500082D1500083115000890
:1000500035150008391500083D1500084115000840
:1000600045150008491500084D15000851150008F0
:1000700055150008591500085D15000861150008A0
:1000800065150008691500086D1500087115000850
:1000900075150008791500087D1500088115000800
:1000A0000000000085150008891500088D1500085E
:1000B0009115000895150008991500089D15000870
:1000C000A1150008A5150008A9150008AD15000820
:1000D000B1150008B5150008B9150008BD150008D0
:1000E000C1150008C5150008C9150008CD15000880
:1000F000D115000800000000D5150008D91500082A
:100100000000000000000000DD150008E1150008F7
:10011000E5150008E9150008ED15000800000000CD
:10012000F11500082DE9FC47040040D0DFF8DC653C
:10013000B068B56800F00C082078C10705F4803578
:100140000ED5B8F1080F05D0B8F10C0F08BFB5F502
:10015000803F47D13068810302D56068002826D0EF
:100160002078DFF8B475810714D5B8F1040F04D0F6
:10017000B8F10C0F08BF002D6BD13068810702D594
:10018000E06801281ED17068216920F4F85040EA27
:10019000012070602078C10640F1B280B8F1000FF4
:1001A00040F097803068810503D5A069002800F0F1
:1001B0008481206A716801F46041814266D200F056
:1001C0006AFA002840F079817168206A21F4604160
:1001D000014371607168E06921F07F4141EA00618B
:1001E00071605EE06068012804D1306840F48030BE
:1001F000306013E008B9306809E00528306806D19E
:1002000040F480203060316841F4803105E020F412
:1002100080303060316821F480213160606860B1E5
:1002200000F08EFA07463068810399D400F088FA0E
:10023000C01B6528F7D3032042E100F081FA07468E
:10024000306881038CD500F07BFAC01B6528F7D39A
:10025000F1E7E06868B10121396000F071FA054604
:10026000306881078FD400F06BFA401B0228F7D961
:10027000E1E7386000F064FA05463168880789D5FF
:1002800000F05EFA401B0228F7D9D4E7716821F428
:100290006041084300F016F9206A00F0FCF90028DC
:1002A00090D1216AB268490BC2F303120120491CA4
:1002B0008840DFF86814DFF85834895CC003C84010
:1002C0001860DFF85004006800F040FA010017D011
:1002D000F6E0A06948B30121396200F031FA054621
:1002E0003068810505D400F02BFA401B0228F7D9AD
:1002F000A1E77068216A20F46040084300F0E2F84A
:10030000207801072BD56069DFF81414D0B10122E1
:100310000A6000F015FA0546706B81071FD400F0E3
:100320000FFA401B0228F7D985E7386200F008FA77
:10033000054630688105E3D500F002FA401B02282B
:10034000F7D978E7086000F0FBF90546706B810784
:1003500005D500F0F5F9401B0228F7D96BE72078A6
:10036000410761D5706A0025C10009D4706A40F068
:10037000805070620125706A00F0805000900098F3
:10038000DFF8A093D9F80000C10513D4D9F8000014
:1003900040F48070C9F8000000F0D2F98246D9F824
:1003A0000000C10506D400F0CBF9A0EB0A006528D7
:1003B000F5D340E7A068012808D008B9706B09E0C0
:1003C0000528706B06D140F480607063706B40F458
:1003D000807005E020F480707063706B20F48060A2
:1003E000706341F28939A06860B100F0A9F98246D2
:1003F000706B810513D400F0A3F9A0EB0A00484507
:10040000F6D318E700F09CF98246706B810506D59B
:1004100000F096F9A0EB0A004845F6D30BE71DB1B2
:10042000706A20F080507062606A002847D0B8F18E
:100430000C0F30D0022822D100F04DF8054630686C
:10044000810105D500F07CF9401B0228F7D9F2E6BE
:10045000B068A16AE26A20F47D000843216B104372
:100460000843B060012000F037F80446306881018D
:1004700025D400F065F9001B0228F7D9DBE600F06F
:100480002AF804463068810119D500F059F9001B9B
:100490000228F7D9CFE601280FD0B068A26A00F48D
:1004A0008031914202BF00F47011E26A914202BFB2
:1004B00000F44000216B884201D0012000E00020C0
:1004C000BDE8F68770607068E16920F07F4040EA1F
:1004D0000160706070470020386600F031B92DE986
:1004E000F843040089466FD0DFF83C62306800F0C2
:1004F0000100484502D200F08EF865D12078DFF87F
:100500000C52810705D5AA68A06822F0F0020243C8
:10051000AA602178C8074FD56068022802D12968EF
:100520008A0308E0032802D129688A0103E0012830
:10053000296802D18A0702D446E08A0544D5A96811
:10054000890840EA8100A86041F2893800F0F8F893
:100550000746606802280BD1A86800F00C00082844
:100560002AD000F0EDF8C01B4045F5D3032050E041
:1005700003280AD1A86800F00C000C281CD000F059
:10058000DFF8C01B4045F5D3F0E701280AD1A86881
:1005900000F00C0004280FD000F0D2F8C01B40453A
:1005A000F5D3E3E7A86810F00C0F05D000F0C8F809
:1005B000C01B4045F6D3D9E7306800F00100814503
:1005C00004D200F028F801D0012022E02078410771
:1005D00005D5AA68E06822F4E0620243AA602178A7
:1005E000080706D5A968206921F4605141EAC001D5
:1005F000A96000F021F8AA684849454BC2F30312EC
:10060000895CC8401860BDE8F2434248006800F0C9
:100610009DB8BDE8F283B9F1010F03D1306840F015
:10062000040030603168490849EA410131603068AE
:1006300000F001004845704730B53D48416801F081
:100640000C02042A04D0082A04D00C2A04D018E092
:10065000384830BD384830BD384AC1F38343D45C94
:100660004068C1F38152521C0023C50347BF324882
:10067000A0FB04012F4DA5FB0401BDE8304000F0B4
:1006800087B80068400B00F007000121401C01FA08
:1006900000F0C00330BD78B5244B23491C6800220C
:1006A00014F0F00F22D1DD691E4CEE0003D5246852
:1006B00004F4C0540FE0DD6945F08055DD61DD696B
:1006C00005F080550095009D2468DD6925F0805572
:1006D00004F4C054DD61B4F5C05F08BFB0F5404F0D
:1006E00004D1086840F00400012208600B685B0830
:1006F00042EA43030B60086800F00100904201D019
:10070000012072BD002072BD0000000000380240D0
:100710000C00002004000020000047427C14000868
:100720008006474200700040003C0240083802400A
:10073000043802400024F40000366E0170140008F2
:1007400001480068704700BF0000002070B50E4EE1
:100750000446B0680025A0B14FF47A710B4AB1FB92
:10076000F0F11068B0FBF1F000F0E9F848B9102C96
:1007700007D2002221464FF0FF3000F0C3F874602A
:1007800000E00125284670BD000000200C0000207C
:10079000D3BBD9B1B2F5803F5BD2022A1ED98C46B9
:1007A000B1FBF2F102FB11C31B0443EA1043B3FB9C
:1007B000F2FC02FB1C3380B240EA0343B3FBF2F0CD
:1007C00002FB103240EA0C4000237047022A05D990
:1007D0008446B0FBF2F002FB10C270474AB105D16B
:1007E00000F0010249085FEA300070470022002350
:1007F000704700F0C3B80B000200002100207047D2
:10080000F7D3002200237047904271EB030CF2D320
:1008100070B5B1FA81F4B3FA83F52C1BA340C4F18F
:10082000200532FA05F63343A2405FF00046E64069
:1008300002E05B085FEA3202841A71EB030524BF11
:10084000204629467641F4D302000B0030000021F7
:1008500070BD70B5B1FA81F4B2FA82F5C4F120042A
:100860006419B4F12006DAD3B2405FF00044F440DA
:10087000002502E052085FEA3303C61A71EB020E4C
:1008800024BF3046714664416D41F3D302000B0032
:100890002000290070BD30B4002513E050F8042B6F
:1008A000D30744BFA9F101039A18091F042942F88C
:1008B000045BFAD213468C0744BF15809B1CC90702
:1008C00048BF1D7050F8041B0029E7D130BC7047A9
:1008D0000901020002D4244881547047234B02F0DE
:1008E0000F021A4402F8041C7047214B19684FF696
:1008F000FF020002114000F4E06008431D49084374
:100900001860704770B51A4B1C68C4F302230124A9
:10091000C3F10705052D2EBF0F2504FA05F56D1E41
:100920001E1D072E34BF0023DB1E2940994004FA08
:1009300003F3BDE870405B1E1A401143C8E710B5D1
:10094000401EB0F1807F01D3012010BD0A4C6060D1
:100950000F214FF0FF30FFF7BBFF0021A160072000
:100960002060002010BD000000E400E018ED00E071
:100970000CED00E00000FA0510E000E0704730B434
:100980000EE00268436802440830DC0744BFA9F166
:100990000104E31852F8045B43F8045B091FF9D122
:1009A00050F8041B0029ECD130BC704738B5040066
:1009B00001D1012032BD606A28B900F051F805D09C
:1009C0000021E16102E00020206160610020A0625E
:1009D00004F15005687820B900212970204600F004
:1009E000FEF90220687000F043F96068A168E268CF
:1009F00000F4827001F404410843217C02F4006297
:100A00001043227D01F002010843A16902F00102B6
:100A10001043227F01F40071084394F8201002F083
:100A200038021043A26A01F080010843216802F4F1
:100A3000005210430860A06994F824102268000C4A
:100A400000F0040001F01001084350602068C16903
:100A500021F40061C161002068600121697032BD2C
:100A60006068B0F5827F70472DE9FC4700F0D4F84C
:100A70004FF0010808BF022000F0C5809A4687F8B1
:100A80000080FFF75DFE7B78012B09D06968B1F526
:100A9000827F02BFA9680029042B01D00226AFE0A3
:100AA000002C1CBFB9F1000FBAF1000F00F0A480B8
:100AB0007B78042B1CBF052179707E60C5F83890C7
:100AC000A5F83EA0A5F83CA02C63A5F836A0A5F893
:100AD00034A02E646E6429680C68630603D40C6825
:100AE00044F040040C60E9680A9CB1F5006F696845
:100AF00038D1002918BFBAF1010F00F0ADF88146D6
:100B0000E88E002804BFE88F002868D0296888682C
:100B100082070BD5E88E002818BFB8F1000F05D06A
:100B2000286B0288CA60B04600F06FF829688868B0
:100B3000C2070CD5E88F50B1C868A96B08804FF088
:100B40000108A86B821CAA63E88F411EE987FFF7A2
:100B5000F7FDA0EB0900A042D2D314F1010FCFD0D2
:100B600003264BE0002918BFBAF1010F00F068F826
:100B70008146E88E002804BFE88F00282FD029681E
:100B8000886882070DD5E88E002818BFB8F1000FDD
:100B900007D0286B02780A73B046286B411C00F01E
:100BA00036F829688868C2070CD5E88F50B1C86844
:100BB000A96B08704FF00108A86B421CAA63E88F6C
:100BC000411EE987FFF7BCFDA0EB0900A04203D35B
:100BD00014F1010FCDD0C3E7002CCAD1C0E74A46BB
:100BE0002146284600F0AAF818B120200126786096
:100BF00006E000F01AF808B1012601E00120787043
:100C0000002139703046BDE8F687286B811C2963C6
:100C1000E88E411EE9867047054605F1500700261B
:100C2000387801280C4691467047A86830B900967C
:100C30002968CA68009289680091009A78687047AC
:100C400009D1296B2B680A781A73296B4A1C2A630D
:100C5000E98E4A1EEA86704709D1296B2B680A88FB
:100C6000DA60296B8A1C2A63E98E4A1EEA8670477D
:100C70002068016821F04001016070472DE9F843C8
:100C8000089C05460E4690461F46FFF759FD381A48
:100C90002418FFF755FD81463F4801684901090DB9
:100CA0006143009105E0009800B900240098401EBF
:100CB0000090286881683140B1420CBF01200020BB
:100CC000404532D017F1010FF3D0FFF739FDA0EB0B
:100CD0000900A04201D2002CE5D12868416821F02A
:100CE000E00141606868B0F5827F08D1A868B0F57E
:100CF000004F18BFB0F5806F01D100F019F8A86A55
:100D0000B0F5005F09D12868016821F40051016045
:100D10002868026842F40052026005F15000012187
:100D2000417000220270032000E00020BDE8F28341
:100D30002868016821F04001016070477CB50446D5
:100D40001548164E0B4601681825B1FBF5F5B5FBA5
:100D5000F6F64FF47A70464300966168B1F5827FEB
:100D600009D10092802100222046FFF787FF58B169
:100D700000F00CF876BD009830B10098401E00904D
:100D8000216888680106F6D4002076BD606D40F0C9
:100D900020006065032070470C00002040420F00D7
:100DA000274881B0416841F000414160416801F04D
:100DB000004100910099026842F00102026003685C
:100DC00003F0010300930099426842F080524260B0
:100DD000406800F080500090009801B0704710B556
:100DE00086B004461422002101A800F031F82168E1
:100DF0001448814221D11448816841F480418160C6
:100E0000816801F4804100910099026842F0020279
:100E100002604FF46041006800F00200009002227E
:100E200000980A48019102920021039103220521B2
:100E30000591049201A900F015F806B010BD00005C
:100E400020380240003800401C38024000040240B4
:100E500010B5044610460A460146204600F0E6F862
:100E6000204610BD2DE9F84F0027684A684B4FF027
:100E70000F0805460E4634E0664CA54214BF052413
:100E800004248C40644944EA0E0441F82C40C143D8
:100E9000946801EA040C7468E40248BF40EA0C0C50
:100EA000C2F808C0D46801EA040C7468A40248BF00
:100EB00040EA0C0CC2F80CC0546801EA040C7468D7
:100EC000A40348BF40EA0C0CC2F804C0146801EA4D
:100ED000040C7168C90348BF40EA0C0CC2F800C09A
:100EE0007F1C316831FA07F000F089800124BC4092
:100EF00014EA0100F4D04FEA470C032101FA0CF187
:100F00006FEA010E716801F00309B9F1010F1CBF0E
:100F100001F00301022912D1A968D6F80C900EEA5B
:100F2000010109FA0CF949EA0101A960696821EA9D
:100F300004047168C1F30011B9400C436C60B9003E
:100F4000347904F00304032C21D0EC68D6F808901F
:100F50000EEA040409FA0CF949EA0404EC60347955
:100F600004F00304022C12D1FC0805EB840401F008
:100F70001C09D4F820A008FA09FB2AEA0B0AD6F8C3
:100F800010B00BFA09F949EA0A09C4F820902C6854
:100F90000EEA040E347904F0030404FA0CF444EA73
:100FA0000E042C60746814F4403F99D01C6844F01F
:100FB00001041C604FEA970C1C6804F001040094C3
:100FC00001F00C01009C144C54F82C4008FA01FE6E
:100FD00024EA0E0E114CA54208BF00240ED0104C7E
:100FE000A54208BF012409D00E4CA54208BF022427
:100FF00004D00D4CA5427FF43FAF032441E7BDE888
:10100000F18F02B9090481617047000000040140BA
:101010002038024000100240080001400000024059
:101020000004024000080240000C024062F30F225C
:1010300062F31F42401810F0030308D0C91A1FD3EF
:10104000DB0748BF00F8012D28BF20F8022D130050
:1010500030B414461546103928BF20E93C00FAD8B0
:10106000490728BF20E90C0048BF40F8042D89003B
:1010700028BF20F8022D48BF00F8012D30BC704772
:10108000C91818BF00F8012DCB0728BF00F8012DA3
:101090007047000070B586B000F00EF900F0C1F89E
:1010A00000F002F979487A4C01687A4D7A4E41F0A5
:1010B00002010160026802F00202059205990268CD
:1010C00042F004020260036803F0040305930599EB
:1010D000026842F001020260036803F00103059315
:1010E0000599026842F0080202600022006800F0E0
:1010F0000800059041F2080105982046FFF781FF9E
:10110000012240212846FFF77CFF00224FF4845142
:101110002846FFF776FF002204213046FFF771FFD3
:101120004FF480510091012200210291039101921C
:1011300069462046FFF796FE402100910122019268
:101140000292039269462846FFF78CFE4FF48451C1
:1011500000F05EF82846FFF785FE042100F058F8FD
:101160003046FFF77FFE082100F052F82046FFF7D7
:1011700079FE4A4D4A48E8604FF482710020686168
:10118000A861E861286229614FF400706862082153
:10119000A9620020E862286368630A21A96305F157
:1011A0000C00FFF703FC08B100F083F800224FF4B5
:1011B00080512046FFF725FF0A2000F08DF8072216
:1011C0004FF4FA01284600F0F7F80A2000F084F8FE
:1011D0002878532804BF6878552810D1A878432868
:1011E00004BFE87843280AD12879452804BF6879E4
:1011F000532804D1A879532804BF00212972012261
:1012000004213046FFF7FDFEFFF79AFA6866FBE718
:10121000009101220192022102910022039269466B
:10122000704780B592B03422002105A8FFF710FE68
:1012300000F03AF81B480168102221F4C05141F433
:10124000006101600992022000220F921092059025
:1012500001210E904FF480020891119205A8FEF72B
:1012600061FF08B172B6FEE70F20032100900191E3
:10127000002202920392049201216846FFF72FF99F
:1012800008B172B6FEE713B000BD00001C38024082
:101290000004024000080240000C02401000002040
:1012A0000038004000700040142200216846FFF71B
:1012B000CFBD72B6FEE70000032010B5FFF715FBA7
:1012C0000F20FFF743FA0024002814BF0124FFF782
:1012D00067FD204610BD000038B50446FFF730FA20
:1012E00014F1010F054602D0044988680419FFF77C
:1012F00027FA401BA042FAD331BD00BF00000020F6
:10130000814204D24FF0FF32101A08187047081AB1
:10131000704738B504460D46FFF712FA01462046DD
:10132000FFF7EEFFA8428041C043C00F32BD002846
:101330001E4B0CBF0022012280211846FFF761BE20
:1013400001B582B000204FF47A718DF8040000914D
:10135000012301AA02A91648FFF786FB9DF80400A5
:101360000EBD70B50446FFF7EBF900F056F8052006
:10137000FFF7E6FF05E016F0030F0AD00120FFF7A4
:10138000ABFFA520FFF7DCFF00F004F80128F2D145
:1013900004E007E0064621462846BAE7FFF7C7FF04
:1013A000002070BD00F006F8012070BD000802406A
:1013B0001C0000200120BAE72DE9F8430E468046C4
:1013C00091463502370403244FF47A70FFF7C9FFC2
:1013D000012804D0641EF7D10020BDE8F28300F09C
:1013E0001DF80320FFF7ACFF280EFFF7A9FF380E0A
:1013F000FFF7A6FFF0B2FFF7A3FF04E0A520FFF779
:101400009FFF08F8010B4846A0F1010980B20028AF
:10141000F4D1FFF7CFFF0120DFE70546002086E784
:1014200010B5074979441831064C7C44163404E061
:101430000A68081D114488470146A142F8D110BD31
:1014400008000000280000004FF4FFFF68000000C3
:10145000100000200000000027F5FFFF1000000032
:10146000A8000000000000200000000070470000FD
:10147000030406080C1018203000000000000000D3
:1014800000000000010203040607080900F00DF83F
:10149000002801D0FFF7C4FFAFF300800020AFF3B6
:1014A0000080FFF7F7FD00F002F80120704700F020
:1014B00001B800000746384600F002F8FBE70000DC
:1014C00080B5AFF30080024A11001820ABBEFBE7E5
:1014D00026000200FEE7FEE7FEE7FEE7FEE77047B4
:1014E0007047704700F000B802490A68886882189F
:1014F0000A6070470000002001488047014800470B
:101500006D1400081915000800000000100000000C
:101510000100000068FF1F00AFF30080AFF3008000
:10152000FFF7B4FFFFF7FEBFFFF7FEBFFFF7FEBFF9
:10153000FFF7FEBFFFF7FEBFFFF7FEBFFFF7FEBFDF
:10154000FFF7FEBFFFF7FEBFFFF7FEBFFFF7FEBFCF
:10155000FFF7FEBFFFF7FEBFFFF7FEBFFFF7FEBFBF
:10156000FFF7FEBFFFF7FEBFFFF7FEBFFFF7FEBFAF
:10157000FFF7FEBFFFF7FEBFFFF7FEBFFFF7FEBF9F
:10158000FFF7FEBFFFF7FEBFFFF7FEBFFFF7FEBF8F
:10159000FFF7FEBFFFF7FEBFFFF7FEBFFFF7FEBF7F
:1015A000FFF7FEBFFFF7FEBFFFF7FEBFFFF7FEBF6F
:1015B000FFF7FEBFFFF7FEBFFFF7FEBFFFF7FEBF5F
:1015C000FFF7FEBFFFF7FEBFFFF7FEBFFFF7FEBF4F
:1015D000FFF7FEBFFFF7FEBFFFF7FEBFFFF7FEBF3F
:1015E000FFF7FEBFFFF7FEBFFFF7FEBFFFF7FEBF2F
:0415F000FFF7FEBF44
:0400000508001519C1
:00000001FF
