:020000040800F2
:10000000704800202D4501083132010833320108C3
:10001000353201083732010839320108000000008A
:100020000000000000000000000000003B3201085A
:100030003D320108000000003F3201084132010852
:10004000E54B0108E94B0108ED4B0108F14B0108B4
:10005000F54B0108F94B0108FD4B0108014C010863
:10006000054C0108094C01080D4C0108114C010810
:10007000154C0108194C01081D4C0108214C0108C0
:10008000254C0108294C01082D4C0108314C010870
:10009000354C0108394C01083D4C0108414C010820
:1000A00000000000454C0108494C01084D4C010876
:1000B000514C0108554C0108594C01085D4C010890
:1000C000614C0108654C0108694C01086D4C010840
:1000D000714C0108513201085B3201086532010898
:1000E000754C01086F320108794C01087D4C0108FC
:1000F000814C010800000000854C0108894C010872
:1001000000000000000000008D4C0108914C010827
:10011000954C0108994C01089D4C01080000000015
:10012000A14C0108F8B504000D002E000027DFF8EF
:1001300060CB9CF80000022800D17F1C310089B2FE
:10014000A2883800C0B2121A91420DDA206831003C
:1001500089B2405C302805DB2068310089B2405C00
:100160003A2801DB761CE9E72068310089B2405C5F
:10017000302815DB2068310089B2405C32280FDA64
:100180002068310089B2405C3038DFF8A41B487029
:1001900000230522DFF8BC1C9CF8000001F01FFEC4
:1001A000F1BDF8B504000D002F000026DFF8E0CA0D
:1001B0009CF80000022800D1761C390089B2A28880
:1001C0003000C0B2121A91420DDA2068390089B2AB
:1001D000405C302805DB2068390089B2405C3A2851
:1001E00001DB7F1CE9E72068390089B2405C3028D8
:1001F00019DB2068390089B2405C322813DADFF855
:10020000300B21683A0092B2895C30390171017972
:1002100091F00101C17000230522DFF8381C9CF821
:10022000000001F0DCFDF1BD70B40B000024DFF82C
:10023000602A1278022A00D1641C1D00ADB28688A3
:100240002200D2B2B61AB5420DDA02681D00ADB274
:10025000525D302A05DB02681D00ADB2525D3A2ABC
:1002600001DB5B1CE9E702681D00ADB2525D312A7B
:100270000DDB02681D00ADB2525D362A07DA026856
:100280001D00ADB2525D303ADFF8CC5B2A7070BC15
:1002900070472DE9F0410D0000260027DFF8F02916
:1002A0001278022A00D17F1C0268AC461FFA8CFC2F
:1002B00012F80C20442A07D00268AC461FFA8CFCC6
:1002C00012F80C20642A07D1DFF8DC2CD2F814C015
:1002D0006346103214002EE00268AC461FFA8CFC14
:1002E00012F80C20522A07D00268AC461FFA8CFC88
:1002F00012F80C20722A07D1DFF8AC2CD2F81CC0FF
:1003000063461832140016E00268AC461FFA8CFCF3
:1003100012F80C20432A07D00268AC461FFA8CFC66
:1003200012F80C20632A06D1DFF87C2CD2F824C006
:10033000634620321400AC461FFA8CFCB0F804E08F
:100340003A00D2B2BEEB020EF44508DA2A00551C80
:10035000D0F800C092B21CF802203D2AEBD1AC4686
:100360001FFA8CFCB0F804E03A00D2B2BEEB020EE9
:10037000F44580F2D4805FF0000C0022D0F800E059
:10038000A8461FFA88F81EF808E0BEF1300F13DB0C
:10039000D0F800E0A8461FFA88F81EF808E0BEF181
:1003A0003A0F09DAD0F800E0A8461FFA88F81EF8DC
:1003B00008E0BEF1300E3CE0D0F800E0A8461FFA9D
:1003C00088F81EF808E0BEF1410F13DBD0F800E01A
:1003D000A8461FFA88F81EF808E0BEF1470F09DAB0
:1003E000D0F800E0A8461FFA88F81EF808E0BEF131
:1003F000370E1EE0D0F800E0A8461FFA88F81EF875
:1004000008E0BEF1610F13DBD0F800E0A8461FFA48
:1004100088F81EF808E0BEF1670F09DAD0F800E0AE
:10042000A8461FFA88F81EF808E0BEF1570E00E053
:1004300075E0D0F800C0A8461FFA88F8C4449CF8BC
:1004400001C0BCF1300F15DBD0F800C0A8461FFA80
:1004500088F8C4449CF801C0BCF13A0F0ADAD0F81D
:1004600000C0A8461FFA88F8C4449CF801C0BCF13B
:10047000300C42E0D0F800C0A8461FFA88F8C44407
:100480009CF801C0BCF1410F15DBD0F800C0A846B4
:100490001FFA88F8C4449CF801C0BCF1470F0ADA7F
:1004A000D0F800C0A8461FFA88F8C4449CF801C0E0
:1004B000BCF1370C21E0D0F800C0A8461FFA88F83C
:1004C000C4449CF801C0BCF1610F15DBD0F800C03A
:1004D000A8461FFA88F8C4449CF801C0BCF1670F15
:1004E0000ADAD0F800C0A8461FFA88F8C4449CF87D
:1004F00001C0BCF1570C00E011E07246D2B2E046F8
:100500005FFA88F818EB02183200D2B203F80280C2
:10051000AD1C761C3200D2B2062A7FF420AF320026
:10052000D2B2062A01D101222270BDE8F081F8B5CD
:1005300004000D0000260027DFF854C79CF80000D7
:10054000022801D101200700290089B23800C0B279
:1005500041181431A08881422EDB01230422DFF8E8
:100560002C1B9CF8000001F03AFC14220021DFF85B
:10057000200B01F0DDFEDFF81C1B002008812E009F
:10058000320092B2A3883800C0B21B1A9A420EDA27
:10059000088914280BD22068320092B2805C4A6825
:1005A0000B89D0540889401C0881761CE8E701F0CB
:1005B00093FF01F0D8FB07E000230E22DFF8201C98
:1005C0009CF8000001F00BFCF1BD38B504000D00F3
:1005D000DFF8C00A002302894168DFF8B40600781A
:1005E00001F0FDFB31BD38B504000D00DFF8A80AAD
:1005F000002382880168DFF89806007801F0EFFB9D
:1006000031BD70B58CB004000E00DFF8900AD0E95F
:100610000023CDE90A23DFF8880AD0E90023CDE9D9
:100620000823DFF8C00BD0E90023CDE90623DFF86B
:10063000B80BD0E90023CDE90423A088412809DBC9
:1006400000230522DFF8A41BDFF84406007801F040
:10065000C6FBB0E000252800A18880B2884207D2FE
:100660002068290089B2405C202801D16D1CF2E786
:100670002C20216881F83F002068290089B20844B5
:100680000A902800451C216880B2085C2C2809D0FB
:10069000BDF82C00401CADF82C00A088290089B2C0
:1006A0008842EED22068290089B2084408902800C8
:1006B00080B2402810DA2800451C216880B2085C0E
:1006C0002C2809D0BDF82400401CADF82400A088D7
:1006D000290089B28842EED22068290089B20844F4
:1006E0000690280080B2402810DA2800451C2168B6
:1006F00080B2085C2C2809D0BDF81C00401CADF865
:100700001C00A088290089B28842EED22068290006
:1007100089B208440490280080B240280BDA2800EF
:10072000A18880B2884206D2BDF81400401CADF802
:1007300014006D1CF3E7BDF82C00002832D0BDF882
:100740002C0028282EDABDF8240000282AD0BDF875
:1007500024000A2826DABDF81C00292802DB2820FC
:10076000ADF81C00BDF81400292802DB2820ADF8E4
:100770001400DDE90401CDE90201DDE90601CDE95E
:100780000001DDE90823DDE90A0102F007FD02F0BE
:100790004DFF00230222A3A1DFF8F404007801F04A
:1007A0001EFB08E000230522DFF8401ADFF8E00412
:1007B000007801F014FB0CB070BDF8B590B00400E7
:1007C0000D00002640220021684603F0F5F8684637
:1007D00002F056FD070000233A0092B26946DFF8A6
:1007E000B004007801F0FBFA11B0F0BD70B58CB028
:1007F00004000E00DFF8F00BD0E90023CDE90A2356
:10080000DFF80C0CD0E90023CDE90823DFF8040C55
:10081000D0E90023CDE90623DFF81C0CD0E9002342
:10082000CDE90423A088412809DB00230522DFF855
:10083000BC19DFF85C04007801F0D1FAAEE00025C5
:100840002800A18880B2884207D22068290089B296
:10085000405C202801D16D1CF2E72C20216881F832
:100860003F002068290089B208440A902800451CEE
:10087000216880B2085C2C2809D0BDF82C00401CEF
:10088000ADF82C00A088290089B28842EED22068F9
:10089000290089B208440890280080B2402810DA64
:1008A0002800451C216880B2085C2C2809D0BDF8BE
:1008B0002400401CADF82400A088290089B2884299
:1008C000EED22068290089B208440690280080B240
:1008D000402810DA2800451C216880B2085C2C28CA
:1008E00009D0BDF81C00401CADF81C00A0882900F0
:1008F00089B28842EED22068290089B20844049067
:10090000280080B240280BDA2800A18880B28842F3
:1009100006D2BDF81400401CADF814006D1CF3E7BE
:10092000BDF82C00002831D0BDF82C0028282DDA85
:10093000BDF82400002829D0BDF824000A2825DAB3
:10094000BDF81C00292802DB2820ADF81C00BDF8EA
:100950001400292802DB2820ADF81400DDE9040189
:10096000CDE90201DDE90601CDE90001DDE9082359
:10097000DDE90A0102F0DEFC02F0D4FE00230222CF
:1009800028A1C348007801F02AFA07E000230522D5
:10099000DFF85818BE48007801F021FA0CB070BD9D
:1009A000F8B590B004000D000026402200216846F2
:1009B00003F002F8684602F037FD070000233A0012
:1009C00092B26946B248007801F009FA11B0F0BD60
:1009D00038B504000D00DFF8640A417B012902D01C
:1009E000022903D005E0022141730BE0012141738C
:1009F00008E000230522DFF8F417A548007801F08D
:100A0000EEF90DE00023022206A1A148007801F0D2
:100A1000E6F902F095F90021DFF8780D02F0D6FF33
:100A200031BD00004F4B00002DE9F84304000F00DA
:100A300000250026A088390089B2491D884208DABD
:100A400000230D22DFF8C01B9148007801F0C7F9A0
:100A500048E02068390089B2405CB0F130027F1C68
:100A60000A2120683B009BB2C05C01FB0202B2F18C
:100A700030087F1C7F1C20683A0092B2805CB0F185
:100A800030027F1C20683B009BB2C05C01FB02026D
:100A9000B2F130097F1C4046C0B200281AD040464F
:100AA000C0B20B2816DA484680B23D2812DADFF8C9
:100AB0005C0B80F80080A0F8029001F079FD03F053
:100AC00083F901230422DFF8C4157148007801F08E
:100AD00086F907E000230722DFF8341B6C48007812
:100AE00001F07DF9BDE8F183FEB504000D0000269C
:100AF0000C220021684602F05FFF68466621320042
:100B0000D2B28154761C72213200D2B28154761C4A
:100B100065213200D2B28154761C71213200D2B2EA
:100B20008154761C3D213200D2B28154761CDFF80C
:100B3000DC1A0A780A2392FBF3F230323300DBB27C
:100B4000C254761C0A780A2392FBF3F703FB1722A0
:100B500030323300DBB2C254761C78223300DBB271
:100B6000C254761C4A880A2392FBF3F20A2392FBB2
:100B7000F3F703FB172230323300DBB2C254761C8A
:100B800049880A2291FBF2F302FB13113031320043
:100B9000D2B28154761C00233200D2B292B269469E
:100BA000DFF8400D007801F01AF9F7BD2DE9F041AA
:100BB00004000D002E0000275FF000083000A1881F
:100BC00080B288420DD22068310089B2405C302862
:100BD00005DB2068310089B2405C3A2801DB761CD5
:100BE000ECE73000A18880B288421AD22068310038
:100BF00089B2405C80464046C0B2302808DB40469F
:100C0000C0B23A2804DA3000A18880B2884200D30A
:100C100007E00A214046C0B201FB0707303F761CBF
:100C2000DFE7DFF8E809476001F0C2FC03F0CCF829
:100C3000002305228749DFF8AC0C007801F0CFF8DB
:100C4000BDE8F08138B588B004000D0003A8DFF8D6
:100C5000341C142203F040F9DFF82C0CD0E90023F7
:100C6000CDE9012303A8019000200090DFF89C0942
:100C70004268002301A801F075F90023BDF808209F
:100C80000199DFF8600C007801F0A9F809B030BDD7
:100C90005E440020704770B504000D0000212068FC
:100CA0002A0092B2805CB0F130026D1C0A232068E9
:100CB0002E00B6B2805D03FB0202B2F130066D1C5D
:100CC0003000C0B20B280EDADFF84009067001F0E0
:100CD0006FFC01230422DFF8B413DFF8080C00785E
:100CE00001F07DF808E000230622DFF8FC1BDFF8A6
:100CF000F40B007801F073F870BD704738B504004C
:100D00000D00DFF8E00B017801290CD1012304224A
:100D1000DFF87813007801F062F80521DFF8CC0BDA
:100D200002F054FE03E00120DFF8C41B486331BD2C
:100D30006C0300202DE9F84304000D00A9460026AD
:100D400000275FF000084846A18880B288420ED292
:100D50002068494689B2405C302805DB2068494656
:100D600089B2405C3A2802DB19F10109EBE72068FF
:100D7000494689B2405C2C281BD02068494689B27C
:100D8000405C80464046C0B2302808DB4046C0B2D6
:100D90003A2804DA4846A18880B2884200D308E0A5
:100DA0000A214046C0B201FB0606303E19F1010996
:100DB000DDE74846A18880B288420ED220684946C5
:100DC00089B2405C302805DB2068494689B2405C26
:100DD0003A2802DB19F10109EBE72068494689B29C
:100DE000405C2C281BD02068494689B2405C804674
:100DF0004046C0B2302808DB4046C0B23A2804DA88
:100E00004846A18880B2884200D308E00A214046C3
:100E1000C0B201FB0707303F19F10109DDE7B6F564
:100E2000803F0BD2B7F5803F08D20023022296A163
:100E3000DFF8B00A007800F0D2FF08E000230E22AD
:100E4000DFF8581CDFF89C0A007800F0C8FFBDE806
:100E5000F1830000B44801085044002070477047F7
:100E600070477047704770B40D00002300242A00BB
:100E7000868892B2B2420DD202682E00B6B2925D5E
:100E8000302A05DB02682E00B6B2925D3A2A01DBF9
:100E90006D1CECE702682E00B6B2925D2C2A1AD0C7
:100EA00002682E00B6B2925D14002200D2B2302A3F
:100EB00008DB2200D2B23A2A04DA2A00868892B2EB
:100EC000B24200D307E00A262200D2B206FB032377
:100ED000303B6D1CDEE770BC7047704770B588B062
:100EE00004000D000C220021684602F065FD14226A
:100EF000002103A802F060FD2068290089B200EB00
:100F00000106B0783A2802D170793A2808D0002337
:100F10000522B649DFF8CC09007800F060FF40E018
:100F20000A213278707801FB0202B2F110008DF8CC
:100F30000000F278307901FB0202B2F110008DF866
:100F40000100B279F07901FB0201B1F110008DF8D6
:100F50000200684603F087F8012808D00023052224
:100F6000A249DFF88009007800F039FF19E09DF808
:100F700002008DF80E009DF801008DF80D009DF81F
:100F800000008DF80C00002203A9DFF8140B03F019
:100F9000B7F9002302223CA1DFF84809007800F0ED
:100FA0001EFF08B070BD0000740300207FB5040070
:100FB0000D000C22002101A802F0FEFC04220021F9
:100FC000684602F0F9FC2068290089B200EB0106AE
:100FD00070782D2805D130792D2802D1F0792D286F
:100FE00008D0002305228149DFF8F808007800F0D6
:100FF000F6FE48E0307831388DF807000A21B278E3
:10100000F07801FB0202B2F110008DF8080072794D
:10101000B07901FB0202B2F110008DF80900327ABA
:10102000707A01FB0201B1F110008DF80A0001A8ED
:1010300003F019F8012808D0002305226B49DFF8D6
:10104000A408007800F0CBFE1DE09DF807008DF8A5
:1010500000009DF808008DF802009DF809008DF849
:1010600001009DF80A008DF8030000226946DFF8B0
:10107000300A03F0FBF90023022203A1DFF8640821
:10108000007800F0ACFE7FBD4F4B0000BC4801086B
:10109000780A00206C0B0020600F0020F448010843
:1010A000FC4801083EB504000D000C2200216846F2
:1010B00002F082FC206840782D2813D12068007946
:1010C0002D280FD12068C0792D280BD12068807A77
:1010D0002C2807D12068407B3A2803D12068007C67
:1010E0003A2808D0002305224049DFF8F8070078A5
:1010F00000F075FE73E02068007831388DF8030049
:101100000A21206882782068C07801FB0202B2F1CF
:1011100010008DF80400206842792068807901FB76
:101120000202B2F110008DF805002068027A2068F2
:10113000407A01FB0202B2F110008DF8060020682F
:10114000C27A2068007B01FB0202B2F110008DF828
:1011500000002068827B2068C07B01FB0202B2F1A4
:1011600010008DF801002068427C2068807C01FB23
:101170000201B1F110008DF80200684602F073FF21
:10118000012808D0002305221849DFF85807007805
:1011900000F025FE23E0DFF83C0B9DF80310C17042
:1011A0009DF8041001719DF8051041719DF806101D
:1011B00081719DF8001001709DF8011041709DF83B
:1011C000021081700221DFF8240702F0FFFB0023E8
:1011D000022298A1DFF80C07007800F000FE37BD6E
:1011E0007C420108044901080C490108C44801086F
:1011F000F8B58AB004000D000026282200216846B8
:1012000002F0DAFB684674213200D2B28154761CB7
:1012100069213200D2B28154761C6D213200D2B2E3
:101220008154761C65213200D2B28154761C3D2156
:101230003200D2B28154761CDFF8A01A0A780A2351
:1012400092FBF3F230323300DBB2C254761C0A78E0
:101250000A2392FBF3F703FB172230323300DBB291
:10126000C254761C3A223300DBB2C254761C4A7850
:101270000A2392FBF3F230323300DBB2C254761C05
:101280004A780A2392FBF3F703FB1722303233002C
:10129000DBB2C254761C3A223300DBB2C254761C55
:1012A0008A780A2392FBF3F230323300DBB2C25465
:1012B000761C8A780A2392FBF3F703FB172230325D
:1012C0003300DBB2C254761C3B223300DBB2C25483
:1012D000761C0D223300DBB2C254761C642233002C
:1012E000DBB2C254761C61223300DBB2C254761CDE
:1012F00074223300DBB2C254761C65223300DBB2A9
:10130000C254761C3D223300DBB2C254761CCA782C
:1013100031323300DBB2C254761C2D223300DBB2F3
:10132000C254761C0A790A2392FBF3F2303233005E
:10133000DBB2C254761C0A790A2392FBF3F703FB53
:10134000172230323300DBB2C254761C2D22330018
:10135000DBB2C254761C4A790A2392FBF3F2303294
:101360003300DBB2C254761C4A790A2392FBF3F7AE
:1013700003FB172230323300DBB2C254761C2D221D
:101380003300DBB2C254761C8A790A2392FBF3F253
:1013900030323300DBB2C254761C89790A2291FBC9
:1013A000F2F302FB131130313200D2B28154761CB9
:1013B00000233200D2B292B26946DFF828050078E5
:1013C00000F00DFD0BB0F0BD704738B504000D0006
:1013D0000023022217A1DFF80C05007800F0FFFCC3
:1013E00000F0C1FC31BD00001449010838B504000B
:1013F0000D000221DFF8E80802F0F7FA00230722C7
:10140000DFF8E018DFF8DC04007800F0E8FC31BD1C
:101410001C4901082449010838B504000D00DFF813
:10142000C808002382880168DFF8B804007800F05B
:10143000D6FC31BD4F4B00002C490108C40C0020E4
:101440002DE9FE4F04008A460025DFF8A068300031
:1014500000F0E5FE16F1080000F0E1FE16F11007BD
:10146000380000F0DCFE16F11808404600F0D7FE08
:1014700016F12009484600F0D2FEDFF87428D2E9C0
:101480000001CDE900012100684603F073FA8346AC
:10149000BBF1000F00F1B580BDF8040010EB0B0BA1
:1014A000206810F80B003A281AD0206810F80B00BA
:1014B0003168B28888541BF1010BB088401CB080A1
:1014C000A088834502DAB0881E28E9DB00230522C4
:1014D000DFF82018DFF80C04007800F080FC90E0C2
:1014E0001BF1010B206810F80B002F281AD0206880
:1014F00010F80B00B168B28988541BF1010BB08958
:10150000401CB081A088834502DAB0891E28E9DB3F
:1015100000230522DFF8DC17DFF8C803007800F0AD
:101520005EFC6EE01BF1010B206810F80B002F2809
:1015300019D0206810F80B003169B28A88541BF169
:10154000010BB08A401CB082A088834502DAB08AC1
:101550001E28E9DB3900404603F07BFB380000F031
:101560005EFE012005002800C0B2002834D12068AA
:1015700010F80B002F2812D0206810F80B00B1696A
:10158000B28B88541BF1010BB08B401CB083A08838
:10159000834502DAB08B1E28E9DB01200500280014
:1015A000C0B2002815D14146380003F052FB404636
:1015B00000F035FEA088834502DAB08A1E2808DBD9
:1015C00000230522DFF82C17C648007800F007FC3E
:1015D00017E01BF1010BC6E72100484603F039FB79
:1015E00000230222AFA1BF48007800F0F8FB0420DE
:1015F000DFF80417887301F0A3FB0021654802F0AF
:10160000E5F9BDE8F78F00008C420108B80B002017
:10161000CC4801082DE9FC4704000D000026DFF846
:10162000CC76380000F0FBFD17F1080000F0F7FD64
:1016300017F11008404600F0F2FD17F1180948466E
:1016400000F0EDFDDFF8B426D2E90001CDE900019C
:101650002100684603F08EF98246BAF1000F00F1CE
:101660009780BDF8040010EB0A0A206810F80A0001
:101670003A2816D0206810F80A003968BA888854C9
:101680001AF1010AB888401CB880A0888245ECDBBA
:1016900000230522DFF85C169248007800F09FFBDB
:1016A00076E01AF1010A206810F80A002F2816D0F7
:1016B000206810F80A00B968BA8988541AF1010A3A
:1016C000B889401CB881A0888245ECDB0023052244
:1016D000DFF820168348007800F081FB58E01AF10B
:1016E000010A206810F80A002F2816D0206810F888
:1016F0000A003969BA8A88541AF1010AB88A401C6A
:10170000B882A0888245ECDB4146484603F0A1FA46
:10171000404600F084FD012006003000C0B20028E1
:101720002ED1206810F80A002F280FD0206810F85A
:101730000A00B969BA8B88541AF1010AB88B401CA7
:10174000B883A0888245ECDB012006003000C0B2DF
:10175000002812D14946404603F07BFA484600F083
:101760005EFDA088824508DB00230522DFF8841592
:101770005C48007800F033FB0AE01AF1010ACCE77C
:1017800000230422DFF878155648007800F027FB84
:10179000BDE8F3876004002078B58BB004000D002D
:1017A0001E22002103A802F007F9DFF85805D0E94E
:1017B0000023CDE9012303A80190DFF84C65002048
:1017C0000090B28E002301A800F0CCFB2F200199DD
:1017D000BDF808208854BDF80800401CADF808008A
:1017E00000200090F28D002301A800F0BBFB002335
:1017F000BDF8082001993B48007800F0F0FA0CB0E1
:1018000070BD38B504000D00DFF80015022000F0AF
:1018100001FE31BD7047704738B504000D00290046
:1018200089B2200000F03EF9010089B2022003F0E5
:1018300071FF31BD38B504000D00290089B22000C8
:1018400000F030F9010089B2002003F063FF31BDE0
:1018500038B504000D00290089B2200000F022F9FB
:10186000010089B2012003F055FF31BD38B50400F5
:101870000D0000230C22DFF898141A48007800F0BD
:10188000AEFA31BD383E01083449010838B50400CC
:101890000D0000230C22DFF878141248007800F0C5
:1018A0009EFA31BD4F4B00007047704738B50400B9
:1018B0000D00DFF86004017A01290AD1002390F8B5
:1018C0006D2092B210F109010648007800F087FA05
:1018D00007E000230522DFF840140248007800F0FA
:1018E0007EFA31BD5E440020D44801089C020020ED
:1018F000AC3B00202DE9FC4705000E005FF0FF34F3
:101900000022DFF81834D3E90001CDE900015FF0CF
:1019100000094846A98880B2884224D228684946EE
:1019200089B2405C3D2805D02868494689B2405CB0
:101930003F2800D117E02868494689B2405C412819
:101940000EDB2868494689B2405C5B2808DA2868C3
:10195000494689B2405C203029684A4692B2885490
:1019600019F10109D5E700273800C0B2352880F207
:101970009280DFF8AC8329003800C0B200014044F7
:10198000083002F0F7FF0400002C00F182803800DC
:10199000C0B200014044406800287AD0DFF884A338
:1019A0001AF1300000F03BFC0021080080B2AA8848
:1019B000121B904224DA286820440A0092B2805C0C
:1019C0003F280BD0286820440A0092B2805C3D2852
:1019D00004D0BAF83400B0F5807F00DB10E028684E
:1019E00020440A0092B2805CDAF83020BAF8343031
:1019F000D054BAF83400401CAAF83400491CD4E78B
:101A00003800C0B20001404480890419A14648460C
:101A1000A98880B2884226D22868494689B2405CAB
:101A20000D280CD1484680B2A988491E884206DAA2
:101A30002868494689B2084440780A2813D0BDF87E
:101A4000040080280CD22868494689B2405C00997D
:101A5000BDF804208854BDF80400401CADF8040013
:101A600019F10109D3E7B04806703000C0B2401E3A
:101A7000012802D9801E09D009E0002168463A00F9
:101A8000D2B2120142445268904700E0FFE70120C1
:101A900002E07F1C68E70020BDE8F6879C42010851
:101AA000F441002070B403000020002400250A0047
:101AB0009E8892B2B2422ED20A00511C1E6892B287
:101AC000B25C282AF3D100221000002215001A6807
:101AD0000E00B6B2925D1400491C2200D2B2302A28
:101AE00019DB2200D2B23A2A15DA0A262200D2B233
:101AF00006FB002030386D1C1A680E00B6B2925DED
:101B00001400491C2A00D2B2082A04DA9A880E006E
:101B1000B6B2B242E1D280B270BC70472DE9F84350
:101B200004000D005FF000092E0000202F00380097
:101B3000C0B2A18880B2884215D220683900C9B2EB
:101B4000405C302805DB20683900C9B2405C3A2887
:101B500007DB0023052267497348007800F03FF94E
:101B60005CE07F1CE3E70A2120683200D2B2825C8D
:101B700020683300DBB21844407801FB0202B2F166
:101B80001008B61C4046C0B2712807DB00230522AE
:101B900058496548007800F022F93FE0A2883000FB
:101BA000C0B2121A4046C0B2B2EB400F2FD140462D
:101BB000C0B2052801DB052080465C4A82F84E80D1
:101BC00000200700380092F84E30C0B2984214D27C
:101BD00020683300DBB2C35C2068B4465FFA8CFC3B
:101BE0006044407801FB0303B3F110003B00DBB21B
:101BF00013449871B61C7F1CE4E704F003FF002334
:101C0000022235A14848007800F0E9F806E00023F8
:101C1000052238494448007800F0E1F8BDE8F18336
:101C20002DE9F04190B004000D000027002640226D
:101C30000021684601F0C0FE3C48694690F84E20FD
:101C40000A2392FBF3F230323B00DBB2CA547F1C12
:101C500090F84E200A2392FBF3FC03FB1C22303247
:101C60003B00DBB2CA547F1C3A223B00DBB2CA54B1
:101C70007F1C5FF00008424690F84E30D2B29A4284
:101C80001CD24246D2B2024492790A2392FBF3F26A
:101C900030323B00DBB2CA547F1C4246D2B202440F
:101CA00092790A2392FBF3F603FB162230323B00B3
:101CB000DBB2CA547F1C18F10108DCE700233A00AC
:101CC000D2B292B269461848007800F088F810B095
:101CD000BDE8F081B44300204F4B0000CC4300200E
:101CE00000040020DC480108FC020020E40F002072
:101CF0003C490108C4480108C40C002044490108BB
:101D0000E44801084C490108FC0A0020F4390108A4
:101D1000AC420108903D0020EC48010854490108FC
:101D2000482901086C0B00205E4400209C03002021
:101D3000BFF34F8F70490A6812F4E0626F480243A4
:101D40000A60BFF34F8F00BFFDE780B513216C48D9
:101D500000F017F8002240216A4805F0C5F872B675
:101D6000FFF7E6FF02BD80B51F21674800F009F8C4
:101D700000224021634805F0B7F872B6FFF7D8FF9C
:101D800001BD70B504000D002A0092B221000220AE
:101D900000F02BFB002001002A0089B292B2914290
:101DA00013D25A49B1F84020B2F5806F0DDA020023
:101DB00092B2A25CCB6BB1F840609A55B1F840206A
:101DC000521CA1F84020401CE5E701205049C8649E
:101DD00070BD504A02604FF4A8720A8070472DE926
:101DE000F84380460C0015001E0000274046C0B294
:101DF000401E03D0401E012809D961E04FF47A73D8
:101E00002A0092B22100444805F0EEF858E0DFF8CD
:101E10000C914FF480720021484600F089FA3B484B
:101E2000002181852821828D09F80210818D491CAD
:101E3000818500210A00838E92B29A420BD2026BF6
:101E40000B009BB2D25C838D09F80320828D521C5B
:101E50008285491CEEE72922838D09F80320828DB3
:101E6000521C82852822838D09F80320828D521C02
:101E70008285002739002A0089B292B291420AD2A3
:101E8000390089B2615C828D09F80210818D491C8C
:101E900081857F1CEEE72921828D09F80210818D52
:101EA000491C8185002181863000C0B2002803D101
:101EB00001201749886302E001201549C862FFE745
:101EC000BDE8F18380B500F033F805F02DFC14482F
:101ED00005F00CFD134805F066F805F0D6FE01BDCF
:101EE00080B500F026F800200F49087005F05CFF6F
:101EF00005F0B6FE01BD00000CED00E00400FA059F
:101F0000A03F010800000240F43A01086C0B0020D9
:101F1000AC3B002000980108EC3F0020AC390020C9
:101F2000BC3E0020A83F00204A4400207047704774
:101F30007047704738B504000D00DFF850050168A0
:101F4000200000F006F8A84201D3012000E00020A4
:101F500032BD814204D25FF0FF32101A081800E04F
:101F6000081A70472DE9F84F8AB0060014001D00CA
:101F7000DDF850905FF0000A5FF0000800271E2196
:101F800000220DF1080B584606F028F8DFF800256E
:101F9000D2E90001CDE9000102A80090002D09D18D
:101FA000002C07D130203168B2888854B088401C9A
:101FB000B08068E0002D01D1002C1AD0200029004B
:101FC0000A22002306F03EF89046200029000A224B
:101FD000002306F037F804000D0018F130000099D6
:101FE000BDF804208854BDF80400401CADF804007E
:101FF000E0E75FF0000BBDF80400022190FBF1F078
:10200000594689B281421FDA0098BDF8041008448D
:10201000594689B24942084410F8010C070000985B
:10202000BDF804100844594689B249420844009951
:102030005A4692B2895C00F8011C0098594689B250
:1020400047541BF1010BD6E74946C9B2684600F078
:102050001DF800210800BDF8042080B290420DD286
:102060003068B28810440A0092B2009B8C461FFA76
:102070008CFC13F80C308354491CEBE7B288BDF894
:1020800004008218B2800BB0BDE8F08F2DE9F8474C
:1020900085B005000E005FF00009142100226C4697
:1020A000200005F09BFF002400275FF000080020BF
:1020B000A988012903D129680978302903D0310082
:1020C000C9B2002900D1A7E03100C9B2AA8889B2FB
:1020D000914235D3694630222300DBB2CA54641CD6
:1020E0002E222300DBB2CA54641CAA88B21A17003D
:1020F00000231A00BC465FFA8CFC92B21FFA8CFCDB
:10210000624508D23022A4465FFA8CFC01F80C200C
:10211000641C5B1CEDE700221300B5F804C09BB201
:10212000634543D22B6894461FFA8CFC13F80C309D
:10213000A4465FFA8CFC01F80C30641C521CEBE7DF
:10214000A988891B884600210A004346DBB292B267
:102150009BB29A420CD22A680B009BB2D25C6B46AF
:10216000A4465FFA8CFC03F80C20641C491CEBE7C6
:102170006B462E22A4465FFA8CFC03F80C20641CEC
:102180004246D2B21100B5F804C089B261450DD201
:10219000296894461FFA8CFC11F80C10A4465FFACB
:1021A0008CFC03F80C10641C521CEBE7A14649465A
:1021B000C9B2B1F1010A504680B2002815D0684674
:1021C000514689B2415C302906D0514689B2405C03
:1021D0002E2800D1641E08E0514689B2405C3028A8
:1021E00000D1641EBAF1010AE5E7280000F017F8F3
:1021F000002001002200D2B289B292B291420BD2E9
:10220000A9884A1CAA806A4603009BB2D25C2B684C
:1022100089B25A54401CECE706B0BDE8F08710B410
:1022200000210A00838892B29A4206D200220368F3
:102230000C00A4B21A55491CF3E70022828010BC9E
:10224000704770B4030000220024002000252A00FB
:102250000E00D2B2F6B2B24220D22A00D2B29A5CBA
:10226000302A0ADB2A00D2B29A5C3A2A05DA2A001E
:10227000D2B29A5C303A140001E0002214002A0025
:10228000D2B2002A03D12200D2B2100004E00A2602
:102290002200D2B206FB00206D1CD8E770BC70474C
:1022A000F0B4002200230025002425008E88ADB262
:1022B000B54237D20D682600B6B2AD5DEDB22D093C
:1022C0002A001500EDB20A2D07DA12F13005066872
:1022D0002700BFB206F8175006E012F1370506686E
:1022E0002700BFB206F817500D682600B6B2AD5DE4
:1022F00015F00F052B001D00EDB20A2D08DA13F1C1
:10230000300506682700BFB206EB4706757007E088
:1023100013F1370506682700BFB206EB4706757054
:10232000641CC2E78D88ADB26D008580F0BC70473B
:1023300010B4040013005A1E9BB2002B02D021706F
:10234000641CF7E710BC704770B504000D00160060
:102350002000C0B2022807DA4FF47A73320092B23A
:1023600029004C4804F040FE70BD38B504000D0053
:10237000280005F07FFF020092B229002000C0B2C1
:10238000FFF7E2FF31BDF0B585B004000D00160087
:10239000022100226F46380005F020FE3E48D0E9B9
:1023A0000023CDE901236846019000273800310061
:1023B00080B289B2884216D2380080B22844039095
:1023C0000120ADF810000020ADF8080003A901A815
:1023D000FFF766FFBDF8082001992000C0B2FFF7A3
:1023E000B3FF7F1CE2E705B0F0BD70B504000D003F
:1023F0001600320092B229002000C0B2FFF7A4FFFD
:10240000264A1068002804D0310089B228001268DA
:10241000904770BD70B504000D00280005F02AFF3C
:10242000020092B229002000C0B2FFF78DFF1B4EC0
:102430003068002807D0280005F01CFF010089B291
:1024400028003268904770BD70B586B005000C005A
:102450000A21002203AE300005F0C0FD1048D0E98B
:102460000023CDE9012303A8019000200090220061
:10247000002301A8FFF776FDBDF808200199280088
:10248000C0B2FFF761FF06B070BD0000304400200D
:102490009C4B0108EC3F0020A44B01083444002071
:1024A000AC4B010880B500F043F800F001F801BD25
:1024B00010B50021564804782000C0B2002808D08A
:1024C00054480E2310F108024168534806F023F8DF
:1024D00001E000F001F810BD38B58AB000252822CF
:1024E0000021684601F068FAAA208DF800004948EA
:1024F00001898DF8011000242100C9B2028989B236
:1025000091420AD241682200D2B2895C6A46230015
:10251000DBB21A449170641CEEE73D4D280006F0D2
:102520006FF828226946280006F028F80BB030BD65
:1025300070B586B0002618220021684601F03CFAEA
:102540000024364805782800C0B200282CD0182274
:102550006946324806F08BF89DF80100040020001F
:10256000C0B2182822DA2E4869468A7802709DF88F
:102570000320428042880B7953EA022343809DF86E
:102580000520426042689DF8063053EA022343600A
:1025900042689DF8073053EA022343604268097A93
:1025A00051EA0221416001E000F002F806B070BD7E
:1025B00010B586B018220021684601F0FDF9AA2066
:1025C0008DF8000068460721417015490A7882702D
:1025D0004A8892B2120A8DF803204A8802714A682A
:1025E000120E8DF805204A68120C8DF806204A68F4
:1025F000120AC27149680172084C0121200006F0DC
:1026000027F810226946200005F0B8FF06B010BD7B
:1026100000FD03086C0B002001FD030800FC03080B
:10262000B80B002038B504000D00042200216846D4
:1026300001F0C2F9280080B2000A8DF800002800DD
:102640008DF8010002226946200006F023F831BD12
:10265000F8B5040000250026DFF8147AB8780028C1
:102660006FD1002000F047FB05002800C0B26428AD
:1026700064DA01207875DFF8FC090068B861280089
:10268000C0B2182818D13878002815D13878401CE5
:102690003870072000F01FFB0020DFF8E01B4870B7
:1026A000DFF8D4794FF47A71380006F015F9380064
:1026B00006F07CF801204AE07878401C7870280009
:1026C000C0B207F0E2F90600306900280BD030698B
:1026D00005F0D0FD02004FF47A7392B23169DFF851
:1026E000A00A07F0FCFDF06800280CD170680028F3
:1026F00003D0DFF8A00A71688847022000F0EBFAE7
:102700000120F87022E02800C0B207F0A5F90128E6
:1027100006D14EF66021DFF8800A06F0DDF805E00C
:1027200042F21071DFF8700A06F0D6F8DFF8680A96
:1027300006F03CF83878401C387007E000207875C7
:1027400004E00021DFF8340B01F04FF90120F2BD65
:102750002DE9F04705005FF0000A0026002700245D
:10276000DFF8340A06F06BF8002000F0C4FA804667
:10277000DFF8FC9899F80300012839D14046C0B22F
:1027800007F083F90600F068002805D0002089F8DA
:102790000000002089F80100002089F8040040466C
:1027A000C0B207F07DF90400012000F0A4FA8046D1
:1027B0004046C0B207F069F90700002C05D021009F
:1027C000DFF8B40806F088F830E03869002802D055
:1027D000F068002805D10021DFF8A00A01F0F6F822
:1027E00004E00021DFF8940A01F0FFF8012026E060
:1027F0004046C0B216280FD199F804000A280BDA17
:1028000099F80400401C89F8040041F28831DFF88F
:10281000680806F061F809E0022089F80000032149
:10282000DFF8580A01F0D2F8012008E00020DFF8B4
:102830004C1A4870DFF8400805F0B8FF0120BDE8E9
:10284000F0872DE9F84304005FF000095FF000080D
:10285000DFF8440905F0F3FF002000F04CFA050012
:102860002900C9B20220FFF7EFFD2800C0B207F02F
:102870000CF90600306905F0FDFC020092B23169E6
:102880000220FFF7B2FDDFF8E8773878022806DB90
:10289000B068002818D00020B168884714E0787824
:1028A000401EC0B200F042FA012807D10020787023
:1028B0000021DFF8C80901F089F805E0B0680028B8
:1028C00002D00020B16888470120BDE8F28370B5CE
:1028D00004000025DFF8541A087800280ED10120E2
:1028E0000870DFF8B0088088DFF8441A08802100FB
:1028F000C9B2DFF8880901F078F81AE0DFF8300A89
:10290000DFF8902893880688B3420AD10020087027
:10291000002000F0F0F905002800C0B200F03DF9F9
:1029200007E0918801802100C9B2DFF8500901F069
:102930005CF8012070BD70B50400002607F0BFFCF4
:1029400000252800C0B2092809DA0020DFF82C1978
:102950002A00D2B21201114448706D1CF1E700F058
:102960008DFB012875D1DFF808174879142835DA6E
:10297000887B002805D0487BC873887B487300207B
:102980008873487B012802D0487B022811D100F0CF
:10299000C5FF0D21DFF8800A00F0E7F80A21DFF813
:1029A0007C0A00F0E2F80B21DFF8740C00F0DDF88F
:1029B0004FE0487B04284CD100F0B0FF0D21DFF838
:1029C000580A00F0D2F81321DFF8540A00F0CDF8CD
:1029D0000221DFF8500A00F0C8F83AE0487B0128ED
:1029E00017D0487B022814D0C87B487300F096FFAC
:1029F0000D21DFF8240A00F0B8F80A21DFF81C0ADC
:102A000000F0B3F80B21DFF8180C00F0AEF801204D
:102A100020E00869007800280AD0086900780128B9
:102A200017D1DFF8B00A006840688047002810D14D
:102A300000F074FF0D21DFF8E00900F096F80A219C
:102A4000DFF8D80900F091F80B21DFF8D40B00F083
:102A50008CF8012070BD10B504000521DFF81C08BA
:102A600000F0B4FF012010BD01000120704710B537
:102A70000400DFF8041B0878002808D10878401CFF
:102A800008700721DFF8F40700F0AFFF01E0002035
:102A90000870012010BD70B504000026DFF8DC1AB4
:102AA0000220FFF7B7FC00F039FF00252800C0B274
:102AB000092809DA0020DFF8C4172A00D2B212016F
:102AC000114448706D1CF1E70420DFF8B41AC87097
:102AD00000224021DFF8AC0A04F006FADFF8906526
:102AE000707914281BDBDFF8EC0900684068804728
:102AF000002814D130690078012810D100F00EFFB1
:102B00000D21DFF8140900F030F80A21DFF80C0974
:102B100000F02BF80B21DFF8080B00F026F801205D
:102B200070BD01B59DF80000642801DB00201BE0AA
:102B300000226946DFF8EC0A07F024FC002801D1E6
:102B4000002011E0DFF82825507D002806D0DFF8AE
:102B5000D81A9069FFF7EEF9012804D10021DFF8B7
:102B60001C0700F033FF012002BD70B504000D000A
:102B70000020002630002900C0B2C9B288420AD223
:102B80003000C0B2205CFFF7CCFF002801D100204C
:102B900002E0761CEEE7012070BD2DE9FE4F040037
:102BA000002500265FF00008DFF8702BD2E9000155
:102BB000CDE900012000C0B206F067FF0700F86809
:102BC0000090F86805F056FBADF804002000C0B294
:102BD000642818DAF868002815D0DFF8B88541466F
:102BE000684601F0C7FE0500002D0CD44046796808
:102BF0008847DFF87C14C870022000F06CF80120D0
:102C0000DFF87C1948712000C0B206F05CFF012893
:102C10002ED100200600300080B20C2828DA5FF0A8
:102C20001408DFF8FC9A300080B208FB00F048443A
:102C3000C0680090300080B208FB00F04844C068D3
:102C400005F018FBADF80400DFF848A551466846CA
:102C500001F090FE0500002D08D45046310089B2E5
:102C600008FB01F809EB080149688847761CD2E7A0
:102C7000DFF82085B8F80420D8F800100120FFF70D
:102C800063FB4FF496695FF0000ADFF890BB524691
:102C90004946584605F0A2F90020A8F80400012092
:102CA000DFF8DC1808710120BDE8FE8F10B50400C4
:102CB000DFF86C1B0220FFF758FB0321DFF8BC058F
:102CC00000F084FE10BD10B504000021DFF8AC0553
:102CD00000F07CFE10BD10B504002000C0B2092831
:102CE00001DB002006E02100C9B2DFF8900500F00A
:102CF0006DFE012010BD38B5040000208DF80000E5
:102D0000DFF82C5C280007F0CFFB002801D16420FD
:102D10000BE02200D2B26946280007F048FB0028E9
:102D200001D1642001E09DF8000032BD10B504001F
:102D30002100C9B289B2DFF8F80B07F0B7FB10BD6C
:102D400010B5002000242000C0B2092809DA0020B4
:102D5000DFF828152200D2B2120111444870641C19
:102D6000F1E700F0DBFDDFF8300405F068FDC24854
:102D700005F065FDDFF89C0B05F061FD0020BC4906
:102D8000C8710020DFF8AC1BC87010BD10B504007E
:102D90000521DFF8A40B00F019FE10BD80B500205E
:102DA0000090DFF8743B00225FF0FF31DFF8640B26
:102DB00005F0D6FC01BD38B5040000252000C0B2E6
:102DC00000280ED001281AD0032826D0062837D094
:102DD000072836D008283CD0092840D00A2859D0E6
:102DE0005FE0DFF8581B0220FFF714FB0321DFF838
:102DF0008C0400F0EBFD02209D49087051E0DFF8E3
:102E0000401B0220FFF706FB0321DFF8700400F0EF
:102E1000DDFD02209649087043E0DFF8281B022000
:102E2000FFF7F8FADFF85807C078042807D0032125
:102E3000DFF8480400F0CAFD02208D49087030E038
:102E40002FE0DFF85003DFF88C160968096988471E
:102E500027E00421DFF8F00AFFF787FE21E0DFF822
:102E6000EC1A0220FFF781FA0020FFF744FF05006B
:102E70002800C0B206F044FE012805D10221DFF887
:102E8000FC0300F0A3FD04E00321DFF8F00300F0F1
:102E90009DFD06E0BF48DFF83C160968C968884711
:102EA000FFE731BD10B504002000C0B2002807D0F4
:102EB000401E08D0401E09D0401E0D280CD913E03A
:102EC00000F04AF810E06A48407B0EE00221DFF88B
:102ED0005405FFF74AFE07E02000C0B2DFF8F41502
:102EE000096889688847FFE7012010BD70B5002494
:102EF0005F4D6879002804D10020DFF8541A08706B
:102F000029E0DFF84C6A30786979884204D269791F
:102F10003078091A0C0003E031786879091A0C003E
:102F20002000C0B2052190FBF1F201FB1200002845
:102F300011D1687B022802D10120687304E0687B0C
:102F4000012801D102206873DFF8081A0220FFF778
:102F500061FA6879307070BD10B504F025FF04F097
:102F60007FFE434CA079401CA0710020207300F02C
:102F7000D5FCA079022849DADFF804460120E07088
:102F80006078002809D0022807D006D3042828D06A
:102F900015D3062833D031D337E00D21DFF878047C
:102FA000FFF7E3FD0A21DFF87404FFF7DEFD0B21D4
:102FB000DFF86C06FFF7D9FD002060703CE00D21C2
:102FC000DFF85404FFF7D1FD0A21DFF85004FFF7C2
:102FD000CCFD0B21DFF84806FFF7C7FD002060702D
:102FE0002AE00421DFF87009FFF7BFFD0B21DFF8AD
:102FF0003006FFF7BAFD032060701DE01CE000F012
:103000008DFC0520FFF767FE16E015E00020A0719B
:103010006079401C6071FFF769FF20690078002823
:1030200005D10821DFF8100900F0D0FC04E00521EB
:10303000DFF8040900F0CAFC10BDE0B500200190E3
:103040000020ADF80000694601A8DFF88824126866
:1030500012689047BDF80010019807F008F907BD05
:1030600080B5DFF8700400684069804702BD000049
:10307000C40C0020304400203843002038B5DFF86D
:10308000DC48E079002805D0022842D025D3032867
:1030900050D060E0DFF8C8180220FFF7BBF904F059
:1030A00083FE04F0DDFD00224021DFF8D80403F0A8
:1030B0001BFF61790A20DFF85C5891FBF0F200FBFE
:1030C00012114FF47A70414301F6B831280005F02F
:1030D00003FC280005F06AFB46E0DFF8A854002254
:1030E0000121280003F000FF00220221280003F044
:1030F000FBFE01224021280003F0F6FEDFF8145801
:103100004FF47A71280005F0E7FB280005F04EFB2C
:103110002AE001220121DFF86C0403F0E5FEDFF86C
:10312000F45740F6B831280005F0D6FB280005F02A
:103130003DFB19E000220121DFF8480403F0D4FE32
:10314000DFF8D05741F28831280005F0C5FB280090
:1031500005F02CFB08E00020E071DFF808180220E1
:10316000FFF703F9012003E0E079401CE071002043
:1031700032BD80B50421DFF8F007FFF7F6FC01BD92
:10318000A83F002080B50421DFF8E007FFF7EDFC41
:1031900001BD0000BC0C0020204300201FB500240E
:1031A00028220021DFF8C807FFF7C2F80A22002111
:1031B000DFF8C007FFF7BCF828220021DFF8B807C6
:1031C000FFF7B6F828220021DFF8B007FFF7B0F8C4
:1031D000DFF8AC07BDF80410018700210A00038F57
:1031E00092B29A4209D2009A0B009BB2D25C436B16
:1031F0000C00A4B21A55491CF0E7BDF80C20A0F849
:10320000402000221100B0F8403089B2994209D222
:10321000029913009BB2C95CC36B1400A4B2195588
:10322000521CEFE7BDF81C10A0F8481000210A005E
:10323000B0F8483092B29A4209D2069A0B009BB27B
:10324000D25C436C0C00A4B21A55491CEFE7BDF8E0
:103250002420A0F8502000221100B0F8503089B28C
:10326000994209D2089913009BB2C95CC36C14003F
:10327000A4B21955521CEFE71FBD00002C0C002012
:1032800030B40100002200200023DFF8F4261C00E7
:10329000158FA4B2AC4209D2526B1C00A4B2125DCD
:1032A0000400E4B20A55401C5B1CEEE72C24050028
:1032B000EDB24C55401C00242300B2F840509BB2A4
:1032C000AB4209D2D36B2500ADB25B5D0500EDB218
:1032D0004B55401C641CEFE72C230500EDB24B5509
:1032E000401C00231C00B2F84850A4B2AC4206D2E5
:1032F0002A240500EDB24C55401C5B1CF2E72C243F
:103300000500EDB24C55401C00242300B2F850508B
:103310009BB2AB4206D22A230500EDB24B55401CAE
:10332000641CF2E7C0B230BC704700006644002065
:10333000484400201FB5002428220021DFF844065D
:10334000FEF7F6FF0A220021DFF83C06FEF7F0FF49
:1033500028220021DFF83406FEF7EAFF28220021A8
:10336000DFF82C06FEF7E4FFDFF81406BDF80410C2
:10337000A0F8581000210A00B0F8583092B29A42D2
:1033800009D2009A0B009BB2D25C436D0C00A4B230
:103390001A55491CEFE7BDF80C20A0F86020002268
:1033A0001100B0F8603089B2994209D20299130035
:1033B0009BB2C95CC36D1400A4B21955521CEFE74F
:1033C000BDF81C10A0F8681000210A00B0F86830A1
:1033D00092B29A4209D2069A0B009BB2D25C436E1B
:1033E0000C00A4B21A55491CEFE7BDF82420A0F840
:1033F000702000221100B0F8703089B2994209D2D1
:10340000089913009BB2C95CC36E1400A4B219558D
:10341000521CEFE71FBD0000B8040020C8040020C4
:10342000EC0400209810002030B40100002200209D
:103430000023DFF84C251C00B2F85850A4B2AC426F
:1034400009D2526D1C00A4B2125D0400E4B20A5508
:10345000401C5B1CEDE72C240500EDB24C55401CD4
:1034600000242300B2F860509BB2AB4209D2D36D66
:103470002500ADB25B5D0500EDB24B55401C641CF0
:10348000EFE72C230500EDB24B55401C00231C0038
:10349000B2F86850A4B2AC4206D22A240500EDB2BC
:1034A0004C55401C5B1CF2E72C240500EDB24C553A
:1034B000401C00242300B2F870509BB2AB4206D2ED
:1034C0002A230500EDB24B55401C641CF2E7C0B244
:1034D00030BC7047244400202DE9F0410021002435
:1034E000DFF8B00405782800C0B200283BD00127DF
:1034F000DFF8A064DFF88884282318F13802D8F8B0
:1035000034103800C0B2301805F005F8B8F83800AB
:10351000401CC7190A2318F14002D8F83C103800A3
:10352000C0B2301804F0F7FFB8F84000401CC719CB
:10353000282318F14802D8F844103800C0B23018D7
:1035400004F0E9FFB8F84800401CC7193C002823E4
:1035500018F15002D8F84C102000C0B236183000D4
:1035600004F0D9FF01E000F061F83C20DFF810140E
:103570004867BDE8F081000067440020544001081E
:10358000903D0020000002402DE9F0410021002480
:10359000DFF8040405782800C0B200283BD00127DA
:1035A000DFF8F463DFF8D883282318F15802D8F83D
:1035B00054103800C0B2301804F0ADFFB8F858000D
:1035C000401CC7190A2318F16002D8F85C103800B3
:1035D000C0B2301804F09FFFB8F86000401CC71953
:1035E000282318F16802D8F864103800C0B23018E7
:1035F00004F091FFB8F86800401CC7193C0028236C
:1036000018F17002D8F86C102000C0B236183000E3
:1036100004F081FF01E000F085F8BDE8F0810000D2
:10362000D4040020684300208038010070B590B0B9
:10363000402100226C46200004F0D0FC002400222F
:103640006846AA212300DBB2C154641CDFF83013A2
:103650000B8F2500EDB24355641C00231A000D8F1B
:1036600092B2AA4209D24A6B1D00ADB2525D25004A
:10367000EDB24255641C5B1CF0E7B1F84020250018
:10368000EDB24255641C00221300B1F840509BB2C9
:10369000AB4209D2CB6B1500ADB25B5D2500EDB23C
:1036A0004355641C521CEFE7B1F848302500EDB2D9
:1036B0004355641C00231A00B1F8485092B2AA4244
:1036C00009D24A6C1D00ADB2525D2500EDB24255E3
:1036D000641C5B1CEFE7B1F850202500EDB24255A9
:1036E000641C00252A00B1F8503092B29A4209D2E7
:1036F000CA6C2B009BB2D25C2300DBB2C254641CA8
:103700006D1CEFE7A34E300004F07AFF40226946BB
:10371000300004F033FF10B070BD0000744B01089E
:103720003830010870B590B0402100226C4620006E
:1037300004F054FC002400226846AA212300DBB2D6
:10374000C154641C8E49B1F858302500EDB2435580
:10375000641C00231A00B1F8585092B2AA4209D250
:103760004A6D1D00ADB2525D2500EDB24255641C9C
:103770005B1CEFE7B1F860202500EDB24255641CF8
:1037800000221300B1F860509BB2AB4209D2CB6D5E
:103790001500ADB25B5D2500EDB24355641C521CB3
:1037A000EFE7B1F868302500EDB24355641C002303
:1037B0001A00B1F8685092B2AA4209D24A6E1D00AE
:1037C000ADB2525D2500EDB24255641C5B1CEFE7C3
:1037D000B1F870202500EDB24255641C00252A0086
:1037E000B1F8703092B29A4209D2CA6E2B009BB2E5
:1037F000D25C2300DBB2C254641C6D1CEFE7664E42
:10380000300004F0FDFE40226946300004F0B6FEB0
:1038100010B070BD61486249086070474C240020B8
:103820006840010838B5FFF757FEFFF7ADFE5D4B66
:10383000012232213E4806F087FDFFF7EBFF5A4C8C
:1038400000200090594B00225FF0FF31200004F06F
:1038500087FF394DA96B200005F03EF8544C00203D
:103860000090544B00225FF0FF31200004F078FFFD
:10387000A968200005F030F8FFF790FA052128002C
:1038800000F0A4F831BD70B5002400200025280008
:10389000C0B209283ADA284E2800C0B200013044EC
:1038A0004078012830D1012004002800C0B2000176
:1038B0003044406800280ED006F022FE2900C9B22C
:1038C000090131444968401A2900C9B2090131444B
:1038D0008968884218D300202900C9B209013144FF
:1038E000487006F00DFE2900C9B209013144486054
:1038F0002800C0B22900C9B209013144C96888470B
:1039000006F0FEFD154988606D1CC0E72000C0B2BE
:1039100070BD0000504300208D2D000880B50020B0
:103920000E494875024806F026FD01BD0000000062
:1039300068430020903D00202C0C00207C400108B2
:1039400090400108A4400108000500200C45010832
:1039500068440020A43D0108E8040020C40C0020B5
:10396000B8400108BC3D0108E0040020E404002048
:10397000880D0020B00D0020BC0D0020E40D0020BB
:10398000600F00200C0E0020340E0020400E00209E
:10399000680E002000FA030800FB0308E00C00207A
:1039A000284400204041002020430020AD2C000886
:1039B00038430020C72C000810B5044610460A46BC
:1039C0000146204604F00AFB204610BD02000120FB
:1039D0000B00DBB21B011344587000200B00DBB25C
:1039E0001B01134458600120704738B504000D00D6
:1039F00001202900C9B209012144487006F080FD68
:103A00002900C9B2090121444860012032BD0200E9
:103A100000200B00DBB21B011344587001207047DB
:103A200010B5040004F075FF012010BD38B5040086
:103A3000DFF80C14087800280ED101200870DFF898
:103A400004048088DFF8001408802100C9B2DFF880
:103A5000FC03FFF7CAFF22E0DFF8EC03DFF8E453D2
:103A6000AA8803889A4212D100200870AA8829687F
:103A70000120FEF769FC8EA10120FEF776FC0121F2
:103A80002800FDF737FF2800FEF7C9FB07E0A988EB
:103A900001802100C9B2DFF8B403FFF7A6FF0020C0
:103AA000DFF8AC1381F84500012032BD10B50400E9
:103AB000DFF8A00307C804F0CDFF0321DFF88C0373
:103AC000FFF793FF012010BD38B5040000F064FA41
:103AD000DFF87C0390F83800012806D1DFF878037E
:103AE000007D012801D1FEF730F9DFF87013DFF80F
:103AF00070532A7808780243D2B2002A06D10120F6
:103B000008700120DFF85C13086504E028780028BD
:103B100001D00020087028780E280FD1DFF8480364
:103B2000808913280ADA07F08BFA012806D1CF48DA
:103B30000078012802D1FEF708F905E028780E2860
:103B400002D00120C9490870012032BD38B50400F7
:103B50000021C748FFF73AFFBD4DE87D401CE875DE
:103B6000E87DC449097888420AD30020E87502211B
:103B7000C148FFF72BFF08F0E5F8012085F8440065
:103B8000012032BD01000120704780B504F0DEFD48
:103B900000F002FA08F012F901BD1CB500F073F84C
:103BA00007F07CFC02F066FF01F07EFAB34C0020C7
:103BB00000900FF2E91300225FF0FF31200004F0C3
:103BC000CFFD44F62061200004F086FE200004F0C2
:103BD000EDFD13BD38B5FFF7D8FFFFF7DEFFA849AD
:103BE0000120FEF717FCA748828801680120FEF734
:103BF000FCFB40F6B83008F0A3F9A34D0020287074
:103C000000F058F8297808432870A04CE078022882
:103C10000DD14FF4487190488069FEF78BF9012867
:103C200005D101F0F0F929780843287004E001F08B
:103C3000EAF929780843287007F044FC29780843FA
:103C40002870FFF720FE29780843287002F06BFCEB
:103C500029780843287028780028CED17C49487EEE
:103C60000028CAD191F823000028C6D1E0780428A2
:103C700003D1002008F0A9F802E0012008F0A5F81F
:103C800008F0A6F8B9E780B504F000F8FEF70AFCE2
:103C90006F4808210175012141760FF2B9007C4976
:103CA00008607C487C4908607C487D49086001BD0B
:103CB0000D0A000070B50020002400252800C0B2C5
:103CC00006283ADA614E2800C0B20001304440783C
:103CD000012830D12800C0B2032801D001200400FF
:103CE0002800C0B200013044406800280ED006F021
:103CF00007FC2900C9B2090131444968401A29006A
:103D0000C9B2090131448968884214D300202900CE
:103D1000C9B209013144487006F0F2FB2900C9B26A
:103D20000901314448602800C0B22900C9B2090124
:103D30003144C96888476D1CC0E7444A92F8310095
:103D4000002803D103211000FFF74FFE2000C0B26E
:103D500070BD000080B500213C48FFF737FE01BD73
:103D600070B50400002500F017F93D484178621A4B
:103D7000B1FBF4F104FB01213C22837802FB01F644
:103D8000B34208D251438078091A891C4FF47A70E3
:103D90004143080000E0434870BD000010B5040036
:103DA00041490220FEF7E1FA404890F8200103283B
:103DB00003D10E213E48FDF7E4FF04212348FFF71D
:103DC00005FE00F001F810BD38B542F21074394913
:103DD0000878002807D10878401C0870254800782A
:103DE0001B49C87528E01A48407E012817D1214D8B
:103DF0006868A86000F0D0F8194A5078AB68AD68E0
:103E00002D1AB0FBF3F103FB01513C2041439078A4
:103E1000091A891C4FF47A7041430C0008E01549D7
:103E20000A78488842438A604888FFF799FF04006F
:103E30002100124804F050FD104804F0B7FC31BDD9
:103E40004B44002090100020384400209C020020A9
:103E50006C0B0020B4430020C40C00204C44002014
:103E6000CC430020AC3B0020000000204D4400204B
:103E700004030020B80B002060040020484200200A
:103E8000D43D0108FC0200204E440020903D00205B
:103E900020440020C40B00201C440020992C010861
:103EA00034440020C0D401007C3B0108C807002036
:103EB000EC4001084F44002062B38B0708D0521E2B
:103EC00011F8013B00F8013B00F024808B07F6D18C
:103ED000830740F0208000BF103A07D330B4B1E828
:103EE0003810103AA0E83810F9D230BC530724BF7C
:103EF000B1E80810A0E8081044BF51F8043B40F8AE
:103F0000043BD20724BF31F8022B20F8022B44BF18
:103F10000B7803707047121F17D35B0009D151F85B
:103F2000043B20F8023B1B0C121F20F8023BF6D288
:103F30000BE051F8043B00F8013B1B0A20F8023B60
:103F40001B0C121F00F8013BF3D238BF121D521E8A
:103F500024BF11F8013B00F8013BF8D8704730B49A
:103F6000002513E050F8042BD30744BFA9F1010347
:103F70009A18091F042942F8045BFAD213468C07E9
:103F800044BF15809B1CC90748BF1D7050F8041B17
:103F90000029E7D130BC704710B586B0DFF86C421D
:103FA000002201A9200000F02DFA0022694620001D
:103FB00000F0CEFADFF858029DF8061081709DF8E7
:103FC000051041709DF8041001709DF80010C1703B
:103FD0009DF8021001719DF8011041719DF80310C8
:103FE000817106B010BD17B587B01422002101A859
:103FF000FFF7E2FC042200216846FFF7DDFC07A87A
:1040000000F031F801282BD1099802909DF81E008C
:104010008DF806009DF81D008DF805009DF81C0028
:104020008DF804009DF81F008DF800009DF8200019
:104030008DF802009DF821008DF801009DF8220006
:104040008DF80300DFF8C441002201A9200000F030
:1040500057F900226946200000F008FA012000E02C
:1040600000200AB010BD010088783D2801DB002047
:1040700023E048783D2801DB00201EE0087818285E
:1040800001DB002019E0C878092801DB002014E0DA
:104090000879202801DB00200FE048790D2801DB9A
:1040A00000200AE08879642801DB002005E0887997
:1040B000142801DA002000E00120704710B40278D3
:1040C0008A1802700278182A4EDB0278302A4BDAFE
:1040D0000278182392FBF3F403FB14220270827916
:1040E000042392FBF3F403FB1422002A1ED102796D
:1040F000521C0271DFF81C2143791A4412F8012C7A
:1041000003799A4230D2012202714279521C4271E3
:1041100042790D2A28DB012242718279521C6423E4
:1041200092FBF3F403FB142282711DE00279521C0E
:104130000271DFF8E42043791A4412F8012C037964
:104140009A4211D2012202714279521C4271427983
:104150000D2A09DB012242718279521C642392FBF1
:10416000F3F403FB1422827110BC704737B49DF83E
:10417000060040F2B5514843C01C80089DF8061067
:10418000042291FBF2F402FB1411002901D1234A0D
:1041900000E0234A9DF805403D214C433C3C022170
:1041A00094FBF1F108189DF80510491EC9B24900A9
:1041B0001400CC4014F00304001B9DF80410491EA9
:1041C0000818184948439DF802409DF801503C21C9
:1041D00001FB05449DF800504FF4616101FB05446B
:1041E00020181900C9B2012904D00CD3032907D023
:1041F00003D308E00C49081805E00C49081802E050
:104200000B490818FFE73EBC70470000F44100204E
:10421000CC4300208410002078100020505544002A
:10422000A0AA99008051010080A16DE980436D38FA
:10423000801F860710B50400002C01D101205EE02C
:10424000607F002804D100202077200007F08CFE3A
:1042500002206077CA2021684862532021684862A2
:10426000200000F053FB002806D0FF2021684862A0
:1042700004206077012042E020688168DFF838067A
:10428000014020688160206881686268206902437B
:1042900060690243114320688160E0682168086119
:1042A00020680069A16850EA01402168086120681F
:1042B000C06830F080002168C8602068806880068F
:1042C0000BD4200000F004FB002806D0FF2021685A
:1042D000486204206077012011E02068006C30F40F
:1042E0008020216808642068016CA069014320686F
:1042F0000164FF202168486201206077002010BD22
:104300002DE9F04105000E001400287F012801D19D
:10431000022075E00120287702206877002C1CD14C
:1043200028688068400601D40020F070307800F0E2
:1043300009FB8046707800F005FB0700B07800F0BC
:1043400001FB5FFA88F8FFB23F0257EA0847C0B2A4
:104350000743F07857EA00470FE028688068400676
:1043600001D40020F070307877783F0257EA004798
:10437000B0780743F07857EA0047CA2029684862B6
:10438000532029684862280000F0C0FA002808D0AD
:10439000FF202968486204206877002028770120E0
:1043A0002EE0DFF818053840296808602868806822
:1043B00030F480202968886028688168F268306954
:1043C00002431143286881602868C06830F080008B
:1043D0002968C860280000F07BFA002808D0FF2078
:1043E000296848620420687700202877012007E0C8
:1043F000FF20296848620120687700202877002084
:10440000BDE8F081F8B505000E0014002868806A48
:1044100080B27060286800694004400CB060286871
:104420000768DFF8980407403800000C10F03F00E0
:1044300030703800000A10F07F00707017F07F00B5
:10444000B0703800000C10F04000F070002C0BD160
:10445000307800F085FA3070707800F081FA707072
:10446000B07800F07DFAB0700020F2BD2DE9F04187
:1044700005000E001400287F012801D1022065E00C
:104480000120287702206877002C07D17078C006B9
:1044900004D5707810F0EF000A307070002C16D13F
:1044A000F07800F04FFA8046707800F04BFA070081
:1044B000B07800F047FA5FFA88F8FFB23F0257EA97
:1044C0000847C0B20743307857EA403709E0F07830
:1044D00077783F0257EA0047B0780743307857EAC9
:1044E0004037CA202968486253202968486228005A
:1044F00000F00CFA002808D0FF2029684862042048
:10450000687700202877012020E0DFF8B4033840E6
:10451000296848602868C06830F080002968C86051
:10452000280000F0D5F9002808D0FF20296848624B
:104530000420687700202877012007E0FF20296801
:10454000486201206877002028770020BDE8F081CC
:10455000F8B505000E00140028684768DFF860030E
:1045600007403800000CF0703800000A10F01F00FF
:10457000707017F03F00B0703800400B10F007006B
:104580003070002C0BD1F07800F0EAF9F070707800
:1045900000F0E6F97070B07800F0E2F9B070002039
:1045A000F2BD2DE9F84F05000E0014000020009028
:1045B00000275FF00008287F012801D10220E5E0F4
:1045C0000120287702206877002C31D12868806884
:1045D000400601D40020F070F0690028FFD0307848
:1045E00000F0B0F98146707800F0ACF98246B078FE
:1045F00000F0A8F9834696F8200000F0A3F95FFACE
:1046000089F95FFA8AFA5FEA0A2A5AEA094A5FFADE
:104610008BFB5BEA0A0AF1785AEA014AC0B25AEA0D
:10462000006AF06950EA0A0A706950EA0A0A1FE053
:1046300028688068400601D40020F070F0690028E6
:10464000FFD0307896F801A05FEA0A2A5AEA004AB9
:10465000B07850EA0A0AF0785AEA004A96F8200040
:104660005AEA006AF06950EA0A0A706950EA0A0ACE
:104670007768B0690743CA202968486253202968CF
:104680004862706AB0F5807F37D12868806830F45E
:104690008070296888602868C06810F0800070F415
:1046A000C0702968C86005F02BFF80462868C06884
:1046B000C00710D405F024FFB0EB080040F2E93148
:1046C0008842F3D3FF2029684862032068770020DE
:1046D000287703205AE02868C0F81CA0286847649F
:1046E0002868806850F4807029688860286880682D
:1046F00050F480502968886036E02868806830F47B
:104700000070296888602868C06810F0800070F424
:1047100020702968C86005F0F3FE80462868C068EC
:10472000800710D405F0ECFEB0EB080040F2E93150
:104730008842F3D3FF20296848620320687700206D
:104740002877032022E02868C0F820A02868876422
:104750002868806850F4007029688860286880683C
:1047600050F40050296888605648016851F40031BF
:1047700001605548016851F400310160FF2029684B
:10478000486201206877002028770020BDE8F28F7A
:1047900070B504000D00207F012801D102205AE0ED
:1047A0000120207702206077CA20216848625320C8
:1047B00021684862B5F5807F22D12068806830F496
:1047C0008070216888602068806830F4805021689B
:1047D000886005F095FE06002068C068C00732D4E6
:1047E00005F08EFE801B40F2E9318842F4D3FF20B1
:1047F00021684862032060770020207703202AE0A8
:104800002068806830F400702168886020688068C3
:1048100030F400502168886005F072FE06002068C0
:10482000C06880070FD405F06BFE801B40F2E931B1
:104830008842F4D3FF20216848620320607700207B
:104840002077032007E0FF2021684862012060777D
:1048500000202077002070BD10B50400206880681B
:10486000C0040ED52068C068C0050AD5200007F036
:1048700041FC2068C06810F0800070F4C0702168AE
:10488000C8602068806880040ED52068C0688005F4
:104890000AD5200007F052FD2068C06810F08000A3
:1048A00070F420702168C8605FF400300749086028
:1048B0000120607710BD0000BFFF8FFF7F7F7F006A
:1048C0003FFFFF00000401400804014014040140C0
:1048D00038B5040020688068800615D42068C06858
:1048E00030F0A0002168C86005F00AFE05002068CD
:1048F000C068800608D405F003FE401B40F2E93191
:104900008842F4D3032000E0002032BD38B5040013
:104910002068C068400613D45FF0FF302168C8608B
:1049200005F0EEFD05002068C068400608D405F0DB
:10493000E7FD401B40F2E9318842F4D3032000E058
:10494000002032BD0100002208000300DBB20A2B68
:1049500002D3521C0A38F8E750EA0210C0B270477E
:104960000200D2B212090A214A4310F00F00801847
:10497000C0B270472DE9FE4F04000D000020002654
:1049800000270021ADF804105FF001085FF0000976
:104990005FF0000A21680978212901D101218A46A6
:1049A0005FF0000B584600B2A988884272DA20688E
:1049B0005146C9B2405C29685A4612B2895C8842A5
:1049C00065D1012080465046C0B2401C0600002040
:1049D00081460020ADF80400300000B2A188884272
:1049E0004ADA2068310009B2405C7C281ED1BDF94A
:1049F0000400002804D10120814616EB0B000700BB
:104A000001A800903B001BB22A002100701C00B2DC
:104A100000F059F880464046C0B2012806D1514600
:104A2000C9B2584600B200F03DF839E04846C0B27D
:104A300000280FD12068310009B2405C29685A462D
:104A400012B21144320012B2895C884202D00020B6
:104A5000804611E04846C0B2002801D1761CBBE771
:104A60003000BDF9041000B2884203DABDF9040039
:104A70000600B1E7761CAFE74046C0B2012806D178
:104A80005146C9B2584600B200F00CF808E01BF1DC
:104A9000010B87E75146C9B25FF0FF3000F002F822
:104AA000BDE8FE8F02000800C0B2002802D110004D
:104AB00000B207E0100000B2002802D45FF0FF301F
:104AC00000E000207047F0B50500059E012000279A
:104AD000AC460FFA8CFC3C0024B214EB0C0C8C8816
:104AE000A4453DDA0C68AC460FFA8CFC6444BC4625
:104AF0000FFA8CFC14F80C407C2C03D17C19348008
:104B000000B22EE0B2F804C09E460FFA8EFE3C00C2
:104B100024B214EB0E0EF44506DAB2F90440641C1C
:104B200034805FF0FF3420000C68AC460FFA8CFC38
:104B30006444BC460FFA8CFC14F80C40D2F800C058
:104B40009E460FFA8EFEF444BE460FFA8EFE1CF807
:104B50000EC0644502D05FF0FF3420007F1CB7E731
:104B600000B2F0BDF0B404001000C0B2FF2801D1C3
:104B700088880200A5881000C0B245191800C0B28C
:104B8000854201DB00201AE0002528001600C0B293
:104B9000F6B2B0420DD22068A68830442E00F6B29C
:104BA0000F68AC465FFA8CFC17F80C7087556D1CCB
:104BB000EBE7A6881000C0B28619A6800120F0BCE1
:104BC0007047F0B50400059D069EA0882818B042E5
:104BD00001DB002018E00027380080B2A8420FDA7D
:104BE0000868BC461FFA8CFC6044C05CD4F800C066
:104BF000BE461FFA8EFEF4440CF802007F1CEBE761
:104C0000A0882818A0800120F0BD2DE9FC410400F7
:104C10000D0016002F687F1C206810F807807F1C8D
:104C200014200190CDF800803B00002221003000CC
:104C3000FFF7C7FF002801D1002008E0B088C7199E
:104C4000A088B84201DA002001E02F600120BDE811
:104C5000F68170B40200002318008C8880B2A04254
:104C60000BD21068948820441C00A4B20D681E006A
:104C7000B6B2AD5D05555B1CEEE7948888880419D3
:104C80009480012070BC704738B50400DFF87C5A6E
:104C90002878002803D0022810D008D319E04FF458
:104CA000FA70DFF8B01B886000F09DFE13E064200E
:104CB000DFF8A01B886000F0ABFE0CE0002028703D
:104CC00006F0ACF90121DFF88C0BFEF77FFE012026
:104CD0000BE0002028702878401C28702100C9B201
:104CE000DFF8700BFEF781FE012032BD10B5040025
:104CF00006F02EF9012823D106F08CF903280ED1F5
:104D0000DFF80C1A0220FDF730FBDFF8480B42F207
:104D1000107181600021FEF768FE012017E006F0A7
:104D2000EEF9012805D10321DFF8280BFEF74EFE2E
:104D300004E00120DFF8AC1A81F82001012006E030
:104D40002100C9B2DFF80C0BFEF74FFE012010BDA9
:104D500038B50400DFF8905A2878002808D00228D7
:104D600024D014D304283FD02FD305284BD051E0B2
:104D7000DFF8780A06F0D8F9012807D1DFF8701AB1
:104D80000220FDF7F2FA2878401C287042E0DFF894
:104D90005C0A06F029FA012807D1DFF8BC1A0220C4
:104DA000FDF7E3FA2878401C287033E0DFF8AC0AFE
:104DB00006F0BAF9012807D1DFF8A41A0220FDF79E
:104DC000D4FA2878401C287024E0DFF8900A06F016
:104DD0000BFA012807D1DFF88C1A0220FDF7C5FA7B
:104DE0002878401C287015E0DFF87C0A06F09CF952
:104DF000012807D1DFF8741A0220FDF7B6FA2878E7
:104E0000401C287006E00120DFF8D81981F8200145
:104E1000012006E02100C9B2DFF8380AFEF7E5FDFF
:104E2000012032BD38B5040006F0F4F8012874D131
:104E3000DFF83C5A42F21070DFF81C1C896CB0FBA2
:104E4000F1F0288006F0F2F8012812D1DFF8F00A1C
:104E5000417801290DD1DFF8EC1A0A78521C0A704A
:104E60000A782B8892B29A4203D300220A7000215A
:104E70004170DFF8E80B418E808E814215D0DFF85B
:104E8000C05A6878002810D1DFF8101B0220FDF707
:104E90006CFA0020DFF8AC1A087001206870092055
:104EA00006F084FD062000F0F5FADFF84009418E97
:104EB000808E814215D0DFF8885A6878002810D19A
:104EC000DFF8DC1A0220FDF750FA0020DFF8741A30
:104ED000087001206870032006F068FD012000F0D2
:104EE000D9FADFF87809418E808E814215D0DFF83B
:104EF000505A6878002810D1DFF8101B0220FDF707
:104F000034FA0020DFF83C1A08700120687008208D
:104F100006F04CFD032000F0BDFA2100C9B2DFF815
:104F2000380BFEF762FD012032BD3EB5040006F0ED
:104F300071F8012859D1DFF8085A687B012854D14B
:104F4000E888298988424CD0287B002806D002288E
:104F500010D004281AD0052824D02FE0DFF88C08C0
:104F6000818DADF80410C168EA88808D00FB0211C4
:104F7000009123E0DFF8E408818DADF80410C168EA
:104F8000EA88808D00FB0211009117E0DFF8D80855
:104F9000818DADF80410C168EA88808D00FB021194
:104FA00000910BE0DFF8B40A818DADF80410C16800
:104FB000EA88808D00FB02110091FFE707208DF841
:104FC000060001208DF80700684606F08CF8E88896
:104FD000401CE880E8886989884206D30020E88080
:104FE00003E000206873012006E02100C9B2DFF869
:104FF000680AFEF7FAFC01203EBD10B5040005F07A
:10500000A0FF012010BDF8B50020002400252800D5
:10501000C0B206283BDADFF8406A2800C0B20001BF
:1050200030444078012830D12800C0B2042801D093
:10503000012004002800C0B200013044406800286C
:105040000ED005F05DFA2900C9B209013144496862
:10505000401A2900C9B2090131448968884214D331
:1050600000202900C9B209013144487005F048FA0E
:105070002900C9B20901314448602800C0B22900A2
:10508000C9B209013144C96888476D1CBFE703F004
:1050900000FA0600264307F0CEFA0700374305F072
:1050A00071FD3843C0B2F2BD80B505F03FFD00216F
:1050B000DFF8A007FEF799FCDFF828070FF23901A7
:1050C000C0F824110FF25111C0F828110FF27951D4
:1050D000C0F838110FF26941C0F82C110FF2E54108
:1050E000C0F830110FF23151C0F834110FF6B5018C
:1050F000C0F83C1101BD000010B504002000C0B292
:10510000002809D002282ED01DD3042852D041D324
:10511000062870D058D37EE0DFF844190220FDF74E
:1051200024F9DFF8C80600F0A5FB002805D11122FC
:10513000DFF83019012000F028F90421DFF8180900
:10514000FEF753FC67E0DFF820190220FDF70DF9A8
:105150000121DFF8980600F0CAFB0421DFF8F80807
:10516000FEF743FC57E0DFF804190220FDF7FDF8D5
:10517000DFF8E80600F07EFB002805D11122DFF8F9
:10518000E418032000F001F90421DFF8CC08FEF751
:105190002CFC40E0DFF8D8180220FDF7E6F80121EA
:1051A000DFF8B80600F0A3FB0421DFF8AC08FEF737
:1051B0001CFC30E0DFF8BC180220FDF7D6F8DFF861
:1051C000A80600F057FB26E0DFF8AC180220FDF738
:1051D000CCF8DFF8880800F04DFB002805D111223B
:1051E000DFF88018062000F0D0F80421DFF8680806
:1051F000FEF7FBFB0FE0DFF884180220FDF7B5F89F
:105200000121DFF8580800F072FB0421DFF848089C
:10521000FEF7EBFBFFE710BD2DE9F84F84B004006B
:105220000D00160003275FF0000B00205FF0000A5E
:105230005FF00108DFF8AC154A6800920989ADF803
:10524000041000994978009A92F8029019EB01290C
:105250003100C9B2002904D0022900F08C8078D333
:1052600090E02000C0B201280AD103200700484680
:10527000DFF87815898D80B2884201D300208046FE
:105280002000C0B203280AD1082007004846DFF8F2
:10529000CC15898D80B2884201D300208046200041
:1052A000C0B206280AD1092007004846DFF8AC172B
:1052B000898D80B2884201D3002080464046C0B22A
:1052C000012821D10098C01C0290ADF80C9000205C
:1052D0008346584680B2494689B2C91C884208DADA
:1052E0000098594689B2405C90EA0A0A1BF1010B0A
:1052F000EFE7504600994A4692B21144C978C0B2CD
:10530000884201D0002080464046C0B2012816D114
:10531000DFF86C170320FDF728F8BDF80C20029980
:105320000320FDF730F8A6A10320FDF71EF8BDF815
:105330000C2002993800C0B206F007FB08E0DFF845
:1053400044170220FDF766F82000C0B200F052FAC0
:1053500018E0484680B2B0F5807F01DBFC20814632
:105360000098C01C0290ADF80C90BDF80C1002988B
:1053700000F0C0F906E0BDF804200099280000F014
:10538000B9F8FFE705B0BDE8F08F2DE9F047C2B0EE
:1053900004000D0016005FF0000800205FF0000A16
:1053A0000027002140918DF80441AA216A46434616
:1053B0009BB2D15418F10108310089B2090A6A463A
:1053C00043469BB2D15418F101086946424692B255
:1053D0008E5418F1010800210800320080B292B208
:1053E00090420AD2080080B2285C6A4643469BB2CB
:1053F000D05418F10108491CEEE72000C0B2002883
:1054000009D002280CD006D304280ED008D30628D1
:1054100010D00FD313E0DFF8D403808D07000EE027
:10542000DFF83804808D070009E0DFF83C04808D48
:10543000070004E0DFF82406808D0700FFE738004E
:1054400080B2401E424692B2904201DA781E8046F7
:1054500018F101085FF00009484680B2414689B260
:10546000491E884208DA6846494689B2405C90EA9B
:105470000A0A19F10109EFE76846414689B2084472
:1054800000F801ACADF80681684605F03CFE42B07C
:10549000BDE8F0871CB504002000C0B2012806D08A
:1054A00003280AD004280ED0062812D017E0DFF80F
:1054B0003C03808DADF8040011E0DFF8A003808D7F
:1054C000ADF804000BE0DFF8A003808DADF8040018
:1054D00005E0DFF88805808DADF80400FFE78DF862
:1054E00006400020009000208DF80700684605F077
:1054F000FAFD13BD70B504000D001600BA4800781F
:10550000002806D0022804D00BD3042801D008D3E9
:105510000FE00023320092B22900200005F09CFD2C
:1055200007E00123320092B22900200005F094FD2B
:10553000FFE70321DFF82005FEF748FA70BD000001
:1055400010B504000020A849087005F0D8FD012816
:105550002FD02000C0B2002806D002280DD0042889
:1055600014D005281BD024E0DFF81C150220FCF71E
:10557000FCFE9E4800F07EF91BE0DFF810150220CB
:10558000FCF7F3FEB54800F075F912E0DFF80015FE
:105590000220FCF7EAFEB44800F06CF909E0DFF8FD
:1055A000F4140220FCF7E1FEDFF8B00400F062F929
:1055B000FFE70021DFF8A004FEF708FA10BD0000A5
:1055C0000D0A000010B5894C0021E069FDF72AF8AA
:1055D0000021206AFDF726F8A04C0021E069FDF7C4
:1055E00021F80021206AFDF71DF89F4C0021E06999
:1055F000FDF718F80021206AFDF714F8DFF85C4485
:105600000021E069FDF70EF80021206AFDF70AF895
:10561000FCF79BFB10BD000080B5DFF87C14022076
:10562000FCF7F8FE01BD10B5040005F068FD012887
:1056300009D1200507D16B48002180F81C11C0F862
:10564000184105F077FC10BD10B4030000201A00CB
:10565000D2B2002A0BD0022A1BD00CD3042A2AD0A3
:105660001BD3062A30D02AD3072A3DD040E05F4A18
:10567000126810003CE00A00D2B2002A05D15B4A51
:1056800054689268A41A200002E0584A5268100038
:105690002EE0724A126810002AE00A00D2B2002AF4
:1056A00005D16E4A54689268A41A200002E06B4A41
:1056B000526810001CE06C4A1268100018E0DFF815
:1056C0009C231268100013E00A00D2B2002A06D10F
:1056D000DFF8882354689268A41A200003E0DFF8FA
:1056E0007C235268100003E05FF0FF321000FFE7F8
:1056F00010BC704738B504000D0000232A0092B298
:1057000021008F480079FCF76AFB31BD5A44002024
:10571000B43901082DE9F04104000D0000260027EE
:105720005FF00008280080B2002854D005F072FC19
:10573000012850D12000C0B2002805D0022813D083
:105740000AD3032818D01FE02848818E88460021FC
:105750000F00C08D060017E04048818E8846022168
:105760000F00C08D06000FE03F48818E884604215F
:105770000F00C08D060007E0B848818E88460521DD
:105780000F00C08D0600FFE72800310080B289B20B
:10579000884220D26A4801214173C04909780171C9
:1057A0000773A0F80880468101892A0092B29142CD
:1057B00003D30189491BC18003E001898919491B71
:1057C000C18005212348FEF701F9B5490220FCF705
:1057D000CCFD012004E0B3490220FCF7C6FD002007
:1057E000BDE8F081C8070020A84300208C0A0020F3
:1057F000C835010810B504002000C0B2012804D04B
:1058000003280ED0062818D023E00121A64800F076
:105810009BF8002804D10E22A4490120FFF7B5FD12
:1058200017E001210D4800F08FF8002804D10E2266
:105830009E490120FFF7A9FD0BE00121874800F0F8
:1058400083F8002804D10E2298490120FFF79DFD1E
:10585000FFE710BD00040020EC350108C40A002059
:105860001036010834360108FC0A002058360108B9
:105870004244002038B504000125A08E401CE18D73
:1058800090FBF1F201FB1200A086E168A28EA08DD0
:1058900000FB0211216005F032FC012803D12068D1
:1058A000FFF7C1FE03E0A18E206AFCF7BBFEA08ECD
:1058B000618E884218D105F022FC012802D1002017
:1058C000050011E0608E401CE18D90FBF1F201FBC0
:1058D000120060866169628EA08D00FB021161601A
:1058E000618EE069FCF79EFE2800C0B232BD38B57B
:1058F00004000D00002012494870608EA18E88427D
:105900001BD0618E2800C0B24118E08D91FBF0F2EF
:1059100000FB121161866169628EA08D00FB02118D
:10592000616005F0ECFB012803D16068FFF77BFEA6
:1059300003E0618EE069FCF775FE012032BD0000D6
:10594000984300205B44002070B504000D00012640
:10595000002057494870608EA18E88421AD005F009
:10596000CEFB012802D10020060013E0618E280042
:10597000C0B24118E08D91FBF0F200FB121161867C
:105980006169628EA08D00FB02116160618EE06929
:10599000FCF748FE3000C0B270BD00007C36010844
:1059A000A0360108F8B504000D0016000320210000
:1059B000C9B2002904D0022904D0052904D005E089
:1059C000032704E0082702E0092700E00AE039493C
:1059D0000320FCF7CAFC321F92B2E91C3800C0B2A7
:1059E00005F0B3FFF1BD10B501224FF480513248EC
:1059F00001F07AFA314C00224021200001F074FAC3
:105A000000228021200001F06FFA10BDC436010889
:105A100010B52A4C01228021200001F065FA0122F4
:105A20004021200001F060FA00224FF4805122480A
:105A300001F05AFA06F05AFE10BD1B48418E808EC6
:105A4000814204D11E48418E808E814201D00120C6
:105A500000E000207047000000040020340B00200C
:105A6000E8360108E83D01080C3701083037010825
:105A700054370108783701089C370108C0370108FE
:105A8000E4370108FC320108083801082C38010805
:105A90005038010874380108983801085E44002025
:105AA00084480108BC3801088C0A0020FC40010829
:105AB00098430020243301080004024000080240FB
:105AC000C40A002010B50400002005F000F90522EA
:105AD0000021DFF8D80A05F0BEF90421DFF8D00A6A
