:020000040000FA
:020000040800F2
:10468C00806830F48070296888602868C06810F0F1
:10469C00800070F4C0702968C86005F081FE804607
:1046AC002868C068C00710D405F07AFEB0EB08008B
:1046BC0040F2E9318842F3D3FF2029684862032095
:1046CC0068770020287703205AE02868C0F81CA0DF
:1046DC00286847642868806850F48070296888606E
:1046EC002868806850F480502968886036E0286813
:1046FC00806830F40070296888602868C06810F001
:10470C00800070F420702968C86005F049FE80466E
:10471C002868C068800710D405F042FEB0EB080092
:10472C0040F2E9318842F3D3FF2029684862032024
:10473C00687700202877032022E02868C0F820A0A2
:10474C00286887642868806850F40070296888603D
:10475C002868806850F400502968886056480168C1
:10476C0051F4003101605548016851F40031016089
:10477C00FF202968486201206877002028770020F4
:10478C00BDE8F28F70B504000D00207F012801D127
:10479C0002205AE00120207702206077CA2021688D
:1047AC004862532021684862B5F5807F22D1206889
:1047BC00806830F48070216888602068806830F4EC
:1047CC0080502168886005F0EBFD06002068C06809
:1047DC00C00732D405F0E4FD801B40F2E931884279
:1047EC00F4D3FF20216848620320607700202077F3
:1047FC0003202AE02068806830F40070216888600B
:10480C002068806830F400502168886005F0C8FD8D
:10481C0006002068C06880070FD405F0C1FD801B1E
:10482C0040F2E9318842F4D3FF202168486203202A
:10483C00607700202077032007E0FF202168486282
:10484C000120607700202077002070BD10B5040097
:10485C0020688068C0040ED52068C068C0050AD5E1
:10486C00200007F097FB2068C06810F0800070F4FF
:10487C00C0702168C8602068806880040ED52068EC
:10488C00C06880050AD5200007F0A8FC2068C06825
:10489C0010F0800070F420702168C8605FF4003064
:1048AC00074908600120607710BD0000BFFF8FFF33
:1048BC007F7F7F003FFFFF000004014008040140A0
:1048CC001404014038B5040020688068800615D4B3
:1048DC002068C06830F0A0002168C86005F060FD59
:1048EC0005002068C068800608D405F059FD401BFF
:1048FC0040F2E9318842F4D3032000E0002032BDBD
:10490C0038B504002068C068400613D45FF0FF304F
:10491C002168C86005F044FD05002068C0684006A9
:10492C0008D405F03DFD401B40F2E9318842F4D338
:10493C00032000E0002032BD01000022080003002B
:10494C00DBB20A2B02D3521C0A38F8E750EA0210E9
:10495C00C0B270470200D2B212090A214A4310F0C9
:10496C000F008018C0B270472DE9FE4F04000D00F7
:10497C000020002600270021ADF804105FF001088C
:10498C005FF000095FF0000A21680978212901D144
:10499C0001218A465FF0000B584600B2A988884274
:1049AC0072DA20685146C9B2405C29685A4612B284
:1049BC00895C884265D1012080465046C0B2401CBB
:1049CC000600002081460020ADF80400300000B243
:1049DC00A18888424ADA2068310009B2405C7C2800
:1049EC001ED1BDF90400002804D10120814616EB2C
:1049FC000B00070001A800903B001BB22A0021000D
:104A0C00701C00B200F059F880464046C0B2012834
:104A1C0006D15146C9B2584600B200F03DF839E013
:104A2C004846C0B200280FD12068310009B2405C62
:104A3C0029685A4612B21144320012B2895C88427B
:104A4C0002D00020804611E04846C0B2002801D1B7
:104A5C00761CBBE73000BDF9041000B2884203DAC3
:104A6C00BDF904000600B1E7761CAFE74046C0B2C2
:104A7C00012806D15146C9B2584600B200F00CF8D4
:104A8C0008E01BF1010B87E75146C9B25FF0FF301C
:104A9C0000F002F8BDE8FE8F02000800C0B200284A
:104AAC0002D1100000B207E0100000B2002802D4BE
:104ABC005FF0FF3000E000207047F0B50500059E68
:104ACC0001200027AC460FFA8CFC3C0024B214EBFE
:104ADC000C0C8C88A4453DDA0C68AC460FFA8CFCA7
:104AEC006444BC460FFA8CFC14F80C407C2C03D1AB
:104AFC007C19348000B22EE0B2F804C09E460FFA46
:104B0C008EFE3C0024B214EB0E0EF44506DAB2F91C
:104B1C000440641C34805FF0FF3420000C68AC4609
:104B2C000FFA8CFC6444BC460FFA8CFC14F80C4055
:104B3C00D2F800C09E460FFA8EFEF444BE460FFA21
:104B4C008EFE1CF80EC0644502D05FF0FF342000CE
:104B5C007F1CB7E700B2F0BDF0B404001000C0B287
:104B6C00FF2801D188880200A5881000C0B2451921
:104B7C001800C0B2854201DB00201AE00025280095
:104B8C001600C0B2F6B2B0420DD22068A6883044EE
:104B9C002E00F6B20F68AC465FFA8CFC17F80C705E
:104BAC0087556D1CEBE7A6881000C0B28619A6804D
:104BBC000120F0BC7047F0B50400059D069EA0884E
:104BCC002818B04201DB002018E00027380080B222
:104BDC00A8420FDA0868BC461FFA8CFC6044C05C23
:104BEC00D4F800C0BE461FFA8EFEF4440CF8020046
:104BFC007F1CEBE7A0882818A0800120F0BD2DE9D0
:104C0C00FC4104000D0016002F687F1C206810F872
:104C1C0007807F1C14200190CDF800803B000022FF
:104C2C0021003000FFF7C7FF002801D1002008E069
:104C3C00B088C719A088B84201DA002001E02F60C3
:104C4C000120BDE8F68170B40200002318008C88A6
:104C5C0080B2A0420BD21068948820441C00A4B2ED
:104C6C000D681E00B6B2AD5D05555B1CEEE7948871
:104C7C00888804199480012070BC704738B50400F2
:104C8C00DFF87C5A2878002803D0022810D008D3EB
:104C9C0019E04FF4FA70DFF8B01B886000F09DFE4D
:104CAC0013E06420DFF8A01B886000F0ABFE0CE082
:104CBC000020287006F002F90121DFF88C0BFEF7BA
:104CCC007FFE01200BE0002028702878401C287003
:104CDC002100C9B2DFF8700BFEF781FE012032BD56
:104CEC0010B5040006F084F8012823D106F0E2F890
:104CFC0003280ED1DFF80C1A0220FDF730FBDFF889
:104D0C00480B42F2107181600021FEF768FE012011
:104D1C0017E006F044F9012805D10321DFF8280B30
:104D2C00FEF74EFE04E00120DFF8AC1A81F82001FA
:104D3C00012006E02100C9B2DFF80C0BFEF74FFE94
:104D4C00012010BD38B50400DFF8905A28780028EF
:104D5C0008D0022824D014D304283FD02FD3052800
:104D6C004BD051E0DFF8780A06F02EF9012807D174
:104D7C00DFF8701A0220FDF7F2FA2878401C287030
:104D8C0042E0DFF85C0A06F07FF9012807D1DFF872
:104D9C00BC1A0220FDF7E3FA2878401C287033E097
:104DAC00DFF8AC0A06F010F9012807D1DFF8A41AD5
:104DBC000220FDF7D4FA2878401C287024E0DFF894
:104DCC00900A06F061F9012807D1DFF88C1A02204D
:104DDC00FDF7C5FA2878401C287015E0DFF87C0A2E
:104DEC0006F0F2F8012807D1DFF8741A0220FDF75B
:104DFC00B6FA2878401C287006E00120DFF8D81994
:104E0C0081F82001012006E02100C9B2DFF8380A40
:104E1C00FEF7E5FD012032BD38B5040006F04AF876
:104E2C00012874D1DFF83C5A42F21070DFF81C1CD8
:104E3C00896CB0FBF1F0288006F048F8012812D1FB
:104E4C00DFF8F00A417801290DD1DFF8EC1A0A7865
:104E5C00521C0A700A782B8892B29A4203D3002211
:104E6C000A7000214170DFF8E80B418E808E814280
:104E7C0015D0DFF8C05A6878002810D1DFF8101B65
:104E8C000220FDF76CFA0020DFF8AC1A0870012044
:104E9C006870092006F0DAFC062000F0F5FADFF85D
:104EAC004009418E808E814215D0DFF8885A68788F
:104EBC00002810D1DFF8DC1A0220FDF750FA002090
:104ECC00DFF8741A087001206870032006F0BEFC2D
:104EDC00012000F0D9FADFF87809418E808E8142EA
:104EEC0015D0DFF8505A6878002810D1DFF8101B65
:104EFC000220FDF734FA0020DFF83C1A087001207C
:104F0C006870082006F0A2FC032000F0BDFA210016
:104F1C00C9B2DFF8380BFEF762FD012032BD3EB599
:104F2C00040005F0C7FF012859D1DFF8085A687B47
:104F3C00012854D1E888298988424CD0287B002844
:104F4C0006D0022810D004281AD0052824D02FE02F
:104F5C00DFF88C08818DADF80410C168EA88808D6B
:104F6C0000FB0211009123E0DFF8E408818DADF81D
:104F7C000410C168EA88808D00FB0211009117E0D3
:104F8C00DFF8D808818DADF80410C168EA88808DEF
:104F9C0000FB021100910BE0DFF8B40A818DADF833
:104FAC000410C168EA88808D00FB02110091FFE7B4
:104FBC0007208DF8060001208DF80700684605F0E3
:104FCC00E2FFE888401CE880E8886989884206D3BB
:104FDC000020E88003E000206873012006E0210037
:104FEC00C9B2DFF8680AFEF7FAFC01203EBD10B525
:104FFC00040005F0F6FE012010BDF8B500200024D9
:10500C0000252800C0B206283BDADFF8406A2800E9
:10501C00C0B2000130444078012830D12800C0B221
:10502C00042801D0012004002800C0B20001304443
:10503C00406800280ED005F0B3F92900C9B2090167
:10504C0031444968401A2900C9B2090131448968C0
:10505C00884214D300202900C9B209013144487098
:10506C0005F09EF92900C9B20901314448602800B5
:10507C00C0B22900C9B209013144C96888476D1C06
:10508C00BFE703F0FCF90600264307F024FA0700FB
:10509C00374305F0C7FC3843C0B2F2BD80B505F00C
:1050AC0095FC0021DFF8A007FEF799FCDFF8280734
:1050BC000FF23901C0F824110FF25111C0F8281168
:1050CC000FF27951C0F838110FF26941C0F82C1168
:1050DC000FF2E541C0F830110FF23151C0F8341124
:1050EC000FF6B501C0F83C1101BD000010B504006D
:1050FC002000C0B2002809D002282ED01DD30428CD
:10510C0052D041D3062870D058D37EE0DFF8441932
:10511C000220FDF724F9DFF8C80600F0A5FB0028F3
:10512C0005D11122DFF83019012000F028F90421F3
:10513C00DFF81809FEF753FC67E0DFF820190220AE
:10514C00FDF70DF90121DFF8980600F0CAFB0421E8
:10515C00DFF8F808FEF743FC57E0DFF804190220EB
:10516C00FDF7FDF8DFF8E80600F07EFB002805D11E
:10517C001122DFF8E418032000F001F90421DFF814
:10518C00CC08FEF72CFC40E0DFF8D8180220FDF725
:10519C00E6F80121DFF8B80600F0A3FB0421DFF8E4
:1051AC00AC08FEF71CFC30E0DFF8BC180220FDF761
:1051BC00D6F8DFF8A80600F057FB26E0DFF8AC18AD
:1051CC000220FDF7CCF8DFF8880800F04DFB002832
:1051DC0005D11122DFF88018062000F0D0F8042148
:1051EC00DFF86808FEF7FBFB0FE0DFF884180220FD
:1051FC00FDF7B5F80121DFF8580800F072FB042127
:10520C00DFF84808FEF7EBFBFFE710BD2DE9F84F80
:10521C0084B004000D00160003275FF0000B002083
:10522C005FF0000A5FF00108DFF8AC154A680092E5
:10523C000989ADF8041000994978009A92F8029007
:10524C0019EB01293100C9B2002904D0022900F060
:10525C008C8078D390E02000C0B201280AD10320C2
:10526C0007004846DFF87815898D80B2884201D353
:10527C00002080462000C0B203280AD10820070075
:10528C004846DFF8CC15898D80B2884201D30020C6
:10529C0080462000C0B206280AD1092007004846E3
:1052AC00DFF8AC17898D80B2884201D3002080468C
:1052BC004046C0B2012821D10098C01C0290ADF824
:1052CC000C9000208346584680B2494689B2C91CCE
:1052DC00884208DA0098594689B2405C90EA0A0A7A
:1052EC001BF1010BEFE7504600994A4692B211446C
:1052FC00C978C0B2884201D0002080464046C0B276
:10530C00012816D1DFF86C170320FDF728F8BDF83B
:10531C000C2002990320FDF730F8A6A10320FDF71D
:10532C001EF8BDF80C2002993800C0B206F05DFAE8
:10533C0008E0DFF844170220FDF766F82000C0B241
:10534C0000F052FA18E0484680B2B0F5807F01DBDD
:10535C00FC2081460098C01C0290ADF80C90BDF862
:10536C000C10029800F0C0F906E0BDF8042000997A
:10537C00280000F0B9F8FFE705B0BDE8F08F2DE983
:10538C00F047C2B004000D0016005FF000080020CA
:10539C005FF0000A0027002140918DF80441AA21FA
:1053AC006A4643469BB2D15418F10108310089B2C8
:1053BC00090A6A4643469BB2D15418F10108694662
:1053CC00424692B28E5418F10108002108003200B6
:1053DC0080B292B290420AD2080080B2285C6A462F
:1053EC0043469BB2D05418F10108491CEEE720004B
:1053FC00C0B2002809D002280CD006D304280ED045
:10540C0008D3062810D00FD313E0DFF8D403808D17
:10541C0007000EE0DFF83804808D070009E0DFF8A4
:10542C003C04808D070004E0DFF82406808D070023
:10543C00FFE7380080B2401E424692B2904201DA39
:10544C00781E804618F101085FF00009484680B2CA
:10545C00414689B2491E884208DA6846494689B2F3
:10546C00405C90EA0A0A19F10109EFE768464146E7
:10547C0089B2084400F801ACADF80681684605F025
:10548C0092FD42B0BDE8F0871CB504002000C0B20C
:10549C00012806D003280AD004280ED0062812D0E2
:1054AC0017E0DFF83C03808DADF8040011E0DFF865
:1054BC00A003808DADF804000BE0DFF8A003808D15
:1054CC00ADF8040005E0DFF88805808DADF8040028
:1054DC00FFE78DF806400020009000208DF80700B3
:1054EC00684605F050FD13BD70B504000D001600A4
:1054FC00BA480078002806D0022804D00BD3042820
:10550C0001D008D30FE00023320092B22900200012
:10551C0005F0F2FC07E00123320092B229002000D2
:10552C0005F0EAFCFFE70321DFF82005FEF748FA57
:10553C0070BD000010B504000020A849087005F0EB
:10554C002EFD01282FD02000C0B2002806D0022842
:10555C000DD0042814D005281BD024E0DFF81C152E
:10556C000220FCF7FCFE9E4800F07EF91BE0DFF801
:10557C0010150220FCF7F3FEB54800F075F912E0A7
:10558C00DFF800150220FCF7EAFEB44800F06CF9D5
:10559C0009E0DFF8F4140220FCF7E1FEDFF8B004B8
:1055AC0000F062F9FFE70021DFF8A004FEF708FA2B
:1055BC0010BD00000D0A000010B5894C0021E069F7
:1055CC00FDF72AF80021206AFDF726F8A04C0021EF
:1055DC00E069FDF721F80021206AFDF71DF89F4CCA
:1055EC000021E069FDF718F80021206AFDF714F896
:1055FC00DFF85C440021E069FDF70EF80021206A19
:10560C00FDF70AF8FCF79BFB10BD000080B5DFF836
:10561C007C140220FCF7F8FE01BD10B5040005F067
:10562C00BEFC012809D1200507D16B48002180F868
:10563C001C11C0F8184105F0CDFB10BD10B40300CF
:10564C0000201A00D2B2002A0BD0022A1BD00CD395
:10565C00042A2AD01BD3062A30D02AD3072A3DD0BD
:10566C0040E05F4A126810003CE00A00D2B2002A07
:10567C0005D15B4A54689268A41A200002E0584A8B
:10568C00526810002EE0724A126810002AE00A00DC
:10569C00D2B2002A05D16E4A54689268A41A20002E
:1056AC0002E06B4A526810001CE06C4A1268100051
:1056BC0018E0DFF89C231268100013E00A00D2B245
:1056CC00002A06D1DFF8882354689268A41A2000B7
:1056DC0003E0DFF87C235268100003E05FF0FF3238
:1056EC001000FFE710BC704738B504000D00002314
:1056FC002A0092B221008F480079FCF76AFB31BD79
:10570C00BB4400200C3901082DE9F04104000D00C8
:10571C00002600275FF00008280080B2002854D033
:10572C0005F0C8FB012850D12000C0B2002805D0DC
:10573C00022813D00AD3032818D01FE02848818EE2
:10574C00884600210F00C08D060017E04048818E6E
:10575C00884602210F00C08D06000FE03F48818E65
:10576C00884604210F00C08D060007E0B848818EE2
:10577C00884605210F00C08D0600FFE72800310088
:10578C0080B289B2884220D26A4801214173C04953
:10579C00097801710773A0F80880468101892A00F5
:1057AC0092B2914203D30189491BC18003E0018964
:1057BC008919491BC18005212348FEF701F9B54918
:1057CC000220FCF7CCFD012004E0B3490220FCF7D9
:1057DC00C6FD0020BDE8F081B8070020F043002092
:1057EC007C0A00202035010810B504002000C0B24E
:1057FC00012804D003280ED0062818D023E001215C
:10580C00A64800F09BF8002804D10E22A4490120E0
:10581C00FFF7B5FD17E001210D4800F08FF80028C7
:10582C0004D10E229E490120FFF7A9FD0BE00121B6
:10583C00874800F083F8002804D10E2298490120F3
:10584C00FFF79DFDFFE710BDF8030020443501086C
:10585C00B40A0020683501088C350108EC0A0020D8
:10586C00B0350108A244002038B504000125A08EF3
:10587C00401CE18D90FBF1F201FB1200A086E16867
:10588C00A28EA08D00FB0211216005F088FB01287F
:10589C0003D12068FFF7C1FE03E0A18E206AFCF75C
:1058AC00BBFEA08E618E884218D105F078FB0128D2
:1058BC0002D10020050011E0608E401CE18D90FBB0
:1058CC00F1F201FB120060866169628EA08D00FB13
:1058DC0002116160618EE069FCF79EFE2800C0B287
:1058EC0032BD38B504000D00002012494870608E9E
:1058FC00A18E88421BD0618E2800C0B24118E08D69
:10590C0091FBF0F200FB121161866169628EA08D31
:10591C0000FB0211616005F042FB012803D16068B5
:10592C00FFF77BFE03E0618EE069FCF775FE01205A
:10593C0032BD0000E0430020BC44002070B50400E0
:10594C000D000126002057494870608EA18E8842B8
:10595C001AD005F024FB012802D10020060013E028
:10596C00618E2800C0B24118E08D91FBF0F200FB73
:10597C00121161866169628EA08D00FB021161605B
:10598C00618EE069FCF748FE3000C0B270BD0000CB
:10599C00D4350108F8350108F8B504000D001600DF
:1059AC0003202100C9B2002904D0022904D0052902
:1059BC0004D005E0032704E0082702E0092700E0F3
:1059CC000AE039490320FCF7CAFC321F92B2E91CE9
:1059DC003800C0B205F009FFF1BD10B501224FF43B
:1059EC008051324801F076FA314C002240212000DF
:1059FC0001F070FA00228021200001F06BFA10BD3A
:105A0C001C36010810B52A4C01228021200001F01F
:105A1C0061FA01224021200001F05CFA00224FF4CF
:105A2C008051224801F056FA06F0B0FD10BD1B481B
:105A3C00418E808E814204D11E48418E808E8142DF
:105A4C0001D0012000E0002070470000F803002086
:105A5C00240B002040360108203E01086436010862
:105A6C0088360108AC360108D0360108F436010836
:105A7C00183701083C370108543201086037010817
:105A8C0084370108A8370108CC370108F037010822
:105A9C00BF440020C8480108143801087C0A0020C3
:105AAC0034410108E04300207C320108000402402C
:105ABC0000080240B40A002010B504000421DFF8ED
:105ACC00D80AFDF77DFFDFF8D41A0878002810D12A
:105ADC00012008700B21DFF8C80AFDF740F80121FE
:105AEC00DFF8C00AFDF73BF80221DFF8F00CFDF7F8
:105AFC0036F8012010BD10B5DFF8AC0A0078C0B242
:105B0C00AA2811D1DFF8A44ADFF8A40A00F01EFE7F
:105B1C002080DFF8A00A00F019FE6080DFF8980AF8
:105B2C0000F014FEA08007E0DFF8800AC821018095
:105B3C000021418001218180DFF8700A8188408832
:105B4C00814204D00120DFF8201D887003E0002082
:105B5C00DFF8141D8870012010BD10B5DFF8D80BCC
:105B6C000078C0B2AA2814D1DFF8084DDFF8CC0BAE
:105B7C0000782070DFF8C80B00786070DFF8C40B79
:105B8C0000F0E4FD6080DFF8C00B00F0DFFDA080CA
:105B9C000AE0DFF8E00C01210170FF21417040F2B6
:105BAC00EB314180DD218180012010BD70B5DFF823
:105BBC00040C0078C0B2AA285CD0DFF8FC4B2A2277
:105BCC0000212000FCF7AEFB002500200100C9B22B
:105BDC00042934DA0621DFF8082C0300DBB24B432E
:105BEC0013445B78012B28D10300DBB24B431344E5
:105BFC005B889BB21B0A2E00F6B2A3550300DBB2E6
:105C0C004B4313445B882E00F6B22644737003009A
:105C1C00DBB24B4313449B889BB21B0A2E00F6B29B
:105C2C002644B3700300DBB201FB03F111448988F5
:105C3C002A00D2B22244D1702D1D401CC6E7280088
:105C4C00C0B2042190FBF1F201FB1200002809D034
:105C5C002800C0B20421EDB245192A0090FBF1F5E1
:105C6C0001FB15252A00D2B292B22100DFF8440BB9
:105C7C0002F006FDDFF8F44BDFF8F40B00F066FDE4
:105C8C002080DFF8FC0B00F061FD6080012070BD0E
:105C9C002DE9F0410400DFF8E05B2878002810D0F3
:105CAC002878052804DA0021022000F074F906E0B7
:105CBC002878052803D10021022000F0A9F9002042
:105CCC002870DFF8B85B287C01280FD100202874DD
:105CDC0006226969DFF8600A02F0D2FCFFF73DFF8B
:105CEC000023062269690220FCF773F8287E01283C
:105CFC000FD1002028760622E969DFF8AC0802F003
:105D0C00BFFCFFF7F8FE00230622E9690220FCF72E
:105D1C0060F895F8200001287DD1002085F820003E
:105D2C00686A4078696A0978884274D3686A4078EE
:105D3C000A2870DADFF8806A2A2200213000FCF78A
:105D4C00F1FA0027DFF8288B0120696A49780200F4
:105D5C00D2B291423CD301006A6A1278C9B2914224
:105D6C0017D1696A89783A00D2B2B154696AC97894
:105D7C003A00D2B232445170696A09793A00D2B20F
:105D8C0032449170696A49793A00D2B23244D17086
:105D9C0019E098F800103A00D2B2B15418F1010190
:105DAC0009783A00D2B23244517018F102010978E4
:105DBC003A00D2B23244917018F1030109783A00DA
:105DCC00D2B23244D1703F1D18F10408401CBCE71C
:105DDC003800C0B2042190FBF1F201FB1200002844
:105DEC0009D03800C0B20421FFB2C7193A0090FBA9
:105DFC00F1F701FB17273A00D2B292B23100DFF86B
:105E0C00B40902F03DFC00233A00D2B292B2310048
:105E1C000220FBF7DEFF287A012840F0B480002036
:105E2C0028720026DFF87C7B4FF48072002138004A
:105E3C00FCF778FADFF8701B0020888501208A8D2A
:105E4C00B854888D401C888506208A8DB854888D5E
:105E5C00401C8885DFF8540B82798B8DFA548A8D1F
:105E6C00521C8A8542798B8DFA548A8D521C8A85F4
:105E7C0002798B8DFA548A8D521C8A8502788B8D0F
:105E8C00FA548A8D521C8A8542788B8DFA548A8DED
:105E9C00521C8A8580788A8DB854888D401C8885E0
:105EAC0028208A8DB854888D401C888502208A8DC4
:105EBC00B854888D401C8885688880B2000A8A8D09
:105ECC00B854888D401C888568888A8DB854888D14
:105EDC00401C888528798A8DB854888D401C88850B
:105EEC00D4208A8DB854888D401C888501208A8DD9
:105EFC00B854888D401C8885DFF86C0900788A8D31
:105F0C00B854888D401C88850E208A8DB854888D95
:105F1C00401C888504208A8DB854888D401C888547
:105F2C00E868000E8A8DB854888D401C8885E86816
:105F3C00000C8A8DB854888D401C8885E868000A4E
:105F4C008A8DB854888D401C8885E8688A8DB85431
:105F5C00888D401C8885888D401C88850022100007
:105F6C00C0B28B8D5B1E984205DA1000C0B2385C53
:105F7C004640521CF3E7888D384400F8016C012030
:105F8C00DFF82C1A88630121DFF80C06FDF727FDDA
:105F9C000120BDE8F08178B58FB004000D003722E8
:105FAC00002101A8FDF702FD0020ADF80000DFF88C
:105FBC00C8683078012802D03078042805D16A46A8
:105FCC0001A9DFF8740700F04FF83078022802D0EE
:105FDC003078042805D16A4601A9DFF8CC0500F019
:105FEC0043F83078032802D03078042805D16A466B
:105FFC0001A9DFF8C00700F037F80023BDF8002036
:10600C0001A92000C0B2FBF7E4FE012010B070BD66
:10601C0070B58EB004000D00372200216846FDF7E4
:10602C00C5FC0026DFF840086946027833009BB2B5
:10603C00CA54761C427833009BB2CA54761C8278C0
:10604C0033009BB2CA54761CC078320092B288548A
:10605C00761C0023320092B269462000C0B2FBF7D6
:10606C00B8FE01200EB070BD30B403001088441C83
:10607C0014801C7880B20C541088441C14805C1C56
:10608C00247880B20C54581C0078C0B2002813D06D
:10609C0001205C1C24780500E4B2EDB2AC420BD3B9
:1060AC001488651C15800500EDB2ED186D1C2D785B
:1060BC00A4B20D55401CECE7012030BC7047F8B57C
:1060CC000400DFF81C592878002803D0012800F0C0
:1060DC009C803AE1DFF8A427107801282ED1002605
:1060EC00D2E9000100F06AFB0700DFF88807DFF84F
:1060FC00F41800913B009BB242880621007800F016
:10610C00C1FCDFF86417887801280BD1C878002807
:10611C0004D1DFF898048088087103E0DFF88C0460
:10612C00408808710020DFF8C01808700120287022
:10613C0004F036F9DFF8B418086065E0DFF82807DA
:10614C000179FF291FD08178012919D1DFF8941822
:10615C00009103799BB2DFF8540402880621DFF822
:10616C001407007800F08EFC0120DFF87C18087012
:10617C000120287004F014F9DFF87018086043E06F
:10618C00FF21017140E004F00BF9DFF86068316821
:10619C00401A41F28931884236D3DFF8E0783878FA
:1061AC0000280BD1DFF8CC06DFF83818009101235A
:1061BC0082880321007800F065FC20E0DFF8C0083D
:1061CC000078C0B200280DD0DFF818080090012329
:1061DC00DFF8980602880321DFF89806007800F0B3
:1061EC0051FC0CE0DFF88C06DFF8F8170091012366
:1061FC0082880321007800F045FC002038700120D3
:10620C00287004F0CDF83060ABE004F0C9F8DFF88A
:10621C00DC170968401AB0F57A7F80F08E8000F0A8
:10622C00E1FA012840F09080DFF8F068B188891E0F
:10623C00306806F009FA01003068B288104410F892
:10624C00010C3268B3881A4412F8022C52EA00226C
:10625C000800130080B29BB2984265D13068407838
:10626C00862848D030684078832844D030684078FD
:10627C0003282DD10023306887783800C0B200285D
:10628C000FD0D6F800C0B6F804E0BEF1020E38000C
:10629C00C0B2BEEB000E1CF80E0050EA03237F1EAA
:1062AC00EBE7DFF8D8673078002805D10120307093
:1062BC00DFF8B405C3802CE000203070DFF8AC05AB
:1062CC004088834225D00120DFF89C65707020E067
:1062DC003068407806281CD1DFF80C0700780028BD
:1062EC0004D10020DFF89435187012E0FF20DFF89D
:1062FC00783518710DE0DFF8F0060078002804D12D
:10630C000020DFF87835187003E0FF20DFF85835EF
:10631C001871002028700120DFF84C35187000200F
:10632C00DFF8183818700FE02878401C2870DFF858
:10633C000C0803785B1C037006E000202870DFF863
:10634C00FC070178491C01700BE004F029F8DFF818
:10635C009C160968401A40F2E931884201D30020AA
:10636C002870DFF8D8070078032805DBDFF8F8047D
:10637C00002101700021C1800120F2BD7CB5040018
:10638C00DFF8BC576878012859D1DFF8F014087C85
:10639C0000285CD191F82000002858D1087E0028F4
:1063AC0055D1DFF8A0673078002810D10121DFF833
:1063BC00C404007800F052F803217748FDF721FB64
:1063CC0003F0EEFFDFF8801708600120307003F057
:1063DC00E7FFDFF874170968401A42F2107188421F
:1063EC001BD20021DFF88C04007800F037F801286C
:1063FC002DD1DFF87864DFF8780400F0A7F930804D
:10640C00DFF87C0400F0A2F9708000206870DFF8DF
:10641C003C170220FBF7A3FF19E000203070A8788E
:10642C00012814D161480FF2E96100914388028878
:10643C000621DFF84004007800F024FB07E0002080
:10644C00DFF80017087003215348FDF7B9FA210053
:10645C00C9B25148FDF7C3FA012076BD2DE9F041D0
:10646C0004000D00DFF808642800C0B2012809D12F
:10647C000020DFF8DC1608700020DFF8D816087052
:10648C00002044E0DFF8C8763878DFF8F415097896
:10649C00C9B2042291FBF2F1884207D10020387076
:1064AC000020DFF8B0160870012030E0DFF8A48679
:1064BC0098F80000002813D1012088F800003878E3
:1064CC0016EB800000F042F9DFF88C160880387863
:1064DC0016EB8000801C00F039F9DFF8801608807C
:1064EC0098F80000012811D1DFF870060288DFF857
:1064FC00680601882000C0B200F060F8012805D1C0
:10650C00002088F800003878401C38700020BDE866
:10651C00F08170B50020002400252800C0B20528A9
:10652C0036DA1D4E2800C0B20001304440780128F4
:10653C002CD1012004002800C0B200013044406876
:10654C0000280ED003F02CFF2900C9B209013144F8
:10655C004968401A2900C9B2090131448968884246
:10656C0014D300202900C9B209013144487003F04A
:10657C0017FF2900C9B20901314448602800C0B294
:10658C002900C9B209013144C96888476D1CC4E7A8
:10659C002000C0B270BD000004030020B1440020F4
:1065AC00FC0400208C10002000F80308404400205C
:1065BC0002F8030804F8030806F803082DE9F84369
:1065CC0004000D0016000027DFF8948598F80000F1
:1065DC00002802D0012817D092E00FF2355000901D
:1065EC0033009BB22A0092B206212000C0B200F008
:1065FC0049FA03F0D5FEDFF86C15086098F8000036
:10660C00401C88F8000088E003F0CAFEDFF854153F
:10661C000968401A64286AD200F0E4F801286ED1A7
:10662C00DFF8F894B9F80410891ED9F8000006F0C8
:10663C000BF8D9F80010B9F80420114411F8012C0A
:10664C00D9F80010B9F80430194411F8021C51EAB9
:10665C000221D9F80020B9F804301A4412F8063C8B
:10666C00D9F80020B9F804C0624412F8052C52EA9B
:10667C0003220B0084469BB21FFA8CFC634528D185
:10668C0098F800305B1C88F800302300D9F800C063
:10669C009CF800C0DBB2634510D1D9F800305B78B0
:1066AC00062B0BD12B0094469BB21FFA8CFC634536
:1066BC0004D101231F00002388F800300123DFF8E8
:1066CC0080C48CF800300023DFF89CC48CF80030B8
:1066DC0015E098F800305B1C88F80030DFF888343F
:1066EC0093F800C01CF1010C83F800C007E00020F7
:1066FC0088F80000DFF870040178491C01700CE088
:10670C0003F04EFEDFF85C140968401A40F2E931E0
:10671C00884202D3002088F80000DFF84C0400788F
:10672C00032805DBDFF81804002101700021C1806B
:10673C003800C0B2BDE8F28300F7030802F7030883
:10674C0003F7030804F7030806F703080100002207
:10675C000B78481C0078C0B250EA032080B2704716
:10676C0001000800C0B2002801D1012021E008007E
:10677C00C0B2FF2801D10A201BE00800C0B2FE28DD
:10678C0001D1642015E00800C0B2FD2802D14FF4FD
:10679C007A700EE00800C0B2FC2802D142F21070F0
:1067AC0007E00800C0B2FB2802D1DFF8C00300E00C
:1067BC000120704700F903080042002013B5BDF812
:1067CC0002402C484078FFF7CBFF44439DF804006F
:1067DC00FFF7C6FFB4FBF0F080B216BD8A100020A4
:1067EC0054030020F8B50024DFF83053A8880028A3
:1067FC0033D0DFF87C63308800280BD103F0D0FD58
:10680C00DFF870130860A888DFF86C13088001208B
:10681C00308026E003F0C4FDDFF858633168401A7D
:10682C0006280ED3DFF850733888A988884202D125
:10683C000120040015E003F0B3FD3060A888388017
:10684C000FE0DFF834733888A988884209D003F048
:10685C00A7FD3060A888388003E00020DFF8101313
:10686C0008802000C0B2F2BD6C0300205844002008
:10687C0002F9030838440020B044002074030020BF
:10688C0004F9030870B40200002000210023012445
:10689C000500EDB25455401C06240500EDB25455CC
:1068AC00401C424CA5790600F6B29555401C657902
:1068BC000600F6B29555401C25790600F6B29555A2
:1068CC00401C25780600F6B29555401C65780600EC
:1068DC00F6B29555401CA4780500EDB25455401CF9
:1068EC0028240500EDB25455401C02240500EDB2DD
:1068FC005455401CDFF84842E588ADB22D0A06001D
:10690C00F6B29555401CE5880600F6B29555401C2C
:10691C00DFF868526D780600F6B29555401CD42508
:10692C000600F6B29555401C01250600F6B29555A9
:10693C00401C24780500EDB25455401C0824050079
:10694C00EDB25455401C02240500EDB25455401CC8
:10695C00DFF82C42A5682D0A0600F6B29555401CAE
:10696C00A4680500EDB25455401C00240500EDB29E
:10697C005455401C401C0024210089B20500EDB286
:10698C006D1EA94205DA210089B2515C4B40641C92
:10699C00F2E70100C9B2114401F8013CC0B270BC6D
:1069AC0070470000A03A00205C0B0020144400202B
:1069BC00A03C002038B5C0B04FF48072002168466E
:1069CC00FCF7F4FF00246846FFF75CFF05002A0083
:1069DC00D2B292B269460020FEF7D1FC41B030BD74
:1069EC00B24400201D6B0008B54400205C4400201C
:1069FC0038B590B0402200216846FCF7D7FF002440
:106A0C006846AA212200D2B28154641C5E4991F8D6
:106A1C004E20521C2300DBB2C254641C91F84E2051
:106A2C002300DBB2C254641C0022130091F84E50B8
:106A3C00DBB2AB4209D21300DBB20B449B792500CD
:106A4C00EDB24355641C521CEFE74E4D280001F08B
:106A5C00CDFD40226946280001F086FD11B030BD05
:106A6C0080B5FFF77AF8FFF7A1F8FFF744F8012299
:106A7C004FF48071454800F02DFA01BDB44400205C
:106A8C0001F903082DE9F0438FB004000D00160046
:106A9C001F00DDF858802000C0B2002835D020003F
:106AAC00C0B2802831DA3022002103A8FCF77EFF27
:106ABC00374AD2E90001CDE9010103A80190380061
:106ACC0080B2009033009BB22A00D2B22100C9B22E
:106ADC0001A805F0D7FDDFF8BC9001224FF48071BE
:106AEC00484600F0F7F90A2005F07AF9C0474FF450
:106AFC007A73BDF808200199274800F06BFA002240
:106B0C004FF48071484600F0E5F90FB0BDE8F08312
:106B1C0080B50248FBF77DFB01BD0000F0030020AF
:106B2C0010B504001D490220FBF719FCFDF72EFAE5
:106B3C00FFF740FF012010BD00000000B34400200F
:106B4C006C030020B644002060440020FC34010893
:106B5C00B7440020B84400209A4400209C440020F4
:106B6C00B944002064440020BA440020A0860100EF
:106B7C00A0440020684400209E440020384400209B
:106B8C00A80B002000DF03089C0300200008024033
:106B9C00C04801080000024058400020103B01088A
:106BAC00F8B402000B000024002000251968E14015
:106BBC00002900F0D78001261F6816FA04F10F4057
:106BCC003800002800F0CC80197911F0030101295C
:106BDC0004D0197911F0030102291DD197685FF0D7
:106BEC00030C2100C9B249001CFA01FC37EA0C075E
:106BFC00D3F80CC02100C9B249001CFA01FC5CEAB4
:106C0C00070797605168A640B1435E68C6F300164B
:106C1C00A64031430D005560197911F00301032989
:106C2C000ED0D66803272100C9B249008F40BE435D
:106C3C009F682100C9B249008F403E433500D560A2
:106C4C00197911F00301022918D12100C90802EBAE
:106C5C0081010E6A0F2714F00701C9B289008F4019
:106C6C00BE431F6914F00701C9B289008F403E432F
:106C7C0035002100C90802EB81010D62166803275B
:106C8C002100C9B249008F40BE431F7917F003079A
:106C9C002100C9B249008F403E4335001560596848
:106CAC0011F4403F5CD092490E6856F001060E601C
:106CBC00096811F00101009100998E4F210089089B
:106CCC0057F821605FF00F0C14F00301C9B2890072
:106CDC001CFA01FC36EA0C0687498A4201D10025D0
:106CEC0014E086498A4201D101250FE084498A4289
:106CFC0001D102250AE083498A4201D1032505E02E
:106D0C0081498A4201D1042500E0052514F00301D4
:106D1C00C9B289008D402E432100890847F82160B3
:106D2C007A4D296881435F68FF0300D501432960D0
:106D3C00774E356885435F68BF0300D505433560E2
:106D4C00744E316881435F68FF0200D501433160A6
:106D5C00714E356885435F68BF0200D505433560C9
:106D6C00641C23E7F1BC70472DE9F04103000A00D5
:106D7C000024002000251100E140002900F0A8802B
:106D8C00012616FA04F111400800002800F09E803C
:106D9C00DFF860C1210089085CF821100F2714F07E
:106DAC00030E5FFA8EFE5FEA8E0E17FA0EFE1EEAD7
:106DBC0001010D0050498B4202D15FF0000E19E029
:106DCC004E498B4202D15FF0010E13E04C498B42CD
:106DDC0002D15FF0020E0DE04A498B4202D15FF006
:106DEC00030E07E048498B4202D15FF0040E01E02C
:106DFC005FF0050E14F00301C9B289001EFA01FE02
:106E0C0075452CD14149D1F800E03EEA000EC1F89D
:106E1C0000E03F49D1F800E03EEA000EC1F800E086
:106E2C003C49D1F800E03EEA000EC1F800E03A49D6
:106E3C00D1F800E03EEA000EC1F800E014F00301C6
:106E4C00C9B2890017FA01F10D00210089085CF81C
:106E5C002110A943A6465FEA9E0E4CF82E105FF057
:106E6C00030C1968A6465FFA8EFE5FEA4E0E1CFAFA
:106E7C000EFE31EA0E0119602100C90803EB810EE8
:106E8C002100C90803EB8101D1F8208014F007011F
:106E9C00C9B289008F4038EA0707CEF82070D9684C
:106EAC002700FFB27F001CFA07F7B943D960596875
:106EBC00A64031EA06065E609E682100C9B2490010
:106ECC001CFA01FC36EA0C0CC3F808C0641C52E72F
:106EDC00BDE8F0811300DBB2002B03D00B009BB29A
:106EEC00836103E00B009BB21B04836170470000BD
:106EFC00203802400800014000000240000402401B
:106F0C0000080240000C0240001002400004014046
:106F1C0004040140080401400C04014010B50400B5
:106F2C00002C01D1012033E0A0690028FFD194F896
:106F3C003D00002805D1002084F83C00200000F022
:106F4C005DFF242084F83D002068C06830F40050B8
:106F5C002168C860200000F023FB2068006930F431
:106F6C009040216808612068406930F02A0021684F
:106F7C0048612068C06850F400502168C860002047
:106F8C002064202084F83D00202084F83E0000205E
:106F9C0010BD10B50400002C01D1012019E02420F3
:106FAC0084F83D002068C06830F400502168C86047
:106FBC00200000F0BBFF00202064002084F83D007E
:106FCC00002084F83E0000202063002084F83C0060
:106FDC00002010BD2DE9FC4706000D001700984657
:106FEC00002496F83D0020285DD1002D03D03800F8
:106FFC0080B2002801D1012056E096F83C0001280F
:10700C0001D1022050E0012086F83C0000203064C1
:10701C00212086F83D0003F0C3F98146B784F7843C
:10702C00B068B0F5805F05D13069002802D100242A
:10703C00AA4602E02C005FF0000A002086F83C0013
:10704C00F08C00281ED0CDF800804B460022802109
:10705C00300000F070F9002801D0032024E0002C4F
:10706C0008D1BAF80000C005C00D316848601AF1AB
:10707C00020A03E0207831684860641CF08C401EE2
:10708C00F084DDE7CDF800804B4600224021300033
:10709C0000F051F9002801D0032005E0202086F8EB
:1070AC003D00002000E00220BDE8F68770B5050029
:1070BC000C00160095F83E00202819D1002C03D0A6
:1070CC00300080B2002801D1012012E095F83C007C
:1070DC00012801D102200CE0012085F83C000020A1
:1070EC002863320092B22100280000F05BF900E026
:1070FC00022070BD2DE9FC47060030680768306837
:10710C00D0F80C803068D0F814900020002517F0CF
:10711C000F04002C08D1B80606D55FEA886003D5A9
:10712C00300000F0CCF904E1002C77D05FEAC97094
:10713C0002D418F4907F71D017F00100C0B200286F
:10714C0006D05FEAC85003D5306C50F001003064B3
:10715C00780708D519F00100C0B2002803D0306CB4
:10716C0050F002003064B80708D519F00100C0B225
:10717C00002803D0306C50F00400306438070BD575
:10718C005FEA886004D419F00100C0B2002803D073
:10719C00306C50F008003064306C00283DD0B806DC
:1071AC0005D55FEA886002D5300000F088F93068B8
:1071BC004069800910F001000500306C000701D413
:1071CC00002D25D0300000F00FF9306840694006E2
:1071DC001AD53068406930F0400031684861B06BB6
:1071EC0000280DD00FF23920B16B4863B06B05F05D
:1071FC00C1FA002811D0B06BB16B496B88470CE019
:10720C00300005F0E6FA08E0300005F0E2FA04E0A0
:10721C00300005F0DEFA002030648AE0306B012883
:10722C0075D1F80673D55FEAC86070D50020009060
:10723C0030680068009030684068009000983068B2
:10724C00406940063AD5B06B0068D0F804A05046AF
:10725C0080B2002831D05046B18D80B288422CD2F9
:10726C00A6F82EA0B06B806920281FD03068C068AB
:10727C0030F480703168C860306840694008400064
:10728C00316848613068406930F0400031684861CD
:10729C00202086F83E00002030633068C06830F053
:1072AC0010003168C860B06B05F03AFAB18DF08D02
:1072BC00091A89B2300005F08DFA3AE0B08DB6F8B3
:1072CC002EA0B0EB0A0AF08D00281FD0504680B2D9
:1072DC0000281BD03068C06830F490703168C860EA
:1072EC00306840694008400031684861202086F8C9
:1072FC003E00002030633068C06830F01000316808
:10730C00C860514689B2300005F064FA11E03806C5
:10731C0006D55FEA086003D5300000F08DF808E070
:10732C00780606D55FEA486003D5300000F0B7F860
:10733C00FFE7BDE8F3872DE9F04105000E0090460C
:10734C001F00069C286800683040B04201D1012023
:10735C0000E000204146C9B2884220D114F1010F4F
:10736C00F0D0002C04D003F01BF8C01B8442E9D2EF
:10737C002868C06830F4D0702968C86028684069F3
:10738C004008400029684861202085F83D002020F5
:10739C0085F83E00002085F83C00032000E000202A
:1073AC00BDE8F08110B4030099629A85DA8500205B
:1073BC001864222083F83E00002083F83C001868F3
:1073CC00C06850F480701C68E0601868406950F028
:1073DC0001001C6860611868C06850F020001C68CF
:1073EC00E060002010BC70470168C96831F49071EE
:1073FC000268D16001684969490849000268516115
:10740C00016B012905D10168C96831F010010268CE
:10741C00D160202180F83E100021016370470000EC
:10742C0038B50400656A0020E8850020E88428004F
:10743C0005F0CFF931BD0000010091F83D00212885
:10744C002BD18868B0F5805F0DD1086900280AD16E
:10745C00086A02001088C005C00D0B685860086AE5
:10746C00801C086205E0086A431C0B6200780B68FC
:10747C005860C88C401EC88480B200280BD10868A4
:10748C00C06830F080000B68D8600868C06850F0A5
:10749C0040000B68D860002000E00220704710B557
:1074AC0004002068C06830F040002168C8602020CB
:1074BC0084F83D00200005F08EF9002010BD7CB54D
:1074CC00040094F83E00222868D1A068B0F5805FD3
:1074DC000DD1206900280AD10025A66A20684068D1
:1074EC00C005C00D3080A06A801CA06217E0A56AA0
:1074FC000026A068B0F5805F05D0A068002806D1F2
:10750C002069002803D120684068287004E02068B6
:10751C00406810F07F002870A06A401CA062E08DCB
:10752C00401EE08580B2002836D12068C06830F05B
:10753C0020002168C8602068C06830F48070216821
:10754C00C8602068406940084000216848612020DC
:10755C0084F83E00206B012819D10020206320689C
:10756C00C06830F010002168C86020680068C00650
:10757C0008D50020009020680068009020684068C2
:10758C0000900098A18D200005F024F902E0200065
:10759C0000F07AFB002002E0002000E0022076BD23
:1075AC00F8B504002068016931F44051E0680143EA
:1075BC0020680161A5682069054360690543E0699D
:1075CC0005432068C1685148014029432068C160C7
:1075DC002068416931F44071A06901432068416120
:1075EC0020684B49884202D105F0B9FC01E005F056
:1075FC00ABFCE169B1F5004F44D16421192202FBC7
:10760C0000F366687600B3FBF6F36426B3FBF6F37F
:10761C0002FB00F667687F00B6FBF7F602FB00F78B
:10762C00D4F804C05FEA4C0CB7FBFCF75FF0640CB9
:10763C00B7FBFCF701FB1766F60032366427B6FB86
:10764C00F7F6760016F4F87616EB031602FB00F349
:10765C0067687F00B3FBF7F302FB00F267687F00FB
:10766C00B2FBF7F26427B2FBF7F201FB1231C9004F
:10767C0032316422B1FBF2F111F007018E1921684D
:10768C008E6042E06421192202FB00F36668B600AA
:10769C00B3FBF6F36426B3FBF6F302FB00F6676864
:1076AC00BF00B6FBF7F602FB00F7D4F804C05FEAA4
:1076BC008C0CB7FBFCF75FF0640CB7FBFCF701FB21
:1076CC001766360132366427B6FBF7F616F0F0066D
:1076DC0016EB031602FB00F36768BF00B3FBF7F36E
:1076EC0002FB00F26768BF00B2FBF7F26427B2FB43
:1076FC00F7F201FB1231090132316422B1FBF2F1D4
:10770C0011F00F018E1921688E60F1BDF369FFFF36
:10771C000038014070470D00F8B504000025002624
:10772C000027002C01D10120D5E02069002802D0CF
:10773C0094F82C000028606B1028E06C002812D103
:10774C0000202065002084F84800DFF888040168D8
:10775C0051F001010160006810F0010000900098E8
:10776C00200005F0C9FCE06CC00600F1B080E06CB4
:10777C0030F4885050F00200E064DFF85C140A68C2
:10778C0032F44032606802430A605FF48000B0FA61
:10779C0080F15FF08040B0FA80F2E36860690343E7
:1077AC0094F83C0010FA01F11943206A014394F853
:1077BC00240010FA02F211430F43606B102803D01F
:1077CC00616BA06B01430F4320680068400635D401
:1077DC00A06907432069B0F5807F02D02069012899
:1077EC0002D14FF4807100E00021A268E0690243ED
:1077FC0011430E4394F82C00012817D194F824005F
:10780C0000280BD15FF4E020B0FA80F0216B491E08
:10781C0011FA00F050F40060064307E0E06C50F001
:10782C002000E064206D50F0010020652068416864
:10783C00DFF8A8030140314320684160206881686B
:10784C00DFF89C0301403943206881602069B0F562
:10785C00807F02D02069012802D14FF4807000E0B3
:10786C000020B0F5807F0FD12068006B4FF4786159
:10787C00B1FA81F130F0F870A26A521E12FA01F1DD
:10788C0008432168086305E02068006B30F0F8704D
:10789C002168086320688168DFF848030140B94219
:1078AC0008D100202065E06C30F0020050F001009F
:1078BC00E0640EE0E06C30F0020050F01000E06488
:1078CC00206D50F0010020650120050001E0012031
:1078DC0005002800C0B2F2BD70B504000026002CD3
:1078EC0001D101208AE0E06C50F00200E06420003D
:1078FC0000F082F905002800C0B2002879D17FF091
:10790C001F002168086020684168DFF8DC02014034
:10791C002068416020688168DFF8D002014020684F
:10792C00816000BF2068C068400D40052168C860B8
:10793C002068006910F040402168086120684069A7
:10794C0010F040402168486120688069000B0003FA
:10795C00216888612068C069000B00032168C86138
:10796C002068006A000B0003216808622068406AE6
:10797C00000B0003216848622068806A000B00033A
:10798C00216888622068C06A000B00032168C86205
:10799C002068006B10F07E40216808632068406B03
:1079AC0010F04040216848632068806B10F0404024
:1079BC00216888632068C06B10F040402168C86360
:1079CC002068006C10F04040216808642068406C0E
:1079DC00800D800521684864DFF8FC01016831F4F2
:1079EC0000010160200005F0D9FB0020206500207B
:1079FC00E064002084F848002800C0B270BD78B460
:107A0C00020000230020009092F84800012801D1C8
:107A1C000220DCE0012082F848004868072812D2D6
:107A2C001068046C1F254868461E05204643B54067
:107A3C00AC430D684868461E05204643B5402C43B0
:107A4C001068046459E048680D2812D21068C46BA1
:107A5C001F254868C61F05204643B540AC430D683A
:107A6C004868C61F05204643B5402C431068C463C4
:107A7C0043E04868132814D21068846B1F254868AB
:107A8C00B0F10D0605204643B540AC430D6848687F
:107A9C00B0F10D0605204643B5402C4310688463B5
:107AAC002BE04868192814D21068446B1F254868CD
:107ABC00B0F1130605204643B540AC430D68486849
:107ACC00B0F1130605204643B5402C4310684463BF
:107ADC0013E01068046B1F254868B0F119060520E7
:107AEC004643B540AC430D684868B0F11906052013
:107AFC004643B5402C431068046308680A2810D22A
:107B0C001068446907250E6803204643B540AC4312
:107B1C008D680E6803204643B5402C4310684461C1
:107B2C0030E00868142814D2106804690725086826
:107B3C00B0F10A0603204643B540AC438D68086893
:107B4C00B0F10A0603204643B5402C43106804618B
:107B5C0018E008681B2814D21068C4680725086848
:107B6C00B0F1140603204643B540AC438D68086859
:107B7C00B0F1140603204643B5402C431068C46092
:107B8C0000E000BF0868102802D00868112819D13D
:107B9C0011480468240215D4046854F400040460E9
:107BAC00086810280ED112480068124CB0FBF4F48F
:107BBC000A20444300940098002803D00098401EEB
:107BCC000090F8E7002082F848001800C0B272BCA0
:107BDC00704700002038024004270140FF16FCFCCF
:107BEC0089F1FFC0FEFF80BF00003CF88CF0808064
:107BFC009802002040420F0038B504000025206890
:107C0C00006840061FD52068806840084000216845
:107C1C00886002F0C5FB050020680068400612D59C
:107C2C0002F0BEFB401B0328F6D320680068400618
:107C3C00F2D5E06C50F01000E064206D50F00100C3
:107C4C002065012000E0002032BD000080B501223B
:107C5C0037493848FFF72AFA01BD80B50122364969
:107C6C003648FFF723FA01BD80B501223449354867
:107C7C00FFF71CFA01BD704780B5FFF7E7FFFFF770
:107C8C00ECFFFFF7F1FF01BD70B504002948216836
:107C9C000268914216D12C4A25490B7815689688B2
:107CAC00AB5593885B1C9380938840F2AF45AB42F5
:107CBC0001D3002393800122FFF7F8F90121234817
:107CCC00FBF78DFE1D4821680268914215D1204AB0
:107CDC0019490B7815689688AB5593885B1C938073
:107CEC009388B3F5966F01D3002393800122FFF79D
:107CFC00DDF901211748FBF772FE12482168026872
:107D0C00914213D1144A0E490B7815689688AB55DD
:107D1C0093885B1C938093883F2B01D30023938023
:107D2C000122FFF7C3F901200C49087070BD000057
:107D3C00CC4400209C400020CD440020E04000209A
:107D4C00CE44002058400020AC0C00201C0C00201D
:107D5C00801000209C020020F00300209C030020D7
:107D6C0080B58E488E4901604FF416514160002158
:107D7C0081600021C160002101610C214161002161
:107D8C0081610021C161FFF7C9F8002801D005F01D
:107D9C009BFA01BD80B58348834901605FF4E131F2
:107DAC004160002181600021C160002101610C2132
:107DBC004161002181610021C161FFF7AFF800280A
:107DCC0001D005F081FA01BD80B578487849016091
:107DDC005FF4E1314160002181600021C16000212C
:107DEC0001610C214161002181610021C161FFF71A
:107DFC0095F8002801D005F067FA01BD10B586B0E2
:107E0C000400142200216846FBF7D0FD2068644969
:107E1C0088422BD16748016851F4804101600068A9
:107E2C0010F48040059005986348016851F00101F9
:107E3C000160006810F00100059005984FF4C060D7
:107E4C000090022001900020029003200390072054
:107E5C00049069465948FEF7A3FE00220021252014
:107E6C0005F0C0FA252005F0D2FA5DE020684E49F5
:107E7C0088422AD15248016851F4003101600068EF
:107E8C0010F40030059005984B48016851F0010141
:107E9C000160006810F00100059005980C2000901E
:107EAC0002200190002002900320039007200490F0
:107EBC0069464248FEF774FE00220021262005F098
:107ECC0091FA262005F0A3FA2EE020683849884262
:107EDC002AD13B48016851F480210160006810F4FC
:107EEC008020059005983448016851F0020101602A
:107EFC00006810F00200059005984FF44060009067
:107F0C00022001900020029003200390072004908F
:107F1C0069462C48FEF744FE00220021272005F07C
:107F2C0061FA272005F073FA06B010BD10B50400F5
:107F3C0020681B4988420DD11E48016831F48041EC
:107F4C0001604FF4C0611D48FEF70EFF252005F0BF
:107F5C0065FA21E02068144988420CD11848016860
:107F6C0031F4003101600C211448FEF7FDFE26208F
:107F7C0005F054FA10E020680D4988420CD11048E5
:107F8C00016831F4802101604FF440610D48FEF727
:107F9C00EBFE272005F042FA10BD000058400020EF
:107FAC00003801409C40002000440040E04000208C
:107FBC0000480040203802401C38024000000240BB
:107FCC00243802400004024062F30F2262F31F4285
:107FDC00401810F0030308D0C91A1FD3DB0748BFA1
:107FEC0000F8012D28BF20F8022D130030B41446E0
:107FFC001546103928BF20E93C00FAD8490728BF9C
:10800C0020E90C0048BF40F8042D890028BF20F857
:10801C00022D48BF00F8012D30BC7047C91818BF9D
:10802C0000F8012DCB0728BF00F8012D70473E004A
:10803C00BBBBE1B1B2F5803F80F07E80022A1ED935
:10804C008C46B1FBF2F102FB11C31B0443EA104353
:10805C00B3FBF2FC02FB1C3380B240EA0343B3FBDC
:10806C00F2F002FB103240EA0C4000237047022A67
:10807C0005D98446B0FBF2F002FB10C270474AB13E
:10808C0005D100F0010249085FEA30007047002278
:10809C000023704705F0E2B90B000200002100201C
:1080AC007047904271EB030CF6D3B3F5803F2FD29F
:1080BC00F0B5B3FA83F7B1FA81F4A7F10F0E3D1BBB
:1080CC005340CEF1200602FA0EF2F3415340B5F1C3
:1080DC000F0746D80F3C2C444140C4F12006A04069
:1080EC00F1414140B1FBF3F603FB1611A2FB06452F
:1080FC00001BA94102D2761E8018594180EA010268
:10810C0021FA0EF362FA0EF200215A403046F0BD0D
:10811C0030B4B1FBF3FC03FB1C11A2FB0C45001BA0
:10812C00A94103D2ACF1010C8018594130BC024674
:10813C000B46604600217047B2F1807F65D3F0B5E5
:10814C00B2FA82F7B1FA81F4C7F10F063D1B22FA9D
:10815C0006F307F1110EF24120355A40B5F10F0725
:10816C00B8D94140C4F12006A040F1414140B1FBD7
:10817C00F3FC03FB1C11A2FB0C45001BA94103D211
:10818C00BCF1010C801859410F2F12D30F3FC903BA
:10819C0041EA5041B1FBF3F603FB1611A2FB064575
:1081AC00D4EBC030A94102D2761E8018594146EA60
:1081BC00CC3C07B34140C7F12006B840F1414140E7
:1081CC00B1FBF3F603FB1611A2FB0645001BA941FC
:1081DC0002D2761E8018594180EA010221FA0EF370
:1081EC00C7F1200462FA0EF20CFA07F05A402CFA8E
:1081FC0004F13043F0BD80EA010221FA0EF30021B4
:10820C0062FA0EF260465A40F0BD8C46B1FBF2F1B8
:10821C0002FB11C31B0243EA1063B3FBF2FC02FB2B
:10822C001C331B024CEA002043EA1063B3FBF2FC44
:10823C0002FB1C331B024CEA002043EA1063B3FB25
:10824C00F2FC02FB1C331B024CEA002043EA1063D5
:10825C00B3FBF2FC02FB1C324CEA002000237047FB
:10826C0000F10103810704D010F8011B820781B1D2
:10827C00FAD10268A2F10131914311F0803104BFAF
:10828C0050F8042FF6E709BAB1FA81F100EBD100EE
:10829C00401CC01A7047000038B50400DFF8A85223
:1082AC0095F81001000604D10121D5F8100100F059
:1082BC00C5F9B5F8142115F11001D5F8100100F02D
:1082CC0021FAD5F82401002804D095F81701D5F827
:1082DC0024118847002085F81601012200219B48B3
:1082EC0001F0B5FF012032BD38B50400964D2A8946
:1082FC006968286800F0B1F9D5F82801002805D084
:10830C00AA7B2968687BD5F8283198470020287308
:10831C00012200218E4801F09AFF012032BD70B578
:10832C00C4B00400884D95F82001002800F0958019
:10833C0095F8160101284BD0844E300002F004F859
:10834C00002845D083490320FAF709F8002202A936
:10835C00300001F07CFF95F82001012838D1012074
:10836C0085F8160100200100BDF80E2189B291425A
:10837C0009D202A9020092B2895C020092B22A448C
:10838C001174401CEFE7BDF80E01A5F814019DF81F
:10839C000C0185F81701D5F83801002814D00121FB
:1083AC009DF80C01D5F838219047C5F81001D5F887
:1083BC00100110F1010F02D14298C5F810010021F3
:1083CC006548FBF7FDFA03E064490220F9F7C7FFA3
:1083DC00287B012841D05E4E300001F0B5FF00280B
:1083EC003BD05F490320F9F7BAFF00226946300001
:1083FC0001F02DFF95F8200101282ED1594E4FF494
:10840C00807200213000F9F78DFF012028736E6017
:10841C00BDF8040028819DF8060068739DF80700DC
:10842C00A873D5F8380100280DD000219DF806005E
:10843C00D5F8382190472860286810F1010F08D131
:10844C000098286005E045490220F9F788FF00985C
:10845C00286001214048FBF7B3FA3C4801F074FF57
:10846C00002804D13A4801F06FFF002804D0210005
:10847C00C9B23948FBF7B3FA012044B070BD70B5EE
:10848C000020002400252800C0B2032836DA324E22
:10849C002800C0B200013044407801282CD10120C2
:1084AC0004002800C0B200013044406800280ED0FF
:1084BC0001F076FF2900C9B2090131444968401A1C
:1084CC002900C9B2090131448968884214D30020BB
:1084DC002900C9B209013144487001F061FF29003B
:1084EC00C9B20901314448602800C0B22900C9B2A0
:1084FC0009013144C96888476D1CC4E72000C0B22B
:10850C0070BD2DE9F04104000D0016001F00002085
:10851C0094F8008039004246C9B2D2B2914200D2DE
:10852C00B8463A00D2B292B200212800F9F7FAFE0E
:10853C004246D2B292B22900601C00F08EF840463E
:10854C00C0B23080BDE8F0812809002050430020E3
:10855C00384300205C340108F808002084340108FA
:10856C00AC340108A03900202DE9F34F83B09346B9
:10857C00002600240025CDE900455FF0000A012704
:10858C00DDF81080DDF80C901BF0030F29D1584654
:10859C008008002104000D0004F08CFF4FF47A7069
:1085AC0004F0ACFF00200600300080B20021A9428C
:1085BC0015D801D3A04212D2D8F8000082465246F8
:1085CC004946022004F04CFF07003800C0B20128D5
:1085DC0005D019F1040918F10408761CE4E704F03D
:1085EC0086FF3800C0B205B0BDE8F08F70B504004E
:1085FC00012504F05FFF06004FF47A7004F07EFF53
:10860C003000C0B2002802D1200004F0FDFF4FF46E
:10861C007A7004F073FF05000748016831F40071AB
:10862C000160016831F00801016004F060FF28006E
:10863C00C0B270BD00000000043C024070B50400E4
:10864C000D000026AE4207D24FF4807000FB0640AE
:10865C00FFF7CCFF761CF5E770BDF0B400230500E6
:10866C000E000024230017009BB2BFB2BB4205D200
:10867C002B783370761C6D1C641CF3E7F0BC7047D0
:10868C002DE9F041C0B004000D00160000274FF496
:10869C00807200216846FBF789F92000FFF7A6FFDE
:1086AC00AA208DF8000030008DF801005FF0000862
:1086BC004046310080B289B288420AD2404680B22C
:1086CC00285C6946424692B21144887018F1010840
:1086DC00EEE7B61C300080B20421B6B2361D361A55
:1086EC0090FBF1F001FB0066320092B2694620006B
:1086FC00FFF73AFF002801D0002000E0012040B035
:10870C00BDE8F08170B504000D001600300080B299
:10871C000421B6B2361D361A90FBF1F001FB00664F
:10872C00320092B229002000FFF71EFF002801D072
:10873C00002000E0012070BD80B50020DFF8B413EC
:10874C000860DFF8B4030068804702BD2DE9F041F2
:10875C0004000D0016001F00DDF81880002C18D046
:10876C003800002815D0002020602800DFF888137E
:10877C00496A8847606000202072002060720020E7
:10878C00A072E760C4F81080E672002060610020DF
:10879C0000E00120BDE8F0812DE9F04704005FF016
:1087AC000008002C3BD0200000F002F9002836D144
:1087BC00607A002833D160680700DFF83C93D9F861
:1087CC00200080470600B74200D237002760002007
:1087DC002072012060720020A072DFF818A3DAF872
:1087EC000000002806D1D9F810008047200000F0C6
:1087FC0019F916E0D9F818008047050020682818E8
:10880C0020602068DAF800100968884203D2200042
:10881C0000F008F905E0200000F0EDF801E001207F
:10882C0080464046C0B2BDE8F0872DE9F041050016
:10883C000026002D40D0DFF8BC82D8F80070D8F8A4
:10884C0000400120A872D8F80000002836D0002083
:10885C006872D8F80000A8421AD10020D8F800108D
:10886C000872D8F800004069002809D0D8F8000038
:10887C004069C8F80000D8F8000000F0A6F818E02D
:10888C00DFF87402C06880470020C8F8000010E0D0
:10889C00002C0ED0AC4209D16069002802D064696A
:1088AC007C6102E0002004007C6102E02700646926
:1088BC00EEE70020060001E0012006003000C0B207
:1088CC00BDE8F08170B504000D000026002C02D12B
:1088DC000120060010E028008749496A884760603B
:1088EC00200000F065F8002806D02000FFF79DFF5F
:1088FC002000FFF751FF06003000C0B270BD2DE91B
:10890C00F8437D4D68698047060028698047070059
:10891C00B7EB0608DFF8DC91D9F8000000280FD07F
:10892C00D9F8000004002068804504D22068B0EB20
:10893C000800206001E0002020606469002CF2D166
:10894C00D9F80000002824D0D9F8000000680028CD
:10895C0006D0A8698047D9F800100968814218D25E
:10896C00D9F800000400D9F800004069C9F80000EB
:10897C0000202072002060722069E1688847E07A4C
:10898C000128DDD1A07A0028DAD12000FFF704FFFE
:10899C00D6E7D9F80000002808D0D9F80000007AF2
:1089AC00002803D1D9F8000000F00FF8BDE8F183DE
:1089BC00020050480168002905D0914201D10120E4
:1089CC0002E04969F7E70020704770B504004A4D92
:1089DC00286A8047060001202072A8698047216818
:1089EC003018814203D2A869804730182060206873
:1089FC00A968884770BD10B43E490A6809684B697C
:108A0C005169002909D019680468A14202D21A00E0
:108A1C005B69F5E75061436102E0506100214161FF
:108A2C0010BC704738B5050032480468002C01D0E2
:108A3C00002121726C6105600068FFF7C6FF31BD33
:108A4C002DE9F7432C4D686980470600286980475B
:108A5C000700B7EB0609DFF89C80D8F80000002867
:108A6C000FD0D8F8000004002068814504D220689B
:108A7C00B0EB0900206001E0002020606469002C4C
:108A8C00F2D1D8F80000002824D0D8F800000068F3
:108A9C00002806D0A8698047D8F8001009688142E0
:108AAC0018D2D8F800000400D8F800004069C8F8C3
:108ABC00000000202072002060722069E168884765
:108ACC00E07A0128DDD1A07A0028DAD12000FFF766
:108ADC0063FED6E7684607C8FBF77FFA286980472C
:108AEC00D8F80000002803D0D8F80000FFF76DFF7D
:108AFC00BDE8F7838C4400202832010801000120D6
:108B0C00704710B504000020DFF8A41C0968096840
:108B1C008847012010BD10B50400200000F082FF32
:108B2C00012010BD1CB50400DFF8880CC16D00914C
:108B3C00C06DFFF795FBADF804002100684601F00D
:108B4C0004F8012016BD10B50400200001F053F804
:108B5C00012010BD10B50400DFF8380B4FF47A7308
:108B6C00028B4169DFF8300B01F009FB012010BDCD
:108B7C00F8B50400DFF8205BDFF8186B4FF47A735C
:108B8C00328B7169280001F0FAFAA8A74FF47A73B6
:108B9C0003223900280001F0F2FA4FF47A73328D77
:108BAC00716A280001F0EBFA4FF47A730322390052
:108BBC00280001F0E4FA4FF47A73328EF16A28003F
:108BCC0001F0DDFA4FF47A730122CAA1280001F0FA
:108BDC00D6FA0120F2BD0100012070470100DFF838
:108BEC00E80C0122827003224270012070470100C0
:108BFC000020DFF8D42C90700120704738B50400A9
:108C0C000025DFF8B41B206804F014FD01000029D6
:108C1C0007D0DFF8000D0222427001228271012080
:108C2C0000E0002032BD1CB50400DFF8880BD0F842
:108C3C00D8110091D0F8D801FFF712FBADF8040061
:108C4C002100684601F014F8012016BD0100DFF880
:108C5C00C40C0122027001224270012070470100F5
:108C6C00012070471CB5040032208DF800004FF431
:108C7C007A7301226946DFF8200A01F080FA01209C
:108C8C0016BDFEB5040000256846DFF8301B0A222D
:108C9C00FBF70CF932208DF80000DFF8FC694FF47B
:108CAC007A7309226946300001F069FA0120DFF875
:108CBC00001B09680968884707003800C0B2012802
:108CCC0018D1DFF8D0594FF47A732A8F696B3000C2
:108CDC0001F055FA4FF47A730222C9A1300001F069
:108CEC004EFA4FF47A73B5F84020E96B300001F07E
:108CFC0046FA18E0DFF89C594FF47A73B5F858200F
:108D0C00696D300001F03BFA4FF47A730222BCA17A
:108D1C00300001F034FA4FF47A73B5F86020E96D45
:108D2C00300001F02CFA0120FEBD3EB504000025F8
:108D3C00DFF8980BD0E90023CDE900232100684629
:108D4C00FBF712FE010000290DD4BDF804004118F8
:108D5C0020680844C078302805D10420DFF8542C52
:108D6C005070012000E000203EBD10B5040007202B
:108D7C00DFF8441C096809688847012010BD10B54C
:108D8C0004000820DFF8301C0968096888470120B6
:108D9C0010BD10B504000920DFF81C1C0968096817
:108DAC008847012010BD01000120704710B5040058
:108DBC000B20DFF8041C096809688847012010BDE6
:108DCC0010B50400DFF8000B0221C1700121C17144
:108DDC000C20DFF8E41B096809688847012010BDE6
:108DEC0010B504000D20DFF8D01B0968096888470E
:108DFC00012010BD10B504000220DFF8CC1AC87099
:108E0C000E20DFF8B41B096809688847012010BDE3
:108E1C0010B50400DFF8A40B4FF47A738288016854
:108E2C00DFF8740801F0ABF9012010BD222C2200F0
:108E3C0010B5040001F033F9012010BD10B5040089
:108E4C0001F034F9012010BDFEB504005FF0FF35D0
:108E5C00DFF86C7BB86C0090B86CFFF701FAADF8DA
:108E6C00040021006846FBF77FFD0600002E0BD4A2
:108E7C00B86CFFF7F5F9801906002068304440788B
:108E8C00322801D101F019F90120FEBD01000120A9
:108E9C00DFF8202B10700120704710B5040001F092
:108EAC0021F9012010BD10B5040001F022F90120B8
:108EBC0010BD10B5040001F023F9012010BD10B550
:108ECC00040001F001F9012010BD10B5040001F0FF
:108EDC0002F9012010BD10B50400DFF8E81A4FF4B8
:108EEC007A7391F8322092B2DFF8AC0701F047F9AF
:108EFC00012010BD2200000010B50400DFF8C41AD8
:108F0C004FF47A7391F8322092B2DFF88C0701F0AB
:108F1C0036F9012010BD2DE9FE4304005FF0FF3847
:108F2C0000250027DFF88C08D0F8E0130191D0F869
:108F3C00E003FFF795F9ADF80800210001A8FBF755
:108F4C0013FD0600002E3BD4BDF80800401C86190A
:108F5C00300005002800A18880B288421DD220680C
:108F6C00290089B2405C0D2817D02068290089B2ED
:108F7C00405C302805DB2068290089B2405C3A2827
:108F8C0001DB00201DE00A2120682A0092B2805CDF
:108F9C0001FB0707303F6D1CDCE7DFF8289A38002F
:108FAC0080B2C9F8400019F138084046F9F731F998
:108FBC0000200090D9F8402000234046F8F7CCFF61
:108FCC000120BDE8FE8310B50400DFF8F8094FF46A
:108FDC007A73828F816BDFF8C00601F0D0F8012024
:108FEC0010BD10B50400DFF8DC094FF47A73828FE2
:108FFC00816BDFF8A40601F0C2F8012010BD00005F
:10900C00222C000010B50400DFF8B8094FF47A7375
:10901C00828F816BDFF8800601F0B1F8012010BD62
:10902C0010B50400DFF89C094FF47A73828F816BC2
:10903C00DFF8640601F0A3F8012010BD2DE9F0471C
:10904C0088B004000027DFF88009D0E90023CDE9BF
:10905C0002235FF0000800250026082100220DF1F4
:10906C0010094846FEF7B0FF210002A8FBF77CFC74
:10907C008146B9F1000F00F11781BDF80C0010EB1F
:10908C0009094F463800A18880B2884216D2206860
:10909C00390089B2405C302805DB2068390089B280
:1090AC00405C3A2800DB09E00A2120683A0092B2C1
:1090BC00805C01FB0606303E7F1CE3E7B8461FFAD6
:1090CC0088F818F10208206840440090A088B0EBA2
:1090DC000800ADF80400300080B2002806D0BDF8BE
:1090EC000400801F310089B288420CDA0620DFF8B8
:1090FC00CC1881F84D001020DFF8BC1809680968FD
:10910C0088470020DCE0ADF80460DFF8B098D9F8AF
:10911C004010300080B24118C9F84010DFF898A810
:10912C00DAF80000C0688047006806900C20ADF8A3
:10913C001C00B9F84800002824D1694606A8FBF7A2
:10914C0013FC8046B8F1000F02D4012089F84C00C2
:10915C000098C07F89F84A0099F84C00002809D182
:10916C00052089F84D001020DAF8001009688847AE
:10917C000020A5E0009820300090BDF804002038B5
:10918C00ADF8040000210800BDF8042080B2904224
:10919C000AD299F84B2000980B009BB2C05C821845
:1091AC0089F84B20491CEEE7B9F84800401CA9F897
:1091BC004800BDF80400042290FBF2F302FB1300FC
:1091CC0000280CD0BDF804000422BDF804301B1D8F
:1091DC001B1A90FBF2F002FB0032ADF804200027C2
:1091EC00BDF80400042190FBF1F0390089B28142F2
:1091FC002CDA00200500280080B204280DDA009833
:10920C00390089B200EB8100290089B2405C04A9C5
:10921C002A0092B288546D1CEDE7042204A9D9F8F7
:10922C003800FFF7A1F9002809D0052089F84D0076
:10923C001020DAF8001009688847002040E0D9F8BF
:10924C003800001DC9F838007F1CC9E7D9F8400068
:10925C00D9F82810884220D399F84A0099F84B1075
:10926C00884210D1D9F84000001D99F8401011F037
:10927C000301401AC9F840000F20DAF80010096801
:10928C00884701201CE0062089F84D001020DAF8F0
:10929C00001009688847002012E00220DAF800105C
:1092AC000968884701200BE00320DFF8101781F8CC
:1092BC004D001020DFF80017096809688847002066
:1092CC0008B0BDE8F08710B50400DFF8F0064FF4E5
:1092DC007A7382880168DFF8C00300F050FF012028
:1092EC0010BD70B50400DFF8B053DFF8D0664FF452
:1092FC007A73B28A3169280000F041FFB08A0028E5
:10930C0005D064230122A3A1280000F038FF4FF4FC
:10931C007A73B28BB169280000F031FF012070BD67
:10932C0010B50400DFF89C064FF47A73828F816BC2
:10933C00D94800F024FF012010BD01000120704726
:10934C0001000120704701000120704730B585B045
:10935C0004000521002203AD2800FEF735FEDFF8DE
:10936C006C06D0E90023CDE9012303A8019000206D
:10937C000090DFF84806828C002301A8F8F7ECFD7A
:10938C004FF47A73BDF808200199C34800F0F7FE3A
:10939C00012005B030BD10B50400DFF820064FF4F5
:1093AC007A73828C016ABC4800F0E9FE012010BD82
:1093BC002DE9FF47040000255FF0FF360027082148
:1093CC0000220DF108084046FEF7FEFD5FF0000894
:1093DC00DFF8E093D9F83C070090D9F83C07FEF78A
:1093EC003FFFADF8040021006846FBF7BDFA82464A
:1093FC00504600B2002847D4D9F83C07FEF730FF9E
:10940C000100491C11EB0A0120680A0012B2805CB1
:10941C00302801D000203EE08A461AF1020A554657
:10942C00280000B2A188884226DA2068290009B2F7
:10943C00405C2C2801D1012007002068290009B2CA
:10944C00084440780D2802D10020070014E03800B1
:10945C00C0B201280AD12068290009B2084440781A
:10946C0002A94246D2B2885418F101084046C0B253
:10947C00082801D06D1CD3E74146C9B202A8F8F701
:10948C00DAFEDFF8381588620620DFF828154870F8
:10949C0000F056FE012004B0BDE8F08710B50400C2
:1094AC00DFF820154FF47A7391F8322092B27A4893
:1094BC0000F065FE012010BD38B586B004000A210D
:1094CC00002203AD2800FEF77FFDDFF80405D0E98C
:1094DC000023CDE9012303A8019000200090DFF8C0
:1094EC00DC04426C002301A8F8F736FD4FF47A73C4
:1094FC00BDF808200199684800F041FE012007B032
:10950C0030BD10B50400200000F049FC10BD70B552
:10951C000400DFF8C0140878002838D10120087046
:10952C00012002F05DFC00200121A2881000C0B2D5
:10953C0000280DD020681300DBB2C05C302805DB9E
:10954C0020681300DBB2C05C3A2801DB521EEDE749
:10955C001000C0B200281AD020681300DBB2C05C27
:10956C00302814DB20681300DBB2C05C3A280EDA1A
:10957C00DFF86404036825681600F6B2AD5D303D73
:10958C0001FB053303600A204143521EE0E7012032
:10959C0070BD00002F00000078B58BB004000A21CC
:1095AC00002208AD2800FEF70FFDDFF83004D0E9EB
:1095BC000023CDE9032308A803900A21002205AD5E
:1095CC002800FEF701FDDFF81804D0E90023CDE9EF
:1095DC00012305A80190DFF800140868B0F5807F1E
:1095EC0009D34FF48070DFF8FC2310800868B0F5C5
:1095FC008070086017E0086800280AD00868B0F589
:10960C00807F06D20868DFF8DC2310800020086019
:10961C0009E04FF48072DFF8D013DFF8D00301F0CB
:10962C008AFB002033E0DFF8C853002000902A6842
:10963C00002303A8F8F790FCDFF8A8630020009043
:10964C003288002301A8F8F787FC29683088411874
:10965C002960114D4FF47A73BDF81020039928003E
:10966C0000F08DFD4FF47A730122A9A1280000F0BF
:10967C0086FD4FF47A73BDF808200199280000F09C
:10968C007EFDDFF870030168491C016001200CB0FD
:10969C0070BD0000500F00209C4000202DE9F041CF
:1096AC000400322002F09CFB00252800A18880B227
:1096BC00884242D22800451C216880B2085C4328AD
:1096CC00F3D12800451C216880B2085C4F28ECD1EE
:1096DC002800451C216880B2085C4E28E5D1280082
:1096EC00451C216880B2085C4E28DED12800451C40
:1096FC00216880B2085C4528D7D12800451C216818
:10970C0080B2085C4328D0D12800451C216880B267
:10971C00085C5428C9D12800451C216880B2085C1B
:10972C000D28C2D12800451C216880B2085C0A288B
:10973C00BBD1B1480168491C0160B04E20682900BA
:10974C0089B208443060A7480088B080DFF8B08246
:10975C00AC4F3868D8F80010884209D1D8F800000E
:10976C0001F005FAD8F8000010F58050C8F8000098
:10977C00B2883968306801F0BEFA3968B08841188F
:10978C00396000210800B28880B2904209D29E4A0A
:10979C00137830680F00BFB2C05D43401370491C92
:1097AC00F0E702219948F9F7DAF90120BDE8F081D8
:1097BC0088440020A01B01084448010850480108B7
:1097CC002DE9FE4F04009248D0E90023CDE9012396
:1097DC005FF0FF3A00208DF80000002500260027DE
:1097EC005FF00008210001A8FBF7BEF88146B9F133
:1097FC00000F5DD4BDF8080010EB090948460700BE
:10980C003800A18880B2884218D22068390089B209
:10981C00405C2C2810D16D1C2800C0B2012802D14C
:10982C00781C060008E02800C0B2032804D1B84612
:10983C0001208DF8000001E07F1CE1E79DF800009D
:10984C00012835D1DFF880A0B8EB06008AF86D004E
:10985C009AF86D00642824DA01208AF808005FF079
:10986C00000B58469AF86D1080B289B288420DD21E
:10987C002068310089B20844594689B2405C594687
:10988C0089B2514448721BF1010BEAE7614902208D
:10989C00F8F765FD052048490968096888470120E3
:1098AC0010E05D490220F8F7AFFD00208AF86D004A
:1098BC000620414909680968884758490220F8F789
:1098CC00A3FD0120BDE8FE8F843E0020584A01080C
:1098DC0001000800C0B21E280FD00800C0B2232817
:1098EC000BD00800C0B2252807D00800C0B227282A
:1098FC0005DB0800C0B26C2801DA012000E0002072
:10990C007047474AC0B214214843104470470000C6
:10991C002C000000843E0020010000200A00D2B27E
:10992C00182A04D0542A06D0602A04D006E04FF43A
:10993C007A72100002E064221000FFE77047010009
:10994C000800C0B2532815D00800C0B2542811D05A
:10995C000800C0B25F280DD00800C0B2602809D042
:10996C000800C0B2382805D00800C0B2392801D090
:10997C00012000E00020704710B504002000C0B2A8
:10998C00692807D103200B49087206200A49096887
:10999C00096888472000C0B2692807D02000C0B2EF
:1099AC00682803D02000C0B2672801D1012000E054
:1099BC00002010BD843E002088440020D40F0020DD
:1099CC00902F010824100020604A0108684A010801
:1099DC00704A0108C04400206C440020784A0108F9
:1099EC00804A0108A4440020F0CE7B00A037002060
:1099FC007444002070440020784400204844002027
:109A0C001805002014050020C14400208A100020F5
:109A1C00884A01082C3A0108603C01084C3A0108BC
:109A2C00A01B0108F8B588B004001522002102A87B
:109A3C00F9F7BCFFDFF88807D0E90023CDE9002354
:109A4C0002A80090002501263000A18880B288422F
:109A5C000FD22068310089B2084410F8010C382864
:109A6C0005D12068310089B2405C392801D0761CC0
:109A7C00EAE7771E3800A18880B288420ED22068AF
:109A8C00390089B2405C302805DB2068390089B286
:109A9C00405C3A2800DB01E07F1CEBE720683100DA
:109AAC0089B20844401E0090B81B401CADF804005D
:109ABC00BDF80400162802DB1520ADF80400DFF811
:109ACC000407BDF804108288914202D001210D00D8
:109ADC0016E000210F003900BDF8042089B2914234
:109AEC000ED201683A0092B2895C009A3B009BB29C
:109AFC00D25C914202D001210D0001E07F1CEAE70B
:109B0C002900C9B201291ED100210F003900BDF86E
:109B1C00042089B2914209D200993A0092B2895C30
:109B2C0002683B009BB2D1547F1CEFE7BDF80410D8
:109B3C008180DFF8941608680068002803D00320A1
:109B4C0009680968884709B0F0BDF8B504000D0034
:109B5C005FF0FF3629002000FAF706FF002820D41A
:109B6C00A1880818DFF85C162A68125C303A0A7271
:109B7C002A6802449278303A4A722A6802449278EF
:109B8C002C2A0ED12A68125C2B6803445B7813F0E4
:109B9C000F0313EB02130B722A680244D278303A8B
:109BAC004A72DFF82026117A002906D0012907D045
:109BBC00312908D0992909D00BE07121117219E0D3
:109BCC006F21117216E03321117213E00021117212
:109BDC0010E0137A102693FBF6F106FB01F6117ACE
:109BEC00102791FBF7F70A2101FB1766F31A5900AE
:109BFC0071311172F1BD70B50400002000252800F0
:109C0C00A18880B288420DD22068290089B2405CBC
:109C1C00302805DB2068290089B2405C3A2801DB3A
:109C2C006D1CECE72800A18880B288421FD2DFF8B7
:109C3C00946516F10C00F8F7ECFA2068290089B24B
:109C4C00405C302813DB2068290089B2405C3A283C
:109C5C000DDA2068290089B2405CF168328A885498
:109C6C00308A401C30826D1C308A1528E5DB70BDB3
:109C7C002DE9FC47824689465FF000080024002548
:109C8C000026082200216846F9F790FE4946504606
:109C9C00FAF76AFE0700BAF80400C0190E30B9F8DA
:109CAC000410884279DABAF80400401CC719D9F8B4
:109CBC000000C05D0500280080B2302803DB2800BE
:109CCC0080B23A2805DB7F1CD9F80000C05D050086
:109CDC00F1E73000C0B2062822DA00200400D9F8DF
:109CEC000000C05D0500280080B230280DDB280084
:109CFC0080B23A2809DA0A2000FB0454303C7F1C5D
:109D0C00D9F80000C05D0500EDE768463100C9B226
:109D1C004454761CB9F8040087423EDA7F1CD8E71D
:109D2C009DF800006421DFF89C8490FBF1F201FBAC
:109D3C00120088F87E006846417888F87D109DF8FE
:109D4C00021088F87C109DF8031088F878100079C0
:109D5C0088F879009DF8050088F87A0018F17800E9
:109D6C00FAF77BF9002818D0012318F1780007C8FE
:109D7C00FAF7F6F9DFF85414B0FBF1F0801D072167
:109D8C00B0FBF1F201FB1200401C88F87B000420B0
:109D9C00DFF83414096809688847BDE8F3872DE9B2
:109DAC00F8478DB004005FF0000ADFF82404D0E916
:109DBC000023CDE90823DFF81C04D0E90023CDE90A
:109DCC000223DFF81404D0E90023CDE906235FF069
:109DDC00000800250A2200210AA8F9F7E7FD002651
:109DEC0000270822002104A8F9F7E0FD210008A8AB
:109DFC00FAF7BAFD8146B9F1000F00F143814846EC
:109E0C000100A28889B2914221D22168020092B24B
:109E1C00895C2C2919D1401C2168020092B2895C02
:109E2C00302911DB2168020092B2895C3A290BDAE5
:109E3C002168020092B2895C30390AAA3300DBB285
:109E4C00D154761C401CE7E701E0401CD8E75FF0DA
:109E5C00000840463100C9B280B289B288420AD2A9
:109E6C00BFB20A210AA8424692B2805C01FB0707E6
:109E7C0018F10108EDE7380080B200280AD106205D
:109E8C00D64981F84D001020CF49096809688847E8
:109E9C00002001E1206848440090A088B0EB090044
:109EAC00ADF80400694602A8FAF75EFD8146B9F1E7
:109EBC00000F00F1E780BDF80C0010EB09090098C9
:109ECC0048440090BDF80400B0EB0900801F390035
:109EDC0089B288420ADA0620C04981F84D00102068
:109EEC00B9490968096888470020D5E0ADF80470C5
:109EFC00DFF8E8A2DAF84010380080B24118CAF84E
:109F0C004010DAF84000CAF84400BAF848000028BB
:109F1C0024D1694606A8FAF727FD8146B9F1000F4E
:109F2C0002D401208AF84C000098C07F8AF84A00BD
:109F3C009AF84C00002809D105208AF84D00102011
:109F4C00A1490968096888470020A5E000982030DD
:109F5C000090BDF804002038ADF804000021080082
:109F6C00BDF8042080B290420AD29AF84B20009897
:109F7C000B009BB2C05C82188AF84B20491CEEE7A0
:109F8C00BAF84800401CAAF84800BDF804000422A6
:109F9C0090FBF2F302FB130000280CD0BDF8040078
:109FAC000422BDF804301B1D1B1A90FBF2F002FBBF
:109FBC000032ADF804205FF00008BDF80400042165
:109FCC0090FBF1F0414689B281422DDA0020050068
:109FDC00280080B204280DDA0098414689B200EBC3
:109FEC008100290089B2405C04A92A0092B28854ED
:109FFC006D1CEDE7042204A9DAF83800FEF7B4FA78
:10A00C00002809D005208AF84D0010206E490968F7
:10A01C000968884700203FE0DAF83800001DCAF8CC
:10A02C00380018F10108C8E7DAF84000DAF828100F
:10A03C00884220D39AF84A009AF84B10884210D1E3
:10A04C00DAF84000001D9AF8401011F00301401A94
:10A05C00CAF840000F205C4909680968884701204C
:10A06C001AE006208AF84D00102057490968096843
:10A07C008847002010E00220534909680968884786
:10A08C00012009E00320554981F84D0010204E496C
:10A09C0009680968884700200EB0BDE8F08780B5D4
:10A0AC000020494909684968884701BD80B50120ED
:10A0BC00454909684968884701BD80B50320424974
:10A0CC0009684968884701BD80B509203E4909687F
:10A0DC004968884701BD80B50A203B490968496831
:10A0EC00884701BD80B5062037490968496888470B
:10A0FC0001BD80B50720344909684968884701BD0E
:10A10C0080B50820304909684968884701BD334A41
:10A11C00906391877047314800210164002180F8D9
:10A12C003E10002141640021A0F84810002180F865
:10A13C004A10002180F84B10002180F84C10704719
:10A14C0080B52148006880688047FFF7E4FF00F085
