:020000040800F2
:100000004830002039010008AD480008BD43000811
:1000100055480008410A0008255E0008000000005D
:10002000000000000000000000000000794E000801
:100030000121000800000000454900084155000862
:100040005301000853010008530100085301000840
:100050005301000853010008530100085301000830
:100060005301000853010008530100085301000820
:100070005301000853010008530100085301000810
:100080005301000853010008530100085301000800
:1000900053010008530100085301000853010008F0
:1000A000000000005301000853010008530100083C
:1000B0003556000853010008530100085301000899
:1000C00053010008530100085301000853010008C0
:1000D00053010008395C000853010008495C00081E
:1000E00053010008530100085301000853010008A0
:1000F00053010008000000005301000853010008EC
:100100000000000000000000530100085301000837
:1001100053010008530100085301000800000000CB
:1001200053010008DFF80CD000F002FB0048004744
:10013000A161000848300020064880470648004773
:10014000FEE7FEE7FEE7FEE7FEE7FEE7FEE7FEE787
:10015000FEE7FEE7D1550008250100082DE9F05F14
:100160000546002092469B46884606468146402426
:100170001BE0284641464746224600F02BFA5346EC
:100180005A46C01A914110D311461846224600F033
:1001900012FA2D1A67EB01084F4622460120002172
:1001A00000F009FA17EB00094E41201EA4F10104EA
:1001B000DFDC484631462A464346BDE8F09F40EA28
:1001C00001039B0703D009E008C9121F08C0042AD5
:1001D000FAD203E011F8013B00F8013B521EF9D2BC
:1001E0007047D2B201E000F8012B491EFBD27047E4
:1001F0000022F6E710B513460A4604461946FFF7F3
:10020000F0FF204610BD30B505462A460B4612F8D1
:10021000010B13F8014B08B1A042F8D01CB1002823
:1002200002D06D1CF1E7284630BD421C10F8011BBE
:100230000029FBD1801A70472DE9FE4F804681EAE4
:100240000300C00F0C46009021F0004123F0004550
:10025000B8EB0200A94105D24046214690461C4613
:100260000B46024623F00040104347D0270DC7F34A
:100270000A00C3F30A510290401A019040286BDA39
:10028000C3F3130040F4801B0098924620B1002372
:10029000D2EB030A63EB0B0B01985946C0F1400205
:1002A000504600F088F906460D4650465946019AD8
:1002B00000F0A0F910EB08006141002487EA115218
:1002C00084EAE7731A4340D0009A62B3019A012A84
:1002D0004FEA075215DC001B61EB02014FF00042B0
:1002E00002EA0752CDE90042001C41F58011324676
:1002F0002B4600F0A0F903B0BDE8F08F4046214640
:10030000F9E7001B61EB0201001C41F580130018A6
:100310005B412018A2F5001747EB030140EAD570B6
:10032000B6196D4111E06D084FEA360645EAC07511
:100330004FEA0752001B61EB0201001C41F58011DE
:1003400049084FEA30000019514132462B4603B0AC
:10035000BDE8F04F00F060B9009801224000002392
:10036000D0EB020263EBE073009821464FEAE074A1
:10037000B8EB000061EB0401E9E783F000435BE7C1
:1003800081F0004158E72DE9FE4F81EA030404F0B3
:10039000004421F0004100944FF0000B23F0004393
:1003A00050EA01045ED052EA03045BD0C3F30A545E
:1003B000C1F30A552C44A4F2F3340194A0FB025477
:1003C000C1F3130141F48011C3F3130343F4801309
:1003D00001FB024400FB034E840A970A44EA81545D
:1003E00047EA8357A4FB076802958D0A05FB07853A
:1003F0004FEA932C04FB0C542705029D4FEA065844
:1004000047EA1637B5EB08056EEB070C870E920E20
:1004100047EA811742EA8312A7FB0201B6EB0B0100
:1004200064EB00042B0D43EA0C335E1844EB1C50C4
:10043000DA465146E7FB0201C5F313044FEA0B33DA
:1004400043EA14534FEA0432019C43EA0603A4F141
:100450000C040294009CCDE900B400F0ECF803B069
:10046000BDE8F08F00200146F9E72DE9F04D81EA63
:10047000030404F0004B21F0004514464FF0000A3D
:1004800023F0004150EA050220D054EA01021DD0B9
:10049000C5F30A570246C5F31303C1F31300C1F3B2
:1004A0000A5640F4801543F48013A7EB0608101B8E
:1004B000D64608F2FD3873EB050002D308F10108B7
:1004C00001E092185B41B8F1000F03DA0020014609
:1004D000BDE8F08D00204FF48011064684460EE002
:1004E000171B73EB050705D3121B63EB05030643CC
:1004F0004CEA010C49084FEA300092185B4150EA7F
:100500000107EDD152EA030012D082EA040083EA27
:100510000501084305D0101BAB4106D20122002380
:1005200006E000224FF0004302E06FF0010253109A
:100530001AEB06004CEB085110EB0A0041EB0B01E3
:10054000BDE8F04D00F068B80EB5C10F80EAE0706C
:100550000844CA07002140F233438DE80E000A46E2
:100560000B4600F068F803B000BD0EB540F2334111
:1005700002910021CDE900110A460B4600F05BF81C
:1005800003B000BDC1F30A5210B5C1F3130140F22C
:10059000FF3341F480119A4201DA002010BD40F28D
:1005A00033439A42A2F2334203DC524200F012F883
:1005B00010BD904010BD202A04DB203A00FA02F161
:1005C000002070479140C2F1200320FA03F3194341
:1005D00090407047202A04DB203A21FA02F00021E3
:1005E000704721FA02F3D040C2F120029140084343
:1005F00019467047202A06DBCB17203A41FA02F051
:1006000043EAE07306E041FA02F3D040C2F120026F
:10061000914008431946704710B5141E73F1000449
:1006200008DA401C41F1000192185B411A4301D1E4
:1006300020F0010010BD2DE9F04D92469B4611B10E
:10064000B1FA81F202E0B0FA80F220329046FFF770
:10065000B2FF04460F4640EA0A0041EA0B01534646
:100660005A46084313D0114653EA010019D0C8F185
:1006700040025046FFF7AEFF05460E46504659462B
:100680004246FFF798FF084305D0012004E02046CA
:100690003946BDE8F08D0020054346EAE0762C435C
:1006A00037430A986305E40AA0EB08000022FD0A1C
:1006B00044EA47540A3002D500200146E9E7010523
:1006C00010196941DDE9084500196941BDE8F04D9F
:1006D000A2E770B521F0004303430CD0C1F30A55E3
:1006E0000024D5EB040564EB0403D617AD1AB3411F
:1006F00002DB0020014670BD201841EB025170BDA5
:1007000030B5041E71F1000404DB4FF00044404298
:1007100064EB0101141E73F1000405DB1C464FF06D
:100720000043524263EB0403994208BF904230BD3C
:10073000064C074D06E0E06840F0010394E807002E
:1007400098471034AC42F6D3FFF7F0FC906E0008E7
:10075000B06E00082DE9F04D00231A461B1A8A419D
:1007600003DB00200146BDE8F08DC1F30A52C1F35E
:10077000130141F480154FF0000BD10702D100188E
:100780006D41521E0027044640F2FF11384601EB2E
:10079000620A3E468046024600204FF48011FFF771
:1007A00019FFC2197141BB1846EB0100B4EB030CF1
:1007B00075EB000C04D3E41A65EB000517460E46F2
:1007C000241908F101006D4180463428E3DDF91950
:1007D00046EB0600091BA84103D24FF0FF32134637
:1007E00001E0002213461BEB070046EB0A51BDE86F
:1007F000F04DFFF711BF70B58C1810F8015B15F0C4
:10080000070301D110F8013B2A1106D110F8012B82
:1008100003E010F8016B01F8016B5B1EF9D12B07A7
:1008200005D40023521E0DD401F8013BFAE710F85D
:10083000013BCB1A921C03E013F8015B01F8015B4A
:10084000521EF9D5A142D8D3002070BD10B513486F
:100850000168134800F066F810480168114800F07C
:1008600055F80E48082102680F4800F0C5F80B48FB
:10087000102102680C4800F065F80C4802680C482A
:1008800001680C48006803F09BFD084802680848AE
:1008900001680848006805F089FA10BD8000002052
:1008A0007000002072000020000402407C00002044
:1008B00078000020740000202DE9F84304460D461E
:1008C00016461F46DDF820800C48008800900C4832
:1008D0000388224620210B4800F05AF8208801287E
:1008E00009D1D8F800303A682846316804F03AFA5D
:1008F000012005490880BDE8F8830000720000204F
:100900007000002000040240880000200288012AB4
:1009100006D10A6812B10A68521E0A6002220280D9
:10092000704700000288012A08D1054B0A689A42E4
:1009300002D20A68521C0A6002220280704700003C
:100940007F96980070B505460E46144631462846F7
:1009500002F0F2F870B901200B4908800B480088BA
:10096000C82807DD206828B10020084908802068D1
:10097000401E20603146284602F0DEF8012802D1F0
:1009800000200149088070BD020000200600002000
:100990002DE9F0410746884614461D46069E41460D
:1009A000384602F0C9F890B9208880B97DB976B987
:1009B00001200F4908800F480088B0F5FA6F06DD66
:1009C0000120208000200B49088009490880414609
:1009D000384602F0B1F8012803D0012D01D0012ED4
:1009E00004D100200349088001490880BDE8F08156
:1009F000040000200A00002070B505460E4614468B
:100A00003146284602F098F860B901200A4908806A
:100A10000A480088C82805DD0020084908802068A9
:100A2000401C20603146284602F086F8012802D199
:100A300000200149088070BD000000200600002051
:100A400000BFFEE72DE9F05F04460D4616461F463F
:100A5000DDE90CABDDE90A890020383404F8380CF4
:100A600004F8375C04F8366C44F8347C24F8308C95
:100A700044F82C9C24F828AC44F804BC0E98208040
:100A80000F986060109820811198E0601298208281
:100A90001398606114982083282060770620A07640
:100AA0000C20E07614202077383C322000F03CF80F
:100AB00000223321204600F06BF8052000F034F8C6
:100AC00000223321204600F063F8052000F02CF8C6
:100AD00000223221204600F05BF8052000F024F8C7
:100AE00094F852100022204600F052F894F8531067
:100AF0000022204600F04CF894F8541000222046C2
:100B000000F046F894F855100022204600F040F816
:100B100000220121204600F03BF80022022120465D
:100B200000F036F8BDE8F09F10B50446204601F00D
:100B300049FE10BDF8B504460D461646002713A021
:100B4000006800906078A84202DC6078401EC5B260
:100B5000A078B04202DCA078401EC6B21DF80600A4
:100B60002844C7B22078102806D147F0800100221F
:100B7000204600F08BF807E0207828B947F0800184
:100B80000022204600F004F8F8BD00000040145494
:100B90002DE9F04104460F4690463D113E46B8F11E
:100BA000000F05D121890022606801F0CCFF07E029
:100BB000B8F1010F04D121890122606801F0C3FF5F
:100BC00005F001020C34A18DA06A01F0BCFFA18EDA
:100BD000C5F34002206B01F0B6FFA18FC5F3800280
:100BE000A06B01F0B0FFB4F84410C5F3C002206C54
:100BF00001F0A9FFA1880022206801F0A4FF0120D4
:100C0000FFF792FFA1880122206801F09CFF0120DC
:100C1000FFF78AFFA1880022206801F094FF0120DD
:100C2000FFF782FF06F00102A18DA06A01F08BFFA1
:100C3000A18EC6F34002206B01F085FFA18FC6F3A1
:100C40008002A06B01F07FFFB4F84410C6F3C0022D
:100C5000206C01F078FFA1880022206801F073FF6A
:100C60000120FFF761FFA1880122206801F06BFFDE
:100C70000120FFF759FFA18854F80C09002201F068
:100C800062FF0120FFF750FFBDE8F08170B5044618
:100C90000D4616462EB921890022606801F053FFE7
:100CA00006E0012E04D121890122606801F04BFF8A
:100CB00005F00102218B606901F045FF218CC5F32D
:100CC0004002E06901F03FFF218DC5F38002606AB8
:100CD00001F039FF218EC5F3C002E06A01F033FF55
:100CE000218FC5F30012606B01F02DFFB4F84010A6
:100CF000C5F34012E06B01F026FFB4F84810C5F3CD
:100D00008012606C01F01FFFEA09B4F85010E06C2B
:100D100001F019FF218A0022E06801F014FF012090
:100D2000FFF702FF218A0122E06801F00CFF012099
:100D3000FFF7FAFE218A0022E06801F004FF01209B
:100D4000FFF7F2FE70BD70B504460D4620781028FE
:100D500005D1012229462046FFF798FF06E02078BA
:100D600020B9012229462046FFF712FF70BD70B559
:100D700005460C4604E014F8011B2846FFF7E3FF84
:100D800020780028F7D170BD2DE9F0478AB0814660
:100D90008A461446002600252AE0611B481EFFF7FC
:100DA000D3FB02460B46CDE900010020164905F0B1
:100DB000D9FA0746884619F80510A1F13000FFF767
:100DC000C3FB3A464346CDE90201FFF7DCFACDE921
:100DD00006013046FFF7C9FBCDE90401DDE9062332
:100DE000FFF72AFACDE90801FFF7CCFB06466D1C98
:100DF000A542D2DB0548864202D80CB1CAF8006091
:100E00000AB0BDE8F0870000000024407F969800FB
:100E10001CB50C480C490D4B0D4ACDE900100D498D
:100E20000D4800F037F80A490B48008800F094F8A4
:100E30000948008800F0DCF80748008800F00EF848
:100E40001CBD00003C0100203801002034010020BE
:100E500046010020420100204001002010B5044658
:100E60009CB91021094801F067FE28B9084800889C
:100E700010B90120064908801021044801F05CFEE9
:100E8000012802D100200249088010BD0004024060
:100E9000720000202DE9FC470446884691461D4615
:100EA000DDE90A670421234801F046FE10B901205C
:100EB0002149088020480088012838D104211D4894
:100EC00001F03AFE012832D100201B490880208819
:100ED00010B90120208001E0002020802088012816
:100EE00016D1A8F80000154800682860144800686A
:100EF000306014480068386038683168CDE9001007
:100F000011482B6811490268114801F0B2FA08E053
:100F10000A49286808600A49306808600949386841
:100F200008600120A9F8000004480A490860BDE8EB
:100F3000FC870000000C02406C00002074000020C0
:100F4000780000207C0000208400002000FC0308C2
:100F500000F803088000002070B505460C462021EB
:100F60001C4801F0E9FD10B901201B4908801A480E
:100F7000008801282CD12021164801F0DDFD012830
:100F800026D100201449088014480088E8B904F0EC
:100F900063FE2088032802D10120208002E02088FF
:100FA000401C20802088012802D10D480D4908608E
:100FB0002088022802D10C480A49086020880328AA
:100FC00006D10A480749086002E00020034908806A
:100FD00070BD0000000402406E0000208800002068
:100FE0007400002080000020780000207C00002099
:100FF00010B504469CB90821094801F09DFD28B9A7
:101000000848008810B901200649088008210448D2
:1010100001F092FD012802D100200249088010BD94
:1010200000040240700000202DE9F0439FB0044608
:101030000D4617469846DDE926697A48007800286B
:1010400070D126220EA82968FFF7B9F82868C08C4D
:10105000ADF85E002868816A1891808DADF8640053
:101060002868C08DADF866002868006B1A90286863
:1010700000F1340109221BA8FFF7A1F8286890F8B5
:101080003D008DF87500286890F83E008DF87600D8
:101090002868006C1E90342212A968460D97FFF74D
:1010A0008EF80EA80FC804F0F1FB26220EA82168C6
:1010B000FFF785F82068C08CADF85E002068816A73
:1010C0001891808DADF864002068C08DADF8660081
:1010D0002068006B1A90206800F1340109221BA8D7
:1010E000FFF76DF8206890F83D008DF875002068D6
:1010F00090F83E008DF876002068006C1E90342237
:1011000012A968460D97FFF75AF80EA80FC804F009
:10111000BDFB0120434908704349087001F01AFDE6
:10112000424908603F480078012851D1284600F024
:10113000BBF801284CD126220EA82168FFF73FF802
:101140002068C08CADF85E002068816A1891808D9F
:10115000ADF864002068C08DADF866002068006BB3
:101160001A90206800F1340109221BA8FFF727F824
:10117000206890F83D008DF87500206890F83E00DA
:101180008DF876002068006C1E9005F1080034226E
:1011900012A90D906846FFF712F80EA80FC804F0C8
:1011A00075FB414605F10800FFF72DF850B100200E
:1011B0003070284600F0A5FF01201B4908701FB0C1
:1011C000BDE8F083284600F09CFF02201649087015
:1011D0001548007801280FD101F0BCFC13490968BB
:1011E000401AB0F5FA7F07D93078401C30700020E3
:1011F0000C4908700C4908700B48007802280ED181
:1012000001F0A8FC09490968401A484507D9307817
:10121000401C30700020034908700349087000200A
:10122000CDE7000014000020240000202000002052
:1012300070B504460025E08800282ADD174800889C
:1012400048B901F087FC164908600120134908805D
:10125000E0881449088001F07DFC11490968401AB2
:10126000012819D90D480088012815D1E0880D49B9
:101270000988884205D101F06DFC09490860012503
:101280000AE001F067FC06490860E088054908802B
:1012900002E000200149088068B270BD40000020D3
:1012A0003C0000203800002070B504460025E0888E
:1012B00000282ADD1748008848B901F04BFC164980
:1012C0000860012013490880E0881449088001F073
:1012D00041FC11490968401A012819D90D480088B4
:1012E000012815D1E0880D490988884205D101F00F
:1012F00031FC0949086001250AE001F02BFC064990
:101300000860E0880549088002E000200149088063
:1013100068B270BD48000020440000204200002058
:1013200030B59FB004460D4643A105F10800FEF715
:101330006AFFD8B326220EA82168FEF740FF206876
:10134000C08CADF85E002068816A1891808DADF880
:1013500064002068C08DADF866002068006B1A90AC
:10136000206800F1340109221BA8FEF728FF20683D
:1013700090F83D008DF87500206890F83E008DF8DB
:1013800076002068006C1E9005F10800342212A936
:101390000D906846FEF713FF0EA80FC804F076FA0A
:1013A000284600F0AEFE01201FB030BDFFE726A1A9
:1013B00005F10800FEF727FFD0B326220EA821680A
:1013C000FEF7FDFE2068C08CADF85E002068816AE3
:1013D0001891808DADF864002068C08DADF866006E
:1013E0002068006B1A90206800F1340109221BA8C4
:1013F000FEF7E5FE206890F83D008DF87500206846
:1014000090F83E008DF876002068006C1E9005F183
:101410000800342212A90D906846FEF7D0FE0EA8EF
:101420000FC804F033FA284600F06BFE0120BBE73A
:10143000FFE70020B8E70000444953434F4E4E45B4
:1014400043544544000000004552524F52000000F2
:1014500010B519A21C491D4800F0DCF8012801D183
:101460001B4908701BA21849184800F0D3F801283E
:1014700001D11749087019A21349144800F0CAF89D
:10148000012801D11249087011480078012811D1B2
:1014900003F062FC0C490D4800F012FD0446012CDB
:1014A00002D100200A490870601C10B900200D49C3
:1014B000087000BF10BD0000444953434F4E4E45D5
:1014C0004354454400000000FC0200208C1600201C
:1014D0004B0100204552524F520000004641494CFA
:1014E000000000004A01002070B506460C460025A9
:1014F00018A104F10800FEF786FE08B1681CC5B209
:10150000164904F10800FEF77EFE08B1681CC5B25A
:1015100013A104F10800FEF776FE08B1681CC5B2FD
:1015200010A104F10800FEF76EFE08B1681CC5B2F8
:1015300010A104F10800FEF766FE08B1681CC5B2F0
:101540000EA104F10800FEF75EFE08B1681CC5B2EA
:10155000012070BD535543434553530056000020AE
:101560003E000000444953434F4E4E4543544544CA
:10157000000000004552524F520000004641494CC5
:10158000000000001CB51D480088012819D11C4925
:1015900008230A46CDE900100421194803F0C2FBD4
:1015A000022017490346174ACDE9001001211046D1
:1015B00003F0B8FB002014490880144908600F4963
:1015C000088013480088C0B901200D4908230A4645
:1015D000CDE9001004210A4803F0A4FB02200849C9
:1015E0000346084ACDE900100121104603F09AFB9A
:1015F000002005490880054908601CBD4201002003
:101600000008024000000240440100203001002098
:10161000400100202DE9F041A0B004460D461646D9
:1016200000272046FFF704FE012846D126220FA8F6
:101630002168FEF7C4FD2068C08CADF86200206808
:10164000816A1991808DADF868002068C08DADF871
:101650006A002068006B1B90206800F134010922A9
:101660001CA8FEF7ACFD206890F83D008DF87900CD
:10167000206890F83E008DF87A002068006C1F907A
:1016800004F10800342213A90D906846FEF797FD77
:101690000FA80FC804F0FAF804F10800FEF7C5FD22
:1016A00000F0FF084FF47A73424604F108012868FD
:1016B00002F01EFE204600F024FD2846FFF7F4FD50
:1016C000012842D1314605F10800FEF79CFDD0B358
:1016D00026220FA82168FEF772FD2068C08CADF8A5
:1016E00062002068816A1991808DADF868002068D9
:1016F000C08DADF86A002068006B1B90206800F177
:10170000340109221CA8FEF75AFD206890F83D001C
:101710008DF87900206890F83E008DF87A002068F6
:10172000006C1F9005F10800342213A90D90684643
:10173000FEF745FD0FA80FC804F0A8F8284600F0F2
:10174000E0FC012701E0FFE7002778B220B0BDE808
:10175000F081000070B5A0B004460E464A480078FB
:1017600000283DD101F0F6F9484908604648007864
:10177000401C4549087026220FA82168FEF71FFD6E
:101780002068C08CADF862002068816A1991808D54
:10179000ADF868002068C08DADF86A002068006B65
:1017A0001B90206800F1340109221CA8FEF707FDF8
:1017B000206890F83D008DF87900206890F83E0090
:1017C0008DF87A002068006C1F9031A0342213A994
:1017D0000D906846FEF7F3FC0FA80FC804F056F80A
:1017E0002948007801280AD13146204603F07AFEC4
:1017F000012804D124480078401C2349087022485D
:101800000078022811D13146204600F0CDF9054676
:10181000012D04D11C480078401C1B490870681C2D
:1018200010B900201849087000BF17480078032835
:1018300011D13146204600F035F80546012D04D17E
:1018400011480078401C10490870681C10B900202D
:101850000D49087000BF0C480078042812D13146A9
:10186000204600F07BF80546012D05D100200649F1
:101870000870012020B070BD681C10B9002002491A
:10188000087000BF0020F5E72C0000202800002091
:101890005365747570204D6F64756C652053696D68
:1018A000000000007CB504460D462348007800BBCC
:1018B0004FF4FA70214922A322A2CDE90010294653
:1018C0002046FFF7B1FB012807D100201B49087013
:1018D00019480078401C18490870184800780A28F0
:1018E00006DD00201549087013490870401E7CBDB4
:1018F0001FE04FF4FA70114911A315A2CDE90010B1
:1019000029462046FFF790FB012806D100200B490D
:101910000870094908700120E9E7084800780A289A
:1019200006DD00200549087003490870401EDEE707
:1019300000BF00BF0020DAE7160000201B000020D7
:101940004F4B000041542B434D47463D31000000B2
:1019500041542B434E4D493D312C32007CB5044659
:101960000D466948007805287ED2DFE800F00324A0
:10197000456689004FF4FA70644965A365A2CDE914
:10198000001029462046FFF74FFB012807D1002011
:101990005E4908705C480078401C5B4908705B48F1
:1019A00000780A2806DD002058490870564908705A
:1019B000401E7CBDA5E04FF4FA70544954A35FA2C9
:1019C000CDE9001029462046FFF72EFB012807D15C
:1019D00000204E4908704C480078401C4A49087065
:1019E0004A4800780A2806DD002048490870464920
:1019F0000870401EDDE784E042F21070434953A3B3
:101A000054A2CDE9001029462046FFF70DFB01281E
:101A100007D100203D4908703B480078401C3A49F6
:101A200008703A4800780A2806DD00203749087017
:101A300035490870401EBCE763E042F2107033493C
:101A400042A347A2CDE9001029462046FFF7ECFA51
:101A5000012807D100202D4908702B480078401C30
:101A600029490870294800E02BE000780A2806DDA3
:101A700000202649087024490870401E99E740E07C
:101A80004FF4FA70214922A338A2CDE9001029466B
:101A90002046FFF7C9FA012807D100201B4908702A
:101AA00019480078401C18490870184800780A281E
:101AB00006DD00201549087013490870401E78E7BC
:101AC0001FE042F21070114920A32CA2CDE90010B2
:101AD00029462046FFF7A8FA012806D100200B4925
:101AE000087009490870012063E7084800780A284F
:101AF00006DD00200549087003490870401E58E7BC
:101B000000BF00BF002054E7150000201A0000208D
:101B10004F4B000041542B43495054494D454F55BC
:101B2000543D33303030302C32303030302C343083
:101B30003030302C353030303000000041542B43F1
:101B400049504D4F44453D3000000000535543433C
:101B50004553530041542B4E45544F50454E0000C1
:101B600041542B49504144445200000041542B43FE
:101B7000495052584745543D302C310041542B4375
:101B800049504F50454E3D312C22544350222C2277
:101B90003131332E3139302E3234302E3437222C3D
:101BA000373537372C3000007CB504460D46A44845
:101BB000007808287ED2DFE800F00423436385A57F
:101BC000C5E64FF4FA709F499FA3A0A2CDE900108B
:101BD00029462046FFF728FA012807D10020994915
:101BE000087097480078401C95490870954800781F
:101BF0000A2804DD002093490870401E7CBD11E1D5
:101C00004FF4FA708F4990A391A2CDE900102946B4
:101C10002046FFF709FA012807D1002089490870FA
:101C200087480078401C86490870864800780A2852
:101C300005DD072082490870002082490870F1E024
:101C40004FF4FA707F4980A385A2CDE900102946A0
:101C50002046FFF7E9F9012807D1002079490870EB
:101C600077480078401C76490870764800780A2842
:101C700005DD072072490870002072490870D1E024
:101C80004FF4FA706F4970A378A2CDE9001029468D
:101C90002046FFF7C9F9012807D1002069490870DB
:101CA00067480078401C66490870664800780A2832
:101CB00007DD00E088E007206149087000206149E5
:101CC0000870AFE04FF4FA705E495FA36AA2CDE9F5
:101CD000001029462046FFF7A7F9012807D1002068
:101CE0005849087056480078401C554908705548B6
:101CF00000780A2805DD0720514908700020514965
:101D000008708FE04FF4FA704E494FA35CA2CDE902
:101D1000001029462046FFF787F9012807D1002047
:101D20004849087046480078401C454908704548B5
:101D300000780A2805DD0720414908700020414944
:101D400008706FE042F210703E4950A352A2CDE9F4
:101D5000001029462046FFF767F9012808D1002026
:101D6000384908704F49087035490870012045E727
:101D7000344800780A2805DD072031490870002022
:101D8000304908704EE04FF4FA702E492EA346A257
:101D9000CDE9001029462046FFF746F9012807D172
:101DA00000202849087026480078401C2449087003
:101DB000244800780A2806DD00203A4908702149A5
:101DC0000870401E1AE72DE04FF4FA701D491EA35B
:101DD00038A2CDE9001029462046FFF725F9012851
:101DE00014D10020174908700120154908702D48AA
:101DF0000078401C2B49087008460078032805DB52
:101E0000002008700E490870401EF7E60D48007863
:101E10000A2806DD0020234908700A490870401E80
:101E2000ECE600BF00BF1F480078032806DB002057
:101E30001C49087002490870401EDFE60020DDE6FC
:101E4000170000201C0000204F4B000041540000F0
:101E500041542B434950434C4F53453D3100000002
:101E600041542B4350494E3F0000000041542B4346
:101E7000494343494400000041542B43535100005F
:101E800041542B43475245473F00000043474154CC
:101E9000543A20310000000041542B434741545430
:101EA0003F0000001D00002041542B4346554E3D8D
:101EB0003400000041542B4346554E3D3100000094
:101EC00070B505460E463C48007868B900F042FE01
:101ED0003A4908603A480078401C39490870364849
:101EE0000078401C3449087033480078012811D12B
:101EF0003146284603F06EFC0446012C04D12E48DE
:101F00000078401C2C490870601C10B900202A4938
:101F1000087000BF28480078022811D131462846B1
:101F2000FFF742FE0446012C04D123480078401CF0
:101F300021490870601C10B900201F49087000BFBB
:101F40001D480078032811D131462846FFF7AAFC26
:101F50000446012C04D118480078401C164908702A
:101F6000601C10B900201449087000BF12480078A6
:101F7000042813D131462846FFF7F0FC0446012C13
:101F800006D100200C4908700D490870012070BD71
:101F9000601C10B900200849087000BF084800788C
:101FA000022806DB00200449087005490870401E1D
:101FB000EDE70020EBE700002C00002028000020C7
:101FC000190000201948006820301949096801F5F6
:101FD000806188420AD91648006800F5806014497B
:101FE0000860084600681149086012E00F48006860
:101FF00020300E490860084601680D48006800F569
:102000008060814205D10A48006800F58060084977
:102010000860074800680749884206D10648044915
:1020200008600846006801490860704760000020A9
:102030006800002000F40308009001082A480068A6
:1020400020302A49096801F5806188420AD9274869
:10205000006800F58060254908600846006822494C
:10206000086012E02048006820301F4908600846D8
:1020700001681E48006800F58060814205D11B4858
:10208000006800F580601949086018480068184920
:10209000884206D117481549086008460068124969
:1020A0000860114800681449096888421BD80F4825
:1020B000006812490968884215D11048006800F587
:1020C00080600E490860084600680B4908600B48AC
:1020D00000680749884206D1064808490860084652
:1020E00000680549086070475C000020640000201B
:1020F00000F4030800900108600000206800002040
:10210000704770B504460020E080207104F108009B
:10211000FEF78BF80546002004E0002204F10801D8
:102120000A54401CA842F8DB70BD000010B50C4AF0
:102130000C490D4803F060F90948028809480188F4
:102140000948008802F066F90548028805480188B8
:102150000548008803F012FE044803F0FFFD10BD9F
:10216000500100204E0100204C010020A40200205C
:1021700010B51248007801280CD100F0EBFC104992
:102180000968401AB0F57A7F04D900200B4908701D
:10219000012010BD0948007802280CD100F0DAFCBB
:1021A00007490968401AB0F57A7F04D9002003492D
:1021B00008700120EDE70020EBE70000540000204C
:1021C0005000002070470000074900224A6107497B
:1021D0000B6843F400730B600B6843F008030B605B
:1021E00020F0FF0002607047302A0020043C0240CB
:1021F0000146086870472DE9F04105460F4608245E
:10220000A0464FEA880004F077F80646002005E073
:10221000296846F820102D1D411CC8B2A042F7DBEA
:10222000002013E018228306190E08E056F820302B
:10223000D3407B54A2F10803DAB24B1CD9B2042379
:1022400003EB80038B42F1DC411CC8B2A042E9DB06
:10225000304603F07DFFBDE8F081000000201F4AFA
:10226000116811F4807F1E4904D0486940F00200D3
:1022700048619015136813F4007F05D04B6943F053
:1022800001034B6140F40070136813F4006F05D034
:102290004B6943F004034B6140F40060136813F48E
:1022A000005F05D04B6943F010034B6140F40050D0
:1022B000136813F4805F05D04B6943F020034B6132
:1022C00040F48050136813F4806F05D04B6943F0DD
:1022D00008034B6140F4806010607047183C024076
:1022E000302A002070B5044600F034FC06461C4D30
:1022F000286810F0010F0ED0B4F1FF3F07D024B1D1
:1023000000F028FC801BA04201D9032070BD286882
:1023100010F0010FF0D1286810F0020F01D0022058
:102320002860286810F4807F13D1286810F4006FAB
:102330000FD1286810F4005F0BD1286810F4805F7B
:1023400007D1286810F4806F03D1286810F4007F4B
:1023500003D0FFF783FF012070BD002070BD000097
:10236000183C02402DE9F04706460F4600F0ACFA53
:102370000825A9464FEA890003F0BEFF0446002065
:1023800015E0395C44F820108206110E08E07A5CF2
:1023900054F8203042EA032244F820204A1CD1B2EB
:1023A000042202EB80028A42F1DC411CC8B2A8423E
:1023B000E7DB4FF000080AE054F8282031460220FD
:1023C00000F062FA361D08F1010000F0FF08A84590
:1023D000F2DB00F04FFA204603F0BAFEBDE8F087CA
:1023E0002DE9FF4705460F4600F06EFA00200190E8
:1023F00002950420039000200090694601A800F097
:10240000F5F90826B1464FEA890003F075FF044646
:10241000002015E0395C44F820108206110E08E017
:102420007A5C54F8203042EA032244F820204A1C07
:10243000D1B2042202EB80028A42F1DC411CC8B214
:10244000B042E7DB4FF000080AE054F828202946A4
:10245000022000F019FA2D1D08F1010000F0FF081C
:10246000B045F2DB00F006FA204603F071FEBDE84D
:10247000FF872DE9FF4704460D4617461E46DDE956
:102480000C8900F021FA002001900294281B000A18
:10249000039000200090694601A800F0A7F93A4691
:1024A0002146022000F0F0F93246211D022000F002
:1024B000EBF9424604F10801022000F0E5F94A4632
:1024C00004F10C01022000F0DFF900F0D3F9BDE8BF
:1024D000FF8700002DE9F0439FB005460C461646E5
:1024E0001F46DDE9268998F8000001284ED187486B
:1024F000007800283BD126220EA82168FDF75FFE58
:102500002068C08CADF85E002068816A1891808DCB
:10251000ADF864002068C08DADF866002068006BDF
:102520001A90206800F1340109221BA8FDF747FE2C
:10253000206890F83D008DF87500206890F83E0006
:102540008DF876002068006C1E9071A0342212A9CC
:102550000D906846FDF733FE0EA80FC803F096F9FC
:1025600000F0F8FA6D490860012068490870674872
:10257000007801280AD100F0EDFA68490968401A8C
:10258000B0F5FA7F02D90020604908702046FEF7B6
:102590008BFE01287ED121462846FEF7C1FE012888
:1025A00079D05FA104F10800FDF72DFE002871D05D
:1025B00026220EA82968FDF702FE2868C08CADF817
:1025C0005E002868816A1891808DADF864002868E3
:1025D000C08DADF866002868006B1A90286800F17D
:1025E000340109221BA8FDF7EAFD286890F83D0098
:1025F0008DF87500286890F83E008DF87600286800
:10260000006C1E9004F10800342212A90D90684657
:10261000FDF7D5FD0EA80FC803F038F9002067E0DC
:1026200004F10801095C222960D104F1080100F1DC
:102630001502895C222959D104F10801121F8B5C13
:10264000521E895C303901EB810103EB41013039C5
:10265000B17104F10801921E8B5C521E895C303905
:1026600001EB810103EB41013039717104F1080183
:10267000921E8B5C521E895C303901EB810103EBA9
:1026800041013039317104F10801921E8B5CC21D89
:10269000895C01E036E033E0303901EB810103EB86
:1026A00041013039F17004F10801421D8B5C021DBB
:1026B000895C303901EB810103EB41013039B170A4
:1026C00004F10801821C8B5C421C895C303901EBEF
:1026D000810103EB410130397170012189F800104B
:1026E00000210A4A117088F8001004E0411C88B2E9
:1026F000E188814294DC00BF2046FFF702FD01E043
:10270000012038701FB0BDE8F083000030000020C9
:1027100041542B43434C4B3F000000003400002049
:1027200043434C4B3A00000090F82110002202294C
:1027300005D00421816380F82020012070470168C2
:102740000B6823F00E030B6001680B6823F0010394
:102750000B6090F84010D0F83CC001F01C03012140
:1027600001FA03F3CCF8043080F8211080F820201F
:102770001046704710B5002490F82110022903D0AC
:102780000421816301241AE001680A6822F00E0224
:102790000A6001680A6822F001020A6090F840109D
:1027A000C36B01F01C02012101FA02F25A6080F8A9
:1027B0002110002180F82010416B01B1884720468C
:1027C00010BD000070B5044600F0C4F90546B4F130
:1027D000FF3F02D004484068044400F0BBF9401BAE
:1027E000A042FAD370BD0000680100202DE9F0413D
:1027F00005460F46DFF8748098F81000012808D0CD
:10280000012088F810004CF25030FFF76BFD18B132
:1028100026E00220BDE8F0814FF0FF3139606C689E
:10282000A96804EB0121A1421AD9114E2046FFF7F5
:10283000CBFC4CF25030FFF755FD316821F0080118
:102840003160316821F40071316008B13C6007E00B
:1028500004F58074AA68696801EB0221A142E5D8F9
:10286000002188F81010BDE8F0810000302A002017
:10287000043C02400348016841F00201016000206D
:1028800070470000043C02402DE9F0410E46174617
:102890000C4C207C012808D0012020744CF25030D0
:1028A000FFF720FD002518B108E00220BDE8F08107
:1028B000656137604CF25030FFF714FD2574BDE8B8
:1028C000F0810000302A00201048016811F0020F4A
:1028D00019D0016811F0010F0AD00E490C4A0A60A4
:1028E0000D4A0A60016811F0010F01D00120704704
:1028F0000B490A4A0A600B4A0A60006810F0020F8E
:1029000001D001207047002070470000043C0240C5
:10291000EFCDAB890C3C024005040302BFAE9D8C99
:10292000103C0240161514132DE9F84F00220B68D5
:10293000002B7CD0DFF8F4A1DFF8EC914FF0010E12
:1029400003274FF00F080AF1040B0B680EFA02F48C
:102950002340002B6CD091F804C00CF0030CBCF1A8
:10296000010F02D0BCF1020F18D185684FEA420C6A
:1029700007FA0CF6B543CE6806FA0CFC4CEA050CD7
:10298000C0F808C0D0F804C02CEA040C0C79C4F3D9
:102990000014944044EA0C0CC0F804C0D1F804C000
:1029A00037EA0C0C0CD0C4684FEA420C07FA0CF55D
:1029B000AC438D6805FA0CFC4CEA040CC0F80CC062
:1029C00091F804C00CF0030CBCF1020F12D14FEAD5
:1029D000D20C00EB8C04256A4FEA427C4FEADC6C97
:1029E00008FA0CF6B5430E6906FA0CFC4CEA050C25
:1029F000C4F820C004684FEA420C07FA0CF5AC4357
:102A00000D7905F0030505FA0CFC4CEA040CC0F83E
:102A100000C0D1F804C01CF4403F6FD0D9F800C00A
:102A20004CF0010CC9F800C0D9F800C001E06AE020
:102A300064E00CF0010CCDF800C022F0030C0CF1A6
:102A4000804505F58035D5F808C09407240F08FAAD
:102A500004F62CEA0606A0F1804CBCF5003C54D0EC
:102A6000A0F1804CBCF5013C52D0A0F1804CBCF5EB
:102A7000023C50D0A0F1804CBCF5033C4ED0A0F1FC
:102A8000804CBCF5043C4CD04FF0050C0CFA04FC17
:102A90004CEA060CC5F808C0DAF800C02CEA030CB2
:102AA0004C6814F4803F01D04CEA030CCAF800C013
:102AB000DBF800C02CEA030C4C6814F4003F01D092
:102AC0004CEA030CCBF800C0194CD4F800C02CEA37
:102AD000030C4D6815F4801F01D04CEA030CC4F8B8
:102AE00000C0144CD4F800C02CEA030C4D6815F457
:102AF000001F01D04CEA030CC4F800C0521C0B6844
:102B0000D3407FF422AFBDE8F88F4FF0000CBDE753
:102B10004FF0010CBAE74FF0020CB7E74FF0030C8F
:102B2000B4E74FF0040CB1E7203802400004014044
:102B3000080401400C0401400069084201D0012052
:102B4000704700207047002A01D081617047090456
:102B5000816170470148806870470000680100206B
:102B60000248816842681144816070476801002012
:102B700010B50024032000F0A1F8002000F008F8B0
:102B800008B1012401E000F029F8204610BD000042
:102B900070B5054600240F4E7068002817D04FF41A
:102BA0007A71B1FBF0F00C490968B1FBF0F000F06C
:102BB000AFFF08B101240BE0102D06D200222946F8
:102BC000501E00F047F8356002E0012400E00124C7
:102BD000204670BD680100206401002008B500BFD8
:102BE0001448006840F00040124908600846006838
:102BF00000F00040009000BF00BF00BF081F006849
:102C000040F00100091F08600846006800F001005C
:102C1000009000BF00BF00BF081D006840F080505A
:102C2000091D08600846006800F08050009000BF51
:102C300000BF08BD2438024000280ADB00F01F0155
:102C4000012202FA01F14009800000F1E020C0F801
:102C50000011704710B4184B1B68C3F30223C3F173
:102C6000070CBCF1040F01D94FF0040C1C1D072CFC
:102C700001D2002300E0DB1E012404FA0CFCACF1BD
:102C8000010C0CEA0101994004FA03F35B1E1A409F
:102C90001143002806DB00F1E020090180F8001450
:102CA00010BC704700F00F0000F1E020090180F82F
:102CB000141D10BC704700000CED00E000F0070090
:102CC000064A11684FF6FF03194041EA002040F020
:102CD000FD7040F080601060704700000CED00E077
:102CE0002DE9F84F0446207810F0010F71D000272D
:102CF000DFF82C81D8F8000010F0805F0BD1D8F8F5
:102D0000000040F08050C8F80000D8F8000000F043
:102D1000805000900127434D286810F4807F16D121
:102D2000286840F480702860FFF714FF0646286882
:102D300010F4807F0BD1FFF70DFF801B642802D9B0
:102D40000320BDE8F88F286810F4807FF3D0DFF807
:102D5000D890D9F8000000F0C04160684FF4403AC4
:102D600000F0C0428A420AD03AEA000107D1D9F8FD
:102D7000001011F4003F02D00120BDE8F88F2B4E67
:102D8000316801F4403149B300F44030884225D025
:102D9000207810F0010F21D0306820F44030244911
:102DA00001220A6000220A60306010F4807F15D092
:102DB000FFF7D0FE0546306810F4007F0ED141F2D7
:102DC000883BFFF7C7FE401B584503D90320BDE8E9
:102DD000F88F22E0306810F4007FF2D0207810F0F5
:102DE000010F12D060683AEA000108D1D9F800104A
:102DF00000F0C04021F0C0410843C9F8000030682D
:102E0000616801F4403108433060012F05D1D8F8E2
:102E1000000020F08050C8F800000020BDE8F88FC6
:102E2000243802400070004000380240343802402C
:102E3000DC0647422DE9F04704460D46002C0AD037
:102E4000DFF8E881D8F8000000F00100A8421BD2AA
:102E5000012D03D008E00120BDE8F087D8F800007C
:102E600040F00400C8F80000D8F8000020F001008D
:102E70002843C8F80000D8F8000000F00100A8427C
:102E800002D00120BDE8F0872078694F10F0020FD2
:102E900005D03868A16820F0F00008433860207839
:102EA00010F0010F7ED060686249022808D0032824
:102EB0000DD0012812D0096811F4007F32D011E042
:102EC000096811F4003F0DD10120BDE8F0870968C1
:102ED00011F0007F06D10120BDE8F087096811F0EC
:102EE000020F1CD0396821F0030108433860FFF756
:102EF00031FE0646606841F28839022815D0032861
:102F000026D0012837D0386810F00C0F4AD0FFF7D0
:102F100021FE801B484541D90320BDE8F0870120F0
:102F2000BDE8F0870120BDE8F087386800F00C00AC
:102F3000082837D0FFF70EFE801B484502D9032032
:102F4000BDE8F087386800F00C000828F2D129E0CD
:102F500038684FF00C0A3AEA000023D0FFF7FAFD78
:102F6000801B484502D90320BDE8F08738683AEA5B
:102F70000000F3D116E0386800F00C00042811D0EE
:102F8000FFF7E8FD801B484502D90320BDE8F08724
:102F9000386800F00C000428F2D103E0386810F023
:102FA0000C0FB4D1D8F8000000F00100A84217D9E6
:102FB000012D05D1D8F8000040F00400C8F8000049
:102FC000D8F8000020F001002843C8F80000D8F825
:102FD000000000F00100A84202D00120BDE8F08707
:102FE000207810F0040F05D03868E16820F4E06024
:102FF00008433860207810F0080F06D0386821693F
:1030000020F4605040EAC100386000F041F83968AF
:10301000094AC1F30311515CC840084908600848D7
:103020000068BDE8F047FFF7B3BD0000003C024078
:103030000838024000380240916D00086401002009
:10304000680100200148006870470000640100200A
:1030500000B5FFF7F7FF04490968044AC1F30221EC
:10306000515CC84000BD000008380240A16D000856
:1030700000B5FFF7E7FF04490968044AC1F3C2211C
:10308000515CC84000BD000008380240A16D000836
:1030900010B5184C2168184801F00C02042A0ED013
:1030A000DFF858C0082A0BD00C2A0BD0201F00686C
:1030B000C0F34230401C4FF4004101FA00F010BD53
:1030C000604610BD0E4AC1F38343D35CC1F3815106
:1030D0004A1C216811F4803F05D0A3FB0C0100239A
:1030E000FDF73CF810BDA3FB00010023FDF736F807
:1030F00010BD0000083802400024F40000366E01C4
:10310000886D00082DE9F04F83B00446002C10D0E4
:10311000FE48016801F00C05006800F48039207851
:10312000FB4E10F0010F67D0082D21D00C2D04D0DC
:1031300006E003B00120BDE8F08FB9F5803F17D05D
:10314000606801281ED010B3052829D0306820F40B
:1031500080303060306820F480203060606888B350
:10316000FFF7F8FC0746306810F4003F21D043E039
:10317000306810F4003F3FD0606840BB03B00120CE
:10318000BDE8F08F306840F480303060E6E73068AA
:1031900020F480303060306820F480203060DDE73B
:1031A000306840F480203060306840F48030306017
:1031B000D4E7FFF7CFFCC01B642804D903B0032079
:1031C000BDE8F08F04E0306810F4003FF1D013E068
:1031D000FFF7C0FC0746306810F4003F0CD0FFF743
:1031E000B9FCC01B642803D903B00320BDE8F08FED
:1031F000306810F4003FF2D12078DFF818B3C64FE2
:1032000010F0020F4FF001084FF0000A57D0042DC4
:1032100010D00C2D02D1B9F1000F0BD0E068B0B383
:10322000C7F80080FFF796FC8146306810F0020F67
:1032300015D022E0306810F0020F06D0E0680128B7
:1032400003D003B00120BDE8F08FDBF80000216956
:1032500020F4F85040EA0120CBF800002FE0FFF7FF
:1032600079FCA0EB0900022803D903B00320BDE8D4
:10327000F08F306810F0020FF1D0DBF80000216908
:1032800020F4F85040EA0120CBF8000017E0FFE7F7
:10329000C7F800A0FFF75EFC8146306810F0020F0F
:1032A0000DD0FFF757FCA0EB0900022803D903B0AB
:1032B0000320BDE8F08F306810F0020FF1D12078C4
:1032C00010F0100F61D05DB1A06988B3C7F82080FD
:1032D000FFF740FC8146306810F4007F56D063E071
:1032E000306810F4007F01D0A06968B1206ADBF873
:1032F000001001F4604188421BD901F025FB38B170
:1033000003B00120BDE8F08F03B00120BDE8F08FCD
:10331000DBF80000216A20F460400843CBF800008D
:10332000217FDBF8000061F31F60CBF8000016E09E
:103330004AE0DBF8001021F460410843CBF80000BC
:10334000217FDBF8000061F31F60CBF80000206AEA
:1033500001F0FAFA18B1012003B0BDE8F08F206A3D
:103360004FF4004108EB50308140684800686B4AD8
:10337000C0F30310105C21FA00F069490860694845
:103380000068FFF705FC0028E6D134E0FFF7E2FB18
:10339000A0EB0900022803D903B00320BDE8F08F99
:1033A000306810F4007FF1D0DBF80000216A20F4CF
:1033B00060400843CBF80000217FDBF8000061F398
:1033C0001F60CBF8000016E0C7F820A0FFF7C2FB93
:1033D0008146306810F4007F0DD0FFF7BBFBA0EBF7
:1033E0000900022803D903B00320BDE8F08F30683C
:1033F00010F4007FF1D12078DFF82C9110F0080F45
:1034000035D04A486169C9B1C0F80080FFF7A2FB16
:103410008346D9F8000010F0020F28D1FFF79AFB7D
:10342000A0EB0B00022803D903B00320BDE8F08F06
:10343000D9F8000010F0020FF0D018E0C0F800A09A
:10344000FFF788FB8346D9F8000010F0020F0ED07A
:10345000FFF780FBA0EB0B00022803D903B0032089
:10346000BDE8F08FD9F8000010F0020FF0D12078FD
:1034700010F0040F7BD04FF0000B2D48006810F0C7
:10348000805F0AD12A48016841F0805101600068DC
:1034900000F0805001904FF0010B2648016811F4B4
:1034A000807F1BD1006840F4807122480160FFF7E3
:1034B00051FB02901F48006810F4807F0ED1FFF787
:1034C00049FB0299401A642803D903B00320BDE8E0
:1034D000F08F1848006810F4807FF0D0A0680128B1
:1034E00031D048B3052844D0D9F8000020F48070CA
:1034F000C9F80000D9F8000020F48060C9F8000085
:10350000A068A8B3FFF726FB029016E00838024037
:10351000003802400438024000004742916D000824
:1035200064010020680100203438024080064742D0
:1035300024380240007000400CE0D9F8000010F47C
:10354000007F23D04DE0D9F8000040F48070C9F826
:103550000000D5E7D9F8000020F48070C9F8000019
:10356000D9F8000020F48060C9F80000C8E740E006
:103570001EE0D9F8000040F48060C9F80000D9F8D6
:10358000000040F48070C9F80000B9E7FFF7E2FAE4
:103590000299411A41F28830814203D903B00320D5
:1035A000BDE8F08FD9F8000010F4007FEED018E0ED
:1035B000FFF7D0FA0290D9F8000010F4007F10D085
:1035C000FFF7C8FA0299411A41F28830814203D9C3
:1035D00003B00320BDE8F08FD9F8000010F4007F9D
:1035E000EED1BBF1010F04D13D48016821F08051BB
:1035F0000160606AE8B30C2D52D0022811D0C7F8E0
:1036000060A0FFF7A7FA0446306810F0007F62D090
:10361000FFF7A0FA001B02283DD903B00320BDE844
:10362000F08FC7F860A0FFF795FA0546306810F0F4
:10363000007F0CD0FFF78EFA401B022803D903B09D
:103640000320BDE8F08F306810F0007FF2D1E16A0E
:10365000A06A226B01432348036823F47D031A43C5
:1036600011430160C7F86080FFF774FA04463068C0
:1036700000E030E010F0007F2DD1FFF76BFA001B67
:10368000022803D903B00320BDE8F08F306810F0A2
:10369000007FF2D01FE0306810F0007FB8D11AE050
:1036A000012814D00F480068A26A00F480319142CA
:1036B00009D1E26A00F47011914204D1216B00F447
:1036C0004000884207D003B00120BDE8F08F03B06E
:1036D0000120BDE8F08F03B00020BDE8F08F0000AE
:1036E00024380240083802400068503000EB810066
:1036F000006870470068503000EB8100026070473E
:1037000000B50B460068406820F0C00121F07F4101
:10371000080CD870C1F3042C83F801C001F03F0CF1
:1037200083F802C0C1F342311970002A0AD101F0B6
:1037300057F9D870587801F053F95870987801F01B
:103740004FF99870002000BD00B50B460168896AEA
:1037500089B2596001680969C1F30E019960006876
:10376000006810490140C1F305401870C1F3062CF0
:1037700083F801C001F07F0C83F802C001F48001DE
:10378000090CD970002A0AD101F02AF9187058786A
:1037900001F026F95870987801F022F9987000200D
:1037A00000BD00007F7F7F0070B50446002C02D072
:1037B000607F10B106E0012070BD00202077204618
:1037C00000F050F8022060772168CA204862216822
:1037D00053204862204601F018F9FF25042620B145
:1037E000206845626677012070BD2068816821F0FD
:1037F000400121F4E00181602068816862686369AA
:10380000114322691A43114381602168E06808610D
:1038100020680169228941EA024101612068C1688A
:1038200021F08001C1602068806810F0200F08D16D
:10383000204600F011F920B120684562667701202A
:1038400070BD2068016C21F4802101642068016C46
:10385000A26911430164206845620120607700205D
:1038600070BD0000034A0168914202D10121024A61
:103870001160704700280040D80647422DE9F04704
:1038800004460B46207F012805D00126267702201A
:1038900060771AB10AE00220BDE8F087587810F08E
:1038A000100F03D000F0EF000A30587012B3987870
:1038B000D9781A7840EA01405978090241EA423140
:1038C00040EA01052168CA20486221685320486205
:1038D000204601F09AF800274FF0FF084FF0040946
:1038E000C8B12068C0F8248084F81D902777012093
:1038F000BDE8F087D87801F07CF80204587801F030
:1039000078F842EA0022987801F073F819781043A9
:1039100040EA4135D6E7216825F0C00020F07F401D
:1039200048602068C16821F08001C160204600F035
:1039300093F840B12068C0F8248084F81D90277760
:103940000120BDE8F0872068C0F8248066772777DB
:103950000020BDE8F08700002DE9F04704460D4641
:10396000207F01280DD04FF0010984F81C9002201F
:103970006077002742B12068806810F0400F1BD1AB
:1039800019E00220BDE8F0872068806810F0400F41
:1039900000D1EF70287801F02CF80204687801F06B
:1039A00028F842EA0022A87801F023F8E9781043C9
:1039B00040EA01460BE0EF70A8782978EA7840EAFF
:1039C00001406978090241EA024140EA01062168A2
:1039D000CA204862216853204862204601F015F849
:1039E0004FF0FF084FF0040A40B12068C0F824806F
:1039F00084F81DA027770120BDE8F08715482168CD
:103A0000304008602068816821F480218160296944
:103A1000E868014320688268114381602068C168BA
:103A200021F08001C160204600F016F840B1206806
:103A3000C0F8248084F81DA027770120BDE8F08716
:103A40002068C0F8248084F81D9027770020BDE806
:103A5000F08700007F7F7F0070B504462068816892
:103A600011F0200F18D1C16821F0A001C160FFF74B
:103A700071F805462068C06810F0200F0CD1FFF7E0
:103A800069F8401BB0F57A7F01D9032070BD20682A
:103A9000C06810F0200FF2D0002070BD15480068FB
:103AA000401C1449086014480088012804D11348B8
:103AB0000088401C1149088011480088012803D063
:103AC00010480088012805D10F480088401C0E4985
:103AD000088004E000200C4908800C4908800A484E
:103AE0000088B0F5FA7F04DD08480088401C0749CB
:103AF000088070470C000020040000200A0000200D
:103B00000000002002000020080000200600002025
:103B1000401EB0F1807F01D3012070474FF0E021BB
:103B20004861044AF0201070002088610720086175
:103B30000020704723ED00E010B5FFF7AFFF10BD88
:103B400030B490F83820012A30D0012480F8384071
:103B5000022280F839200268D2F804C093682CF061
:103B6000700C0D6845EA0C0CC2F804C00268B2F192
:103B7000804F0ED0A2F1804CBCF5806C09D0A2F130
:103B8000804CBCF5006C04D0A2F1804CBCF5843CA8
:103B900004D123F0800349681943916080F83940CB
:103BA000002180F8381030BC0020704730BC022063
:103BB000704710B50446002C03D094F8390010B1BA
:103BC00007E0012010BD002084F83800204600F0F6
:103BD00017F8022084F83900211D206801F032FD19
:103BE000012084F83E0084F83A0084F83B0084F811
:103BF0003C0084F83D0084F83900002010BD00002E
:103C000038B504462068B0F1804F15D100BF0B488D
:103C1000006840F00100094908600846006800F0AB
:103C20000100009000BF00BF002203211C20FFF70D
:103C300011F81C20FFF700F838BD000024380240BE
:103C400090F83910012901D001207047022180F835
:103C500039100168CA6842F00102CA600068B0F118
:103C6000804F14D0A0F18041B1F580610FD0A0F158
:103C70008041B1F500610AD0A0F18041B1F58431F5
:103C800005D0016841F001010160002070478168A2
:103C900001F007010629F8D0016841F00101016037
:103CA000F3E770B5044694F83800012818D00125D0
:103CB00084F83850022084F839002068826822F0A5
:103CC000770222F47F4282600868502832D00EDCEE
:103CD00020284DD006DC00284AD010284DD147E0DE
:103CE000022070BD302843D0402846D136E06028FD
:103CF0002AD0702806D0B0F5805F3ED0B0F5005FC6
:103D00003BD10BE0CB684A688968206801F0DEFC93
:103D10002068816841F0770181602EE0CB684A68B5
:103D20008968206801F0D2FC2068816841F48041F4
:103D3000816022E0CA684968206801F0DAFC5021FD
:103D4000206801F0CEFC18E0CA684968206801F0DC
:103D5000E3FC6021206801F0C4FC0EE0CA684968F9
:103D6000206801F0C6FC4021206801F0BAFC04E0A4
:103D700022680146104601F0B4FC84F83950002056
:103D800084F8380070BD704770B50446206801693A
:103D90004FF0000511F0020F17D0C16811F0020FAB
:103DA00013D0E91E0161012020762068806910F09F
:103DB000030F03D02046FFF7E6FF05E0204600F0A2
:103DC0007DF8204600F07BF825762068016911F027
:103DD000040F18D0C16811F0040F14D06FF0040163
:103DE0000161022020762068806910F4407F03D0B2
:103DF0002046FFF7C8FF05E0204600F05FF82046A8
:103E000000F05DF825762068016911F0080F18D0E0
:103E1000C16811F0080F14D06FF00801016104208F
:103E200020762068C06910F0030F03D02046FFF70A
:103E3000AAFF05E0204600F041F8204600F03FF8D8
:103E400025762068016911F0100F18D0C16811F0B3
:103E5000100F14D06FF01001016108202076206847
:103E6000C06910F4407F03D02046FFF78CFF05E0C7
:103E7000204600F023F8204600F021F8257620683F
:103E8000016911F0010F09D0C16811F0010F05D0CF
:103E90006FF001010161204600F012F8206801690D
:103EA00011F0400F09D0C16811F0400F05D06FF03C
:103EB00040010161204600F013F870BD7047704763
:103EC000054A01681268914204D104490968491CF5
:103ED000024A116070470000DC0100203001002020
:103EE0007047704770470000F8B5044622681068B4
:103EF000D168536900F00F0CBCF1000F0AD110F02B
:103F0000200F07D011F0200F04D02046BDE8F84064
:103F100001F003BD0025BCF1000F6DD003F0010CD2
:103F200001F490765CEA060666D010F0010F06D028
:103F300011F4807F03D0226C42F00102226410F061
:103F4000040F06D013F0010F03D0226C42F00202DE
:103F5000226410F0020F06D013F0010F03D0226C80
:103F600042F00402226410F0080F08D001F0200291
:103F700052EA0C0203D0226C42F008022264226C46
:103F8000002A2FD010F0200F05D011F0200F02D002
:103F9000204601F0C2FC20684069C0F38010216C0B
:103FA00011F0080F00D110B3204601F091FC2068F9
:103FB000416911F0400F16D0416921F04001416183
:103FC000A06B60B147494163A06BFEF7D3FB0028AB
:103FD00008D0A06B416B01B0BDE8F0400847204617
:103FE000FFF780FFF8BD2046FFF77CFFF8BD2046B5
:103FF000FFF778FF2564F8BD236B012B5BD110F030
:10400000100F58D011F0100F55D010685068009064
:1040100050694FF0200310F0400F2ED0A16B0868BC
:10402000406880B20028E6D0B4F82CC08445E2D9BC
:10403000E0858869202818D0D06820F48070D0608E
:104040002068416921F0010141612068416921F046
:104050004001416184F83E3025632068C16821F049
:104060001001C160A06BFEF75FFBA08DE18D401ACF
:1040700081B22046FFF735FFF8BDA08DE18D401AD3
:1040800081B2E08D0028F7D00029F5D0D06820F467
:104090009070D0602068426922F00102426184F889
:1040A0003E3025632068C26822F01002C2602046BC
:1040B000FFF717FFF8BD10F0800F07D011F0800F49
:1040C00004D02046BDE8F84001F04BBD10F0400F91
:1040D000F0D011F0400FEDD02046BDE8F84001F0DF
:1040E0000FBC0000C158000870B50446002C04D075
:1040F00094F83D00002510B106E0012070BD84F861
:104100003C50204600F022F8242084F83D0020682E
:10411000C16821F40051C160204601F05DFC2068B7
:10412000016921F4904101612068416921F02A016F
:1041300041612068C16841F40051C16025642020BC
:1041400084F83D0084F83E00002070BD10B586B0B4
:104150000446142101A8FCF74BF83A49206888422C
:1041600032D100BF3848006840F4804036490860CA
:104170000846006800F48040009000BF00BF00BF08
:10418000081F006840F00200091F08600846006828
:1041900000F00200009000BF00BFC020019002208C
:1041A000029000200390032004900720059001A9AD
:1041B0002648FEF7B9FB002202212520FEF74AFD22
:1041C0002520FEF739FD3AE021492068884236D1A2
:1041D00000BF1D48001D006840F480201A49091DD9
:1041E00008600846006800F48020009000BF00BF0F
:1041F00000BF1548001F006840F004001249091F65
:1042000008600846006800F00400009000BF00BF8E
:104210004FF44060019002200290002003900320A0
:1042200004900720059001A90A48FEF77DFB0022B3
:1042300002212720FEF70EFD2720FEF7FDFC06B029
:1042400010BD000000380140203802400004024048
:10425000004800400008024090F83E30202B01D07A
:104260000220704759B152B190F83C30012B08D070
:10427000012380F83C300023036301F057BC012088
:10428000704702207047000010B5044614492068AA
:10429000096888420ED113480179C288C088401C41
:1042A000104BD88003F1080081540122011F0C48F3
:1042B000FFF7D2FF0C492068096888420ED10B48ED
:1042C0000179C288C088401C084BD88003F10800DF
:1042D00081540122011F0448FFF7BEFF10BD0000FA
:1042E00060020020FC0200201C0200208C1600202E
:1042F0002DE9F84304460E4615461F4694F83D0046
:10430000202802D00220BDE8F883C6B1BDB194F8E0
:104310003C00012816D0012084F83C004FF0000931
:10432000C4F84090212084F83D00FEF713FC80463D
:10433000A584E584A068B0F5805F06D007E0012081
:10434000BDE8F8830220BDE8F883206980B13546D6
:10435000002684F83C90E08CB8B1434600228021CE
:104360002046009701F02CFC20B10320BDE8F88323
:104370000025EEE7A5B12168287848606D1CE08C27
:10438000401EE084E08C0028E7D143460022402113
:104390002046009701F014FC48B10320BDE8F883E3
:1043A00030882168C0F308004860B61CE7E7202089
:1043B00084F83D000020BDE8F883704700BFFEE7A9
:1043C00010B50E4B1B68984204D00C4B18600123AB
:1043D0000B4C23810B4B1B68994204D0094B19608D
:1043E0000123094C2381094B1B689A4204D0074BD7
:1043F0001A600123064C238110BD00008C000020B0
:104400000C010020900000201801002094000020E2
:104410002401002010B50E4B1B68934204D00C4BB6
:104420001A6001230B4C23810B4B1B888B4204D059
:10443000094B19800123094C2381094B1B888342B6
:1044400004D0074B18800123064C238110BD0000C7
:1044500098000020000100209C000020F4000020B3
:104460009E000020E80000202DE9F04180460C4627
:1044700015461E46069F2889012807D1012C05D123
:104480002946404600F077F800202881308901282D
:1044900007D1022C05D13146404600F06CF80020CF
:1044A00030813889012807D1032C05D1394640468F
:1044B00000F061F800203881BDE8F08170B5064653
:1044C0000C4615462089012807D12146304600F0C8
:1044D00052F8002020810120288170BD2DE9F04193
:1044E00007460E4614461D463089012805D131463F
:1044F000384600F040F8002030812089012805D19D
:104500002146384600F037F800202081288901280C
:1045100005D12946384600F02EF800202881BDE854
:10452000F0812DE9F04180460C4615461E46069F57
:10453000012C08D12889012805D12946404600F0E0
:104540001AF800202881022C08D13089012805D1D1
:104550003146404600F00FF800203081032C08D18E
:104560003889012805D13946404600F004F800207A
:104570003881BDE8F08170B505460C46A2792179F5
:104580002846FCF7D7FA28462168FCF7F0FB70BDF7
:1045900000B587B0142102A8FBF72AFE00BF4648E9
:1045A000006840F00400444908600846006800F0D4
:1045B0000400019000BF00BF00BF0846006840F043
:1045C000200008600846006800F02000019000BF4D
:1045D00000BF00BF0846006840F0010008600846C0
:1045E000006800F00100019000BF00BF00BF084656
:1045F000006840F0020008600846006800F0020011
:10460000019000BF00BF00BF0846006840F00800EE
:1046100008600846006800F00800019000BF00BF75
:10462000002243F2EF312548FEF78DFA002248F6CA
:104630000F712348FEF787FA00224FF2010121484B
:10464000FEF781FA43F2EF30029001200390002040
:104650000490059002A91948FEF766F948F60F7014
:1046600002900120039000200490059002A91448B4
:10467000FEF75AF94FF2010002900120039000204A
:104680000490059002A90F48FEF74EF9042002900D
:10469000002003900120049002A90B48FEF744F982
:1046A00038200290002003900120049002A90548C0
:1046B000FEF73AF907B000BD1C380240000802407E
:1046C0000000024000040240000C024000B587B028
:1046D000142102A8FBF78CFD0020019023482449F7
:1046E0000860002048607F2121488160FF21C1606F
:1046F0000021016141618161FFF756F808B1FDF7C2
:1047000061FD01211A48FEF7EFFF42F2086188427D
:1047100029D100208DF808008DF809008DF80A00D5
:1047200005900690002202A91148FFF715F908B17B
:10473000FDF748FD01208DF804008DF805000420E8
:104740008DF8060000208DF80700002201A9084816
:10475000FFF794F808B1FDF735FD42F20862012138
:104760000348FEF7C7FF07B000BD00000028004067
:10477000BC01002000B587B0002003900490059094
:104780000690019002904FF080401549086043F672
:104790007F60486000211248816040F2E731C160CB
:1047A0000021016180214161FFF703FA08B1FDF7A3
:1047B00009FD4FF48050039003A90948FFF771FAEF
:1047C00008B1FDF7FFFC00200190029001A9044808
:1047D000FFF7B6F908B1FDF7F5FC07B000BD000022
:1047E000DC01002010B50B480B4908604FF4E130A4
:1047F0004860002108488160C16001610C2141616D
:1048000000218161C161FFF76FFC08B1FDF7DAFC9F
:1048100010BD0000003801401C02002010B50B48FC
:104820000B4908604FF4E13048600021084881607E
:10483000C16001610C21416100218161C161FFF70B
:1048400053FC08B1FDF7BEFC10BD0000004800405D
:104850006002002000BFFEE710B50E48007898B94E
:104860000D490E48FCF776FF0A49087008460078A3
:1048700001280DD10A48407810B901200949087073
:1048800000200949087003E0FCF7E2FD00F0F6FAA9
:1048900010BD00004A010020FC0200208C16002000
:1048A000560100205D0100204B01002070470000F0
:1048B00010B504461C48007810B900201B49087048
:1048C0001A48007878BB2078012823D10020207076
:1048D00017480068401C1649086008462022154900
:1048E0000368204601F0D6FA1348006813490968A6
:1048F000884205D10F4910480068FDF771FD04E0BA
:104900000C490D480068FDF72DFDFDF797FB0120D0
:10491000064908700A48006807490968884202D0B9
:1049200001200249087010BD5400002055000020ED
:104930004C000020800100205C000020640000206A
:10494000600000207047000081B00021204A1268FA
:1049500012F0F00F25D11F4B1A6812F0805F1E4A2B
:1049600003D0126802F4C05214E0D3F800C04CF037
:10497000805CC3F800C0D3F800C00CF0805CCDF8B8
:1049800000C0126802F4C052D3F800C02CF0805C62
:10499000C3F800C0B2F5C05F03D1B0F5404F00D1FD
:1049A00001210E48012903D1026842F0040202608D
:1049B000026822F001020A430260006800F0010070
:1049C000884202D0012001B07047002001B070473A
:1049D000083802402438024000700040003C024089
:1049E000010901EB8101490000F00F000844C0B249
:1049F000704700210A2804D3491C0A38C0B20A288B
:104A0000FAD2090740EA1160704770B50446206881
:104A1000C16811F0400F17D14FF0FF31C160FEF7B0
:104A200099F805462068C06810F0400F0CD1FEF7D9
:104A300091F8401BB0F57A7F01D9032070BD206842
:104A4000C06810F0400FF2D0002070BD10B50E48C5
:104A5000FDF7CEFB0D49088008460088012811D1DA
:104A60000948001DFDF7C4FB0949086006480830E5
:104A7000FDF7BEFB0749086003480C30FDF7B8FBA3
:104A80000549086010BD000000F803084801002037
:104A900034010020380100203C0100202DE9F043C2
:104AA0009FB004460D4616461F46DDE92689284676
:104AB000FCF7FAFB012874D129462046FCF730FCAC
:104AC00001286FD0474905F10800FBF79CFB00283F
:104AD00067D026220EA82168FBF771FB2068C08CE6
:104AE000ADF85E002068816A1891808DADF8640091
:104AF0002068C08DADF866002068006B1A902068B1
:104B000000F1340109221BA8FBF759FB206890F83B
:104B10003D008DF87500206890F83E008DF8760015
:104B20002068006C1E9005F10800342212A90D9037
:104B30006846FBF744FB0EA80FC800F0A7FE2AA1A9
:104B400005F10800FBF75FFB20B101221146284860
:104B5000FDF7F9FF27A105F10800FBF754FB20B191
:104B6000002201212248FDF7EEFF24A105F10800F3
:104B7000FBF749FBB8B14B464246394605F1080000
:104B800000F044F801280ED129462046FCF7ACFC81
:104B9000012802D12846FDF7B4FA01201FB0BDE874
:104BA000F0831AE01AE017A105F10800FBF72BFBD0
:104BB00050B129462046FCF797FC012802D128462F
:104BC000FDF79FFA0120E9E729462046FCF78CFC17
:104BD000012805D12846FDF794FA01E00120307044
:104BE0000020DBE7560000204F4E4C4544350000C6
:104BF000000802404F46464C454435005345545545
:104C00005000000052455345540000002DE9F04F7C
:104C10008DB004468B4691469A462046FBF705FB2D
:104C200085B200260027B046002053E0215C5429BD
:104C300002D0215C74294CD1811C615C3D2903D0D8
:104C4000811C615C3A2944D1411C615C312911D13C
:104C5000C11C0CE0625C302A02DB625C392A00DD98
:104C600007E0625C09AB9A55721C96B2491CA942D6
:104C7000F0DB00BF411C615C322911D1C11C0CE08A
:104C8000625C302A02DB625C392A00DD07E0625C8C
:104C900005ABDA557A1C97B2491CA942F0DB00BF7C
:104CA000411C615C332914D1C11C0FE0625C302AC5
:104CB00002DB625C392A00DD0AE0625C01AB03F8CA
:104CC000082008F101021FFA82F8491CA942EDDB15
:104CD00000BF401CA842A9DB3246594609A8FCF790
:104CE00053F83A46494605A8FCF74EF84246514665
:104CF00001A8FCF749F80EB9012000E000200FB927
:104D0000012100E000210840B8F1000F01D101218C
:104D100000E00021084018B100200DB0BDE8F08F80
:104D20000120FAE72DE9F04706460F4614461D46D6
:104D3000DDE90889002239463046FDF704FF0022EC
:104D400029462046FDF7FFFE002249464046FDF772
:104D5000FAFEBDE8F08700000020014908707047A6
:104D6000540000202DE9F04104460F4615461E462A
:104D70000F4807600F4805600F480660012020803B
:104D80000B480E4908600C4802680A480168084848
:104D90000068FFF715FB08480268064801680448E8
:104DA000006801F003F800F057FFBDE8F081000053
:104DB00074000020780000207C000020800000208B
:104DC0002848008838B927480088401C25490880B1
:104DD0000020254908602348008801280DD1224879
:104DE000006822490968884207D31E480088401C91
:104DF0001C49088000201C4908601A4800880228C5
:104E00000DD1194800681A490968884207D3154826
:104E10000088401C1349088000201349086011488D
:104E2000008803280DD1104800681049096888429D
:104E300007D30C480088401C0A49088000200A4912
:104E400008600848008804280AD107480068094912
:104E50000968884204D3002003490860014908809A
:104E60007047000044010020300100203C01002078
:104E70003401002038010020704700001CB53C4878
:104E80000078002872D13B48007801286ED13A485A
:104E9000007801280AD139483749354B384ACDE9DD
:104EA000001038493848FDF715FB4CE037483849C1
:104EB000384B2F4ACDE9001032493348FFF7EEFD59
:104EC000012830D1344908230A46CDE900100421D5
:104ED0003148FFF727FF02202F4903462F4ACDE92B
:104EE000001001211046FFF71DFF00202C4908602B
:104EF0002C49088001202C49088024480068244956
:104F00000968CDE900102348012228490368284890
:104F1000FDF7AFFA1D4803681D4802681D48016887
:104F20002448FFF71FFF164A1649174800F046F8B5
:104F30000446012C01D10E490870601C10B90020F4
:104F40000C49087000BF0D48007801280ED10C48AC
:104F500001680091406801460190009800F028FA2D
:104F60000020064908700120134908701CBD00008C
:104F70004B0100204A0100205D0100205E0100205D
:104F800056010020FC0200208C1600203C0100206D
:104F900038010020340100200008024000000240D7
:104FA00030010020440100204001002000FC0308E3
:104FB00000F80308460100205F01002070B5A0B092
:104FC00004460D461646FDF7D3F8012802D1801E8F
:104FD00020B070BDE748007801287DD1E648007810
:104FE00000287AD13078012803D10020E1490870E7
:104FF000EEE7E2480068E2490968884273D0262259
:105000000FA82968FBF7DBF82868C08CADF86200B0
:105010002868816A1991808DADF868002868C08D74
:10502000ADF86A002868006B1B90286800F1340115
:1050300009221CA8FBF7C3F8286890F83D008DF8FA
:105040007900286890F83E008DF87A002868006C96
:105050001F90CCA0342213A90D906846FBF7AFF83F
:105060000FA80FC800F012FC26220FA82168FBF73A
:10507000A6F82068C08CADF862002068816A19919A
:10508000808DADF868002068C08DADF86A0020689A
:10509000006B1B90206800F1340109221CA8FBF76B
:1050A0008EF8206890F83D008DF87900206890F81F
:1050B0003E008DF87A002068006C1F90B1A0342269
:1050C00013A90D906846FBF77AF80FA80FC800F0F7
:1050D000DDFB0120A84901E04AE104E00870FDF78A
:1050E00039FDAC490860A448007801287ED12846E3
:1050F000FCF7DAF80128F9D129462046FCF710F927
:10510000012874D0A4A105F10800FBF77CF8002861
:105110006ED0A24999480068FDF76DF826220FA8C5
:105120002168FBF74CF82068C08CADF8620020685D
:10513000816A1991808DADF868002068C08DADF846
:105140006A002068006B1B90206800F1340109227E
:105150001CA8FBF734F8206890F83D008DF8790022
:10516000206890F83E008DF87A002068006C1F904F
:1051700005F10800342213A90D906846FBF71FF8CB
:105180000FA80FC800F082FB26220FA82968FBF7A2
:1051900016F82868C08CADF862002868816A1991F9
:1051A000808DADF868002868C08DADF86A00286869
:1051B000006B1B90286800F1340109221CA8FAF743
:1051C000FEFF286890F83D008DF87900286890F877
:1051D0003E008DF87A002868006C1F906F483422DA
:1051E00013A90D906846FAF7EAFF02E04AE04AE0A8
:1051F0003FE00FA80FC800F049FB26220FA8216846
:10520000FAF7DDFF2068C08CADF862002068816A83
:105210001991808DADF868002068C08DADF86A00E6
:105220002068006B1B90206800F1340109221CA843
:10523000FAF7C5FF206890F83D008DF879002068E6
:1052400090F83E008DF87A002068006C1F9053485B
:10525000342213A90D906846FAF7B1FF0FA80FC8C2
:1052600000F014FB022044490870FDF773FC494923
:10527000086029462046FCF737F9012808D128465E
:10528000FCF73FFF04E000203B49087001209FE647
:105290003948007802286BD12846FCF705F8012828
:1052A00066D129462046FCF73BF801285BD03CA19B
:1052B00005F10800FAF7A7FFE8B326220FA8216836
:1052C000FAF77DFF2068C08CADF862002068816A23
:1052D0001991808DADF868002068C08DADF86A0026
:1052E0002068006B1B90206800F1340109221CA883
:1052F000FAF765FF206890F83D008DF87900206886
:1053000090F83E008DF87A002068006C1F9005F13F
:105310000800342213A90D906846FAF750FF0FA831
:105320000FC800F0B3FA29462046FCF7DDF8012843
:1053300004D1284600E008E0FCF7E3FEFCF742FE5B
:1053400000200D4908700B49087017A105F10800ED
:10535000FAF759FF60B10020074908702846FCF7AA
:10536000D0FE012034E600200349087001202FE61A
:1053700000202DE655000020540000206000002091
:105380005C00002041542B43495053454E443D316D
:105390002C333200500000203E000000800100202D
:1053A00053554343455353004641494C00000000C8
:1053B00013B59DF804000D4908709DF8050048706C
:1053C0009DF80600887000220948FEF7C5FA9DF88E
:1053D00001000849C8709DF8020048709DF803005C
:1053E000887000220248FEF749FA1CBD1C2A0020E2
:1053F000BC01002052010020F0B53C233C24194D93
:10540000194E36684FF46167B6FBF7F606800688DA
:10541000C6EB0616B600C6EB0616134F3F68A7EBA1
:1054200086063C27B6FBF7F60E800688C6EB061606
:10543000B600C6EB06160C4F3F88A7EB86060F8812
:10544000C7EB0717A6EB87061680074E36682F4670
:10545000BE4205D90026044F3E6006800E801680AD
:10546000F0BD000080510100300100202DE9F0471F
:1054700081460E4692461D46DDE908870A9C022CAD
:1054800004D8002231461548FDF75DFB022C10D9E7
:10549000032C0ED8002229461048FDF754FB0022A9
:1054A00039460F48FDF74FFB012231460B48FDF707
:1054B0004AFB032C06D9062C04D8012229460748AA
:1054C000FDF741FB062C06D9152C04D800222946ED
:1054D0000248FDF738FBBDE8F087000000040240F9
:1054E00000080240FEB506460C460025FDF732FBDB
:1054F00010490968401A45F6D811884215D8FDF7B9
:1055000029FB0C490968401A4FF47A71B0FBF1F598
:10551000202009490123094ACDE901050091010232
:105520001046FFF7A3FF0020FEBD2046FCF7E9FD73
:105530000120F9E728000020000802400004024092
:1055400010B5FDF70DFBFEF7F7FA10BD00B595B0ED
:10555000342108A8FAF74CFE142103A8FAF748FEF4
:105560000020019002901948006820F4C05040F4D7
:105570000060164908600620089001200A900B90F0
:1055800010200C900020119008A8FDF7BBFD08B179
:10559000FCF718FE0F2003900120049000200590D6
:1055A00006900790002103A8FDF744FC08B1FCF722
:1055B00009FE012001900004029001A8FDF790FB74
:1055C00008B1FCF7FFFD15B000BD00000070004001
:1055D0001448006840F4807012490860114808308F
:1055E0000068114908400F49083108600D480068FB
:1055F0000E4908400B4908600846006820F48020E6
:10560000086008480830006820F47D00054908312A
:1056100008600020091D08604FF000600449086020
:1056200070470000003802400CC0FF88FEFFFEEE0D
:1056300008ED00E010B50248FEF7A6FB10BD000023
:10564000DC01002070B40268DFF870C01C4B1D4CF8
:105650001D4DB0F1804F07D0604505D0984203D072
:10566000A04201D0A84203D122F070024E6832431A
:10567000B0F1804F11D060450FD098420DD0A042BC
:105680000BD0A84209D0A0F18043B3F5863304D0F3
:10569000A0F18043B3F5883303D122F44072CB6884
:1056A0001A430B6922F080021A4302608A68C262C0
:1056B000096881620121416170BC704700040040AB
:1056C00000080040000C004000080140D0F808C06D
:1056D0002CF47F4C42EA0322114341EA0C01816021
:1056E0007047826822F07002114341F00701816027
:1056F0007047036AD0F820C02CF0010CC0F820C01D
:10570000D0F818C02CF0F00C4CEA021223F00A0377
:105710001943826101627047036A23F01003036238
:10572000D0F818C0036A2CF4704C4CEA023223F013
:10573000A00343EA011182610162704710B50022A3
:105740001F492048FEF700F800221F491D48FDF7B9
:10575000D7FF1D48C07800282BD0194880781B49F6
:105760008979884225D0012018490870144880782A
:1057700088711348407848711148007808711248C0
:105780008078C8701048407888700F48C07848709A
:105790000846807908B9012008700C48007940B9A2
:1057A0000A48407928B90948807910B90120084988
:1057B00008700648407810B10448FFF779F810BD2A
:1057C0001C2A0020BC0100205201002056010020AC
:1057D0005D0100207CB504460D462348007800BBDF
:1057E0004FF4FA70214922A322A2CDE900102946E4
:1057F0002046FBF719FC012807D100201B4908703F
:1058000019480078401C18490870184800780A2880
:1058100006DD00201549087013490870401E7CBD44
:105820001FE04FF4FA70114911A315A2CDE9001041
:1058300029462046FBF7F8FB012806D100200B493A
:105840000870094908700120E9E7084800780A282B
:1058500006DD00200549087003490870401EDEE798
:1058600000BF00BF0020DAE7180000201E00002063
:105870004F4B000041542B4346554E3D3400000031
:1058800041542B4346554E3D310000000FB470B5D6
:10589000159C2046FAF7C9FC85B24FF47A732A4664
:1058A000214604A8FEF724FD4FF47A73022203A1D7
:1058B00004A8FEF71DFD70BC5DF814FB0D0A000086
:1058C00010B5406A0021C185C184FEF70BFB10BDF5
:1058D0000168CA6822F49072CA6001684A6922F0BD
:1058E00001024A61016B012904D10168CA6822F0F2
:1058F0001002CA60202180F83E1000210163704729
:1059000010B50168CA6822F04002CA60202180F800
:105910003D10FEF752FD002010BD08B590F83E1076
:10592000222901D0022008BD8268B2F5805F01D132
:10593000016929B1816AB2F5805F1DD052B10BE0D7
:10594000816A02685268C2F308020A80816A891C6F
:10595000816209E002697AB10268526802F07F024E
:105960000A70816A491C8162C18D491E0904090CB3
:10597000C18505D0002008BD026852680A70F0E7B2
:105980000168CA6822F02002CA600168CA6822F46D
:105990008072CA6001684A6922F001024A612021CE
:1059A00080F83E10016B012903D0FEF76DFC00204A
:1059B00008BD002101630168CA6822F01002CA60B4
:1059C00001680A6812F0100F02D00A684968009155
:1059D000818DFEF786FAEAE72DE9F041044620685A
:1059E0000169E26821F44051114301612169A06815
:1059F000E26908436169114301432068C26822F4E7
:105A0000037222F414421143C16020684169A26903
:105A100021F44071114341612068A0F18041B1F54A
:105A20009C3142D0FDF714FBE1693F4A3223B1F5C6
:105A3000004F3DD000EBC00101EB00106168890010
:105A4000B0FBF1FCA2FB0C6CB0FBF1F54FEA5C1C67
:105A50006FF018060CFB06FC05EB8C0C03EB0C1C22
:105A6000A2FB0C5C4FEA5C1C0CF0F005B0FBF1FCF7
:105A7000A2FB0C6C4FEA5C1C05EB0C1CB0FBF1F5B7
:105A8000B0FBF1F0A2FB001040096FF01801484391
:105A900005EB800003EB0010A2FB00102168C0F3AF
:105AA000431060448860BDE8F081FDF7E1FABBE790
:105AB00000EBC00101EB001061684900B0FBF1FC94
:105AC000A2FB0C5C4FEA5C1C4FEA0C15B0FBF1FC2E
:105AD000A2FB0C7CB0FBF1F64FEA5C1C6FF01807E0
